{
	"contracts/HelloComrades.sol": {
		"HelloComrades": {
			"abi": [
				{
					"inputs": [],
					"stateMutability": "nonpayable",
					"type": "constructor"
				},
				{
					"anonymous": false,
					"inputs": [
						{
							"indexed": false,
							"internalType": "string",
							"name": "tag",
							"type": "string"
						},
						{
							"indexed": false,
							"internalType": "address",
							"name": "from",
							"type": "address"
						},
						{
							"indexed": false,
							"internalType": "uint256",
							"name": "amount",
							"type": "uint256"
						},
						{
							"indexed": false,
							"internalType": "bytes",
							"name": "data",
							"type": "bytes"
						}
					],
					"name": "Log",
					"type": "event"
				},
				{
					"stateMutability": "payable",
					"type": "fallback"
				},
				{
					"inputs": [],
					"name": "getBalance",
					"outputs": [
						{
							"internalType": "uint256",
							"name": "",
							"type": "uint256"
						}
					],
					"stateMutability": "view",
					"type": "function"
				},
				{
					"inputs": [],
					"name": "leader",
					"outputs": [
						{
							"internalType": "address",
							"name": "",
							"type": "address"
						}
					],
					"stateMutability": "view",
					"type": "function"
				},
				{
					"stateMutability": "payable",
					"type": "receive"
				}
			],
			"devdoc": {
				"kind": "dev",
				"methods": {},
				"version": 1
			},
			"evm": {
				"assembly": "    /* \"contracts/HelloComrades.sol\":65:1223  contract HelloComrades {... */\n  mstore(0x40, 0xa0)\n    /* \"contracts/HelloComrades.sol\":402:432  constructor() {... */\n  callvalue\n  dup1\n  iszero\n  tag_1\n  jumpi\n  0x00\n  dup1\n  revert\ntag_1:\n  pop\n    /* \"contracts/HelloComrades.sol\":65:1223  contract HelloComrades {... */\n  mload(0x80)\n  codecopy(0x00, dataOffset(sub_0), dataSize(sub_0))\n  0x00\n  assignImmutable(\"0x2a80e1ef1d7842f27f2e6be0972bb708b9a135c38860dbe73c27c3486c34f4de\")\n  return(0x00, dataSize(sub_0))\nstop\n\nsub_0: assembly {\n        /* \"contracts/HelloComrades.sol\":65:1223  contract HelloComrades {... */\n      mstore(0x40, 0x80)\n      jumpi(tag_1, lt(calldatasize, 0x04))\n      shr(0xe0, calldataload(0x00))\n      dup1\n      0x12065fe0\n      eq\n      tag_3\n      jumpi\n      dup1\n      0x40eedabb\n      eq\n      tag_4\n      jumpi\n      jump(tag_2)\n    tag_1:\n      jumpi(tag_2, calldatasize)\n        /* \"contracts/HelloComrades.sol\":964:1005  Log(\"receive\", msg.sender, msg.value, \"\") */\n      0xf7f75251dee7d7fc22deac3247729ebe7c86541f35930bf10c2a4207479a3b6c\n        /* \"contracts/HelloComrades.sol\":979:989  msg.sender */\n      caller\n        /* \"contracts/HelloComrades.sol\":991:1000  msg.value */\n      callvalue\n        /* \"contracts/HelloComrades.sol\":964:1005  Log(\"receive\", msg.sender, msg.value, \"\") */\n      mload(0x40)\n      tag_7\n      swap3\n      swap2\n      swap1\n      tag_8\n      jump\t// in\n    tag_7:\n      mload(0x40)\n      dup1\n      swap2\n      sub\n      swap1\n      log1\n        /* \"contracts/HelloComrades.sol\":65:1223  contract HelloComrades {... */\n      stop\n    tag_2:\n        /* \"contracts/HelloComrades.sol\":1061:1109  Log(\"fallback\", msg.sender, msg.value, msg.data) */\n      0xf7f75251dee7d7fc22deac3247729ebe7c86541f35930bf10c2a4207479a3b6c\n        /* \"contracts/HelloComrades.sol\":1077:1087  msg.sender */\n      caller\n        /* \"contracts/HelloComrades.sol\":1089:1098  msg.value */\n      callvalue\n        /* \"contracts/HelloComrades.sol\":1100:1108  msg.data */\n      0x00\n      calldatasize\n        /* \"contracts/HelloComrades.sol\":1061:1109  Log(\"fallback\", msg.sender, msg.value, msg.data) */\n      mload(0x40)\n      tag_11\n      swap5\n      swap4\n      swap3\n      swap2\n      swap1\n      tag_12\n      jump\t// in\n    tag_11:\n      mload(0x40)\n      dup1\n      swap2\n      sub\n      swap1\n      log1\n        /* \"contracts/HelloComrades.sol\":65:1223  contract HelloComrades {... */\n      stop\n        /* \"contracts/HelloComrades.sol\":1122:1221  function getBalance() external view returns (uint256) {... */\n    tag_3:\n      callvalue\n      dup1\n      iszero\n      tag_13\n      jumpi\n      0x00\n      dup1\n      revert\n    tag_13:\n      pop\n      tag_14\n      tag_15\n      jump\t// in\n    tag_14:\n      mload(0x40)\n      tag_16\n      swap2\n      swap1\n      tag_17\n      jump\t// in\n    tag_16:\n      mload(0x40)\n      dup1\n      swap2\n      sub\n      swap1\n      return\n        /* \"contracts/HelloComrades.sol\":199:230  address public immutable leader */\n    tag_4:\n      callvalue\n      dup1\n      iszero\n      tag_18\n      jumpi\n      0x00\n      dup1\n      revert\n    tag_18:\n      pop\n      tag_19\n      tag_20\n      jump\t// in\n    tag_19:\n      mload(0x40)\n      tag_21\n      swap2\n      swap1\n      tag_22\n      jump\t// in\n    tag_21:\n      mload(0x40)\n      dup1\n      swap2\n      sub\n      swap1\n      return\n        /* \"contracts/HelloComrades.sol\":1122:1221  function getBalance() external view returns (uint256) {... */\n    tag_15:\n        /* \"contracts/HelloComrades.sol\":1167:1174  uint256 */\n      0x00\n        /* \"contracts/HelloComrades.sol\":1193:1214  address(this).balance */\n      selfbalance\n        /* \"contracts/HelloComrades.sol\":1186:1214  return address(this).balance */\n      swap1\n      pop\n        /* \"contracts/HelloComrades.sol\":1122:1221  function getBalance() external view returns (uint256) {... */\n      swap1\n      jump\t// out\n        /* \"contracts/HelloComrades.sol\":199:230  address public immutable leader */\n    tag_20:\n      immutable(\"0x2a80e1ef1d7842f27f2e6be0972bb708b9a135c38860dbe73c27c3486c34f4de\")\n      dup2\n      jump\t// out\n        /* \"#utility.yul\":7:176   */\n    tag_24:\n        /* \"#utility.yul\":91:102   */\n      0x00\n        /* \"#utility.yul\":125:131   */\n      dup3\n        /* \"#utility.yul\":120:123   */\n      dup3\n        /* \"#utility.yul\":113:132   */\n      mstore\n        /* \"#utility.yul\":165:169   */\n      0x20\n        /* \"#utility.yul\":160:163   */\n      dup3\n        /* \"#utility.yul\":156:170   */\n      add\n        /* \"#utility.yul\":141:170   */\n      swap1\n      pop\n        /* \"#utility.yul\":7:176   */\n      swap3\n      swap2\n      pop\n      pop\n      jump\t// out\n        /* \"#utility.yul\":182:339   */\n    tag_25:\n        /* \"#utility.yul\":322:331   */\n      0x7265636569766500000000000000000000000000000000000000000000000000\n        /* \"#utility.yul\":318:319   */\n      0x00\n        /* \"#utility.yul\":310:316   */\n      dup3\n        /* \"#utility.yul\":306:320   */\n      add\n        /* \"#utility.yul\":299:332   */\n      mstore\n        /* \"#utility.yul\":182:339   */\n      pop\n      jump\t// out\n        /* \"#utility.yul\":345:710   */\n    tag_26:\n        /* \"#utility.yul\":487:490   */\n      0x00\n        /* \"#utility.yul\":508:574   */\n      tag_44\n        /* \"#utility.yul\":572:573   */\n      0x07\n        /* \"#utility.yul\":567:570   */\n      dup4\n        /* \"#utility.yul\":508:574   */\n      tag_24\n      jump\t// in\n    tag_44:\n        /* \"#utility.yul\":501:574   */\n      swap2\n      pop\n        /* \"#utility.yul\":583:676   */\n      tag_45\n        /* \"#utility.yul\":672:675   */\n      dup3\n        /* \"#utility.yul\":583:676   */\n      tag_25\n      jump\t// in\n    tag_45:\n        /* \"#utility.yul\":701:703   */\n      0x20\n        /* \"#utility.yul\":696:699   */\n      dup3\n        /* \"#utility.yul\":692:704   */\n      add\n        /* \"#utility.yul\":685:704   */\n      swap1\n      pop\n        /* \"#utility.yul\":345:710   */\n      swap2\n      swap1\n      pop\n      jump\t// out\n        /* \"#utility.yul\":716:842   */\n    tag_27:\n        /* \"#utility.yul\":753:760   */\n      0x00\n        /* \"#utility.yul\":793:835   */\n      0xffffffffffffffffffffffffffffffffffffffff\n        /* \"#utility.yul\":786:791   */\n      dup3\n        /* \"#utility.yul\":782:836   */\n      and\n        /* \"#utility.yul\":771:836   */\n      swap1\n      pop\n        /* \"#utility.yul\":716:842   */\n      swap2\n      swap1\n      pop\n      jump\t// out\n        /* \"#utility.yul\":848:944   */\n    tag_28:\n        /* \"#utility.yul\":885:892   */\n      0x00\n        /* \"#utility.yul\":914:938   */\n      tag_48\n        /* \"#utility.yul\":932:937   */\n      dup3\n        /* \"#utility.yul\":914:938   */\n      tag_27\n      jump\t// in\n    tag_48:\n        /* \"#utility.yul\":903:938   */\n      swap1\n      pop\n        /* \"#utility.yul\":848:944   */\n      swap2\n      swap1\n      pop\n      jump\t// out\n        /* \"#utility.yul\":950:1068   */\n    tag_29:\n        /* \"#utility.yul\":1037:1061   */\n      tag_50\n        /* \"#utility.yul\":1055:1060   */\n      dup2\n        /* \"#utility.yul\":1037:1061   */\n      tag_28\n      jump\t// in\n    tag_50:\n        /* \"#utility.yul\":1032:1035   */\n      dup3\n        /* \"#utility.yul\":1025:1062   */\n      mstore\n        /* \"#utility.yul\":950:1068   */\n      pop\n      pop\n      jump\t// out\n        /* \"#utility.yul\":1074:1151   */\n    tag_30:\n        /* \"#utility.yul\":1111:1118   */\n      0x00\n        /* \"#utility.yul\":1140:1145   */\n      dup2\n        /* \"#utility.yul\":1129:1145   */\n      swap1\n      pop\n        /* \"#utility.yul\":1074:1151   */\n      swap2\n      swap1\n      pop\n      jump\t// out\n        /* \"#utility.yul\":1157:1275   */\n    tag_31:\n        /* \"#utility.yul\":1244:1268   */\n      tag_53\n        /* \"#utility.yul\":1262:1267   */\n      dup2\n        /* \"#utility.yul\":1244:1268   */\n      tag_30\n      jump\t// in\n    tag_53:\n        /* \"#utility.yul\":1239:1242   */\n      dup3\n        /* \"#utility.yul\":1232:1269   */\n      mstore\n        /* \"#utility.yul\":1157:1275   */\n      pop\n      pop\n      jump\t// out\n        /* \"#utility.yul\":1281:1449   */\n    tag_32:\n        /* \"#utility.yul\":1364:1375   */\n      0x00\n        /* \"#utility.yul\":1398:1404   */\n      dup3\n        /* \"#utility.yul\":1393:1396   */\n      dup3\n        /* \"#utility.yul\":1386:1405   */\n      mstore\n        /* \"#utility.yul\":1438:1442   */\n      0x20\n        /* \"#utility.yul\":1433:1436   */\n      dup3\n        /* \"#utility.yul\":1429:1443   */\n      add\n        /* \"#utility.yul\":1414:1443   */\n      swap1\n      pop\n        /* \"#utility.yul\":1281:1449   */\n      swap3\n      swap2\n      pop\n      pop\n      jump\t// out\n        /* \"#utility.yul\":1455:1569   */\n    tag_33:\n      pop\n      jump\t// out\n        /* \"#utility.yul\":1575:1937   */\n    tag_34:\n        /* \"#utility.yul\":1716:1719   */\n      0x00\n        /* \"#utility.yul\":1737:1802   */\n      tag_57\n        /* \"#utility.yul\":1800:1801   */\n      0x00\n        /* \"#utility.yul\":1795:1798   */\n      dup4\n        /* \"#utility.yul\":1737:1802   */\n      tag_32\n      jump\t// in\n    tag_57:\n        /* \"#utility.yul\":1730:1802   */\n      swap2\n      pop\n        /* \"#utility.yul\":1811:1904   */\n      tag_58\n        /* \"#utility.yul\":1900:1903   */\n      dup3\n        /* \"#utility.yul\":1811:1904   */\n      tag_33\n      jump\t// in\n    tag_58:\n        /* \"#utility.yul\":1929:1930   */\n      0x00\n        /* \"#utility.yul\":1924:1927   */\n      dup3\n        /* \"#utility.yul\":1920:1931   */\n      add\n        /* \"#utility.yul\":1913:1931   */\n      swap1\n      pop\n        /* \"#utility.yul\":1575:1937   */\n      swap2\n      swap1\n      pop\n      jump\t// out\n        /* \"#utility.yul\":1943:2888   */\n    tag_8:\n        /* \"#utility.yul\":2265:2269   */\n      0x00\n        /* \"#utility.yul\":2303:2306   */\n      0x80\n        /* \"#utility.yul\":2292:2301   */\n      dup3\n        /* \"#utility.yul\":2288:2307   */\n      add\n        /* \"#utility.yul\":2280:2307   */\n      swap1\n      pop\n        /* \"#utility.yul\":2353:2362   */\n      dup2\n        /* \"#utility.yul\":2347:2351   */\n      dup2\n        /* \"#utility.yul\":2343:2363   */\n      sub\n        /* \"#utility.yul\":2339:2340   */\n      0x00\n        /* \"#utility.yul\":2328:2337   */\n      dup4\n        /* \"#utility.yul\":2324:2341   */\n      add\n        /* \"#utility.yul\":2317:2364   */\n      mstore\n        /* \"#utility.yul\":2381:2512   */\n      tag_60\n        /* \"#utility.yul\":2507:2511   */\n      dup2\n        /* \"#utility.yul\":2381:2512   */\n      tag_26\n      jump\t// in\n    tag_60:\n        /* \"#utility.yul\":2373:2512   */\n      swap1\n      pop\n        /* \"#utility.yul\":2522:2594   */\n      tag_61\n        /* \"#utility.yul\":2590:2592   */\n      0x20\n        /* \"#utility.yul\":2579:2588   */\n      dup4\n        /* \"#utility.yul\":2575:2593   */\n      add\n        /* \"#utility.yul\":2566:2572   */\n      dup6\n        /* \"#utility.yul\":2522:2594   */\n      tag_29\n      jump\t// in\n    tag_61:\n        /* \"#utility.yul\":2604:2676   */\n      tag_62\n        /* \"#utility.yul\":2672:2674   */\n      0x40\n        /* \"#utility.yul\":2661:2670   */\n      dup4\n        /* \"#utility.yul\":2657:2675   */\n      add\n        /* \"#utility.yul\":2648:2654   */\n      dup5\n        /* \"#utility.yul\":2604:2676   */\n      tag_31\n      jump\t// in\n    tag_62:\n        /* \"#utility.yul\":2723:2732   */\n      dup2\n        /* \"#utility.yul\":2717:2721   */\n      dup2\n        /* \"#utility.yul\":2713:2733   */\n      sub\n        /* \"#utility.yul\":2708:2710   */\n      0x60\n        /* \"#utility.yul\":2697:2706   */\n      dup4\n        /* \"#utility.yul\":2693:2711   */\n      add\n        /* \"#utility.yul\":2686:2734   */\n      mstore\n        /* \"#utility.yul\":2751:2881   */\n      tag_63\n        /* \"#utility.yul\":2876:2880   */\n      dup2\n        /* \"#utility.yul\":2751:2881   */\n      tag_34\n      jump\t// in\n    tag_63:\n        /* \"#utility.yul\":2743:2881   */\n      swap1\n      pop\n        /* \"#utility.yul\":1943:2888   */\n      swap4\n      swap3\n      pop\n      pop\n      pop\n      jump\t// out\n        /* \"#utility.yul\":2894:3052   */\n    tag_35:\n        /* \"#utility.yul\":3034:3044   */\n      0x66616c6c6261636b000000000000000000000000000000000000000000000000\n        /* \"#utility.yul\":3030:3031   */\n      0x00\n        /* \"#utility.yul\":3022:3028   */\n      dup3\n        /* \"#utility.yul\":3018:3032   */\n      add\n        /* \"#utility.yul\":3011:3045   */\n      mstore\n        /* \"#utility.yul\":2894:3052   */\n      pop\n      jump\t// out\n        /* \"#utility.yul\":3058:3423   */\n    tag_36:\n        /* \"#utility.yul\":3200:3203   */\n      0x00\n        /* \"#utility.yul\":3221:3287   */\n      tag_66\n        /* \"#utility.yul\":3285:3286   */\n      0x08\n        /* \"#utility.yul\":3280:3283   */\n      dup4\n        /* \"#utility.yul\":3221:3287   */\n      tag_24\n      jump\t// in\n    tag_66:\n        /* \"#utility.yul\":3214:3287   */\n      swap2\n      pop\n        /* \"#utility.yul\":3296:3389   */\n      tag_67\n        /* \"#utility.yul\":3385:3388   */\n      dup3\n        /* \"#utility.yul\":3296:3389   */\n      tag_35\n      jump\t// in\n    tag_67:\n        /* \"#utility.yul\":3414:3416   */\n      0x20\n        /* \"#utility.yul\":3409:3412   */\n      dup3\n        /* \"#utility.yul\":3405:3417   */\n      add\n        /* \"#utility.yul\":3398:3417   */\n      swap1\n      pop\n        /* \"#utility.yul\":3058:3423   */\n      swap2\n      swap1\n      pop\n      jump\t// out\n        /* \"#utility.yul\":3429:3577   */\n    tag_37:\n        /* \"#utility.yul\":3527:3533   */\n      dup3\n        /* \"#utility.yul\":3522:3525   */\n      dup2\n        /* \"#utility.yul\":3517:3520   */\n      dup4\n        /* \"#utility.yul\":3504:3534   */\n      calldatacopy\n        /* \"#utility.yul\":3568:3569   */\n      0x00\n        /* \"#utility.yul\":3559:3565   */\n      dup4\n        /* \"#utility.yul\":3554:3557   */\n      dup4\n        /* \"#utility.yul\":3550:3566   */\n      add\n        /* \"#utility.yul\":3543:3570   */\n      mstore\n        /* \"#utility.yul\":3429:3577   */\n      pop\n      pop\n      pop\n      jump\t// out\n        /* \"#utility.yul\":3583:3685   */\n    tag_38:\n        /* \"#utility.yul\":3624:3630   */\n      0x00\n        /* \"#utility.yul\":3675:3677   */\n      0x1f\n        /* \"#utility.yul\":3671:3678   */\n      not\n        /* \"#utility.yul\":3666:3668   */\n      0x1f\n        /* \"#utility.yul\":3659:3664   */\n      dup4\n        /* \"#utility.yul\":3655:3669   */\n      add\n        /* \"#utility.yul\":3651:3679   */\n      and\n        /* \"#utility.yul\":3641:3679   */\n      swap1\n      pop\n        /* \"#utility.yul\":3583:3685   */\n      swap2\n      swap1\n      pop\n      jump\t// out\n        /* \"#utility.yul\":3713:4027   */\n    tag_39:\n        /* \"#utility.yul\":3809:3812   */\n      0x00\n        /* \"#utility.yul\":3830:3900   */\n      tag_71\n        /* \"#utility.yul\":3893:3899   */\n      dup4\n        /* \"#utility.yul\":3888:3891   */\n      dup6\n        /* \"#utility.yul\":3830:3900   */\n      tag_32\n      jump\t// in\n    tag_71:\n        /* \"#utility.yul\":3823:3900   */\n      swap4\n      pop\n        /* \"#utility.yul\":3910:3966   */\n      tag_72\n        /* \"#utility.yul\":3959:3965   */\n      dup4\n        /* \"#utility.yul\":3954:3957   */\n      dup6\n        /* \"#utility.yul\":3947:3952   */\n      dup5\n        /* \"#utility.yul\":3910:3966   */\n      tag_37\n      jump\t// in\n    tag_72:\n        /* \"#utility.yul\":3991:4020   */\n      tag_73\n        /* \"#utility.yul\":4013:4019   */\n      dup4\n        /* \"#utility.yul\":3991:4020   */\n      tag_38\n      jump\t// in\n    tag_73:\n        /* \"#utility.yul\":3986:3989   */\n      dup5\n        /* \"#utility.yul\":3982:4021   */\n      add\n        /* \"#utility.yul\":3975:4021   */\n      swap1\n      pop\n        /* \"#utility.yul\":3713:4027   */\n      swap4\n      swap3\n      pop\n      pop\n      pop\n      jump\t// out\n        /* \"#utility.yul\":4033:4890   */\n    tag_12:\n        /* \"#utility.yul\":4311:4315   */\n      0x00\n        /* \"#utility.yul\":4349:4352   */\n      0x80\n        /* \"#utility.yul\":4338:4347   */\n      dup3\n        /* \"#utility.yul\":4334:4353   */\n      add\n        /* \"#utility.yul\":4326:4353   */\n      swap1\n      pop\n        /* \"#utility.yul\":4399:4408   */\n      dup2\n        /* \"#utility.yul\":4393:4397   */\n      dup2\n        /* \"#utility.yul\":4389:4409   */\n      sub\n        /* \"#utility.yul\":4385:4386   */\n      0x00\n        /* \"#utility.yul\":4374:4383   */\n      dup4\n        /* \"#utility.yul\":4370:4387   */\n      add\n        /* \"#utility.yul\":4363:4410   */\n      mstore\n        /* \"#utility.yul\":4427:4558   */\n      tag_75\n        /* \"#utility.yul\":4553:4557   */\n      dup2\n        /* \"#utility.yul\":4427:4558   */\n      tag_36\n      jump\t// in\n    tag_75:\n        /* \"#utility.yul\":4419:4558   */\n      swap1\n      pop\n        /* \"#utility.yul\":4568:4640   */\n      tag_76\n        /* \"#utility.yul\":4636:4638   */\n      0x20\n        /* \"#utility.yul\":4625:4634   */\n      dup4\n        /* \"#utility.yul\":4621:4639   */\n      add\n        /* \"#utility.yul\":4612:4618   */\n      dup8\n        /* \"#utility.yul\":4568:4640   */\n      tag_29\n      jump\t// in\n    tag_76:\n        /* \"#utility.yul\":4650:4722   */\n      tag_77\n        /* \"#utility.yul\":4718:4720   */\n      0x40\n        /* \"#utility.yul\":4707:4716   */\n      dup4\n        /* \"#utility.yul\":4703:4721   */\n      add\n        /* \"#utility.yul\":4694:4700   */\n      dup7\n        /* \"#utility.yul\":4650:4722   */\n      tag_31\n      jump\t// in\n    tag_77:\n        /* \"#utility.yul\":4769:4778   */\n      dup2\n        /* \"#utility.yul\":4763:4767   */\n      dup2\n        /* \"#utility.yul\":4759:4779   */\n      sub\n        /* \"#utility.yul\":4754:4756   */\n      0x60\n        /* \"#utility.yul\":4743:4752   */\n      dup4\n        /* \"#utility.yul\":4739:4757   */\n      add\n        /* \"#utility.yul\":4732:4780   */\n      mstore\n        /* \"#utility.yul\":4797:4883   */\n      tag_78\n        /* \"#utility.yul\":4878:4882   */\n      dup2\n        /* \"#utility.yul\":4869:4875   */\n      dup5\n        /* \"#utility.yul\":4861:4867   */\n      dup7\n        /* \"#utility.yul\":4797:4883   */\n      tag_39\n      jump\t// in\n    tag_78:\n        /* \"#utility.yul\":4789:4883   */\n      swap1\n      pop\n        /* \"#utility.yul\":4033:4890   */\n      swap6\n      swap5\n      pop\n      pop\n      pop\n      pop\n      pop\n      jump\t// out\n        /* \"#utility.yul\":4896:5118   */\n    tag_17:\n        /* \"#utility.yul\":4989:4993   */\n      0x00\n        /* \"#utility.yul\":5027:5029   */\n      0x20\n        /* \"#utility.yul\":5016:5025   */\n      dup3\n        /* \"#utility.yul\":5012:5030   */\n      add\n        /* \"#utility.yul\":5004:5030   */\n      swap1\n      pop\n        /* \"#utility.yul\":5040:5111   */\n      tag_80\n        /* \"#utility.yul\":5108:5109   */\n      0x00\n        /* \"#utility.yul\":5097:5106   */\n      dup4\n        /* \"#utility.yul\":5093:5110   */\n      add\n        /* \"#utility.yul\":5084:5090   */\n      dup5\n        /* \"#utility.yul\":5040:5111   */\n      tag_31\n      jump\t// in\n    tag_80:\n        /* \"#utility.yul\":4896:5118   */\n      swap3\n      swap2\n      pop\n      pop\n      jump\t// out\n        /* \"#utility.yul\":5124:5346   */\n    tag_22:\n        /* \"#utility.yul\":5217:5221   */\n      0x00\n        /* \"#utility.yul\":5255:5257   */\n      0x20\n        /* \"#utility.yul\":5244:5253   */\n      dup3\n        /* \"#utility.yul\":5240:5258   */\n      add\n        /* \"#utility.yul\":5232:5258   */\n      swap1\n      pop\n        /* \"#utility.yul\":5268:5339   */\n      tag_82\n        /* \"#utility.yul\":5336:5337   */\n      0x00\n        /* \"#utility.yul\":5325:5334   */\n      dup4\n        /* \"#utility.yul\":5321:5338   */\n      add\n        /* \"#utility.yul\":5312:5318   */\n      dup5\n        /* \"#utility.yul\":5268:5339   */\n      tag_29\n      jump\t// in\n    tag_82:\n        /* \"#utility.yul\":5124:5346   */\n      swap3\n      swap2\n      pop\n      pop\n      jump\t// out\n\n    auxdata: 0xa2646970667358221220c9707e562b7ccb7690e651e4472f11c84db406d4ea62467abf9bbffe44a459c264736f6c634300081a0033\n}\n",
				"bytecode": {
					"linkReferences": {},
					"object": "60a0604052348015600e575f80fd5b506080516103a86100275f395f61010801526103a85ff3fe60806040526004361061002c575f3560e01c806312065fe0146100ab57806340eedabb146100d55761006c565b3661006c577ff7f75251dee7d7fc22deac3247729ebe7c86541f35930bf10c2a4207479a3b6c333460405161006292919061020e565b60405180910390a1005b7ff7f75251dee7d7fc22deac3247729ebe7c86541f35930bf10c2a4207479a3b6c33345f366040516100a194939291906102ef565b60405180910390a1005b3480156100b6575f80fd5b506100bf6100ff565b6040516100cc9190610340565b60405180910390f35b3480156100e0575f80fd5b506100e9610106565b6040516100f69190610359565b60405180910390f35b5f47905090565b7f000000000000000000000000000000000000000000000000000000000000000081565b5f82825260208201905092915050565b7f72656365697665000000000000000000000000000000000000000000000000005f82015250565b5f61016e60078361012a565b91506101798261013a565b602082019050919050565b5f73ffffffffffffffffffffffffffffffffffffffff82169050919050565b5f6101ad82610184565b9050919050565b6101bd816101a3565b82525050565b5f819050919050565b6101d5816101c3565b82525050565b5f82825260208201905092915050565b50565b5f6101f95f836101db565b9150610204826101eb565b5f82019050919050565b5f6080820190508181035f83015261022581610162565b905061023460208301856101b4565b61024160408301846101cc565b8181036060830152610252816101ee565b90509392505050565b7f66616c6c6261636b0000000000000000000000000000000000000000000000005f82015250565b5f61028f60088361012a565b915061029a8261025b565b602082019050919050565b828183375f83830152505050565b5f601f19601f8301169050919050565b5f6102ce83856101db565b93506102db8385846102a5565b6102e4836102b3565b840190509392505050565b5f6080820190508181035f83015261030681610283565b905061031560208301876101b4565b61032260408301866101cc565b81810360608301526103358184866102c3565b905095945050505050565b5f6020820190506103535f8301846101cc565b92915050565b5f60208201905061036c5f8301846101b4565b9291505056fea2646970667358221220c9707e562b7ccb7690e651e4472f11c84db406d4ea62467abf9bbffe44a459c264736f6c634300081a0033",
					"opcodes": "PUSH1 0xA0 PUSH1 0x40 MSTORE CALLVALUE DUP1 ISZERO PUSH1 0xE JUMPI PUSH0 DUP1 REVERT JUMPDEST POP PUSH1 0x80 MLOAD PUSH2 0x3A8 PUSH2 0x27 PUSH0 CODECOPY PUSH0 PUSH2 0x108 ADD MSTORE PUSH2 0x3A8 PUSH0 RETURN INVALID PUSH1 0x80 PUSH1 0x40 MSTORE PUSH1 0x4 CALLDATASIZE LT PUSH2 0x2C JUMPI PUSH0 CALLDATALOAD PUSH1 0xE0 SHR DUP1 PUSH4 0x12065FE0 EQ PUSH2 0xAB JUMPI DUP1 PUSH4 0x40EEDABB EQ PUSH2 0xD5 JUMPI PUSH2 0x6C JUMP JUMPDEST CALLDATASIZE PUSH2 0x6C JUMPI PUSH32 0xF7F75251DEE7D7FC22DEAC3247729EBE7C86541F35930BF10C2A4207479A3B6C CALLER CALLVALUE PUSH1 0x40 MLOAD PUSH2 0x62 SWAP3 SWAP2 SWAP1 PUSH2 0x20E JUMP JUMPDEST PUSH1 0x40 MLOAD DUP1 SWAP2 SUB SWAP1 LOG1 STOP JUMPDEST PUSH32 0xF7F75251DEE7D7FC22DEAC3247729EBE7C86541F35930BF10C2A4207479A3B6C CALLER CALLVALUE PUSH0 CALLDATASIZE PUSH1 0x40 MLOAD PUSH2 0xA1 SWAP5 SWAP4 SWAP3 SWAP2 SWAP1 PUSH2 0x2EF JUMP JUMPDEST PUSH1 0x40 MLOAD DUP1 SWAP2 SUB SWAP1 LOG1 STOP JUMPDEST CALLVALUE DUP1 ISZERO PUSH2 0xB6 JUMPI PUSH0 DUP1 REVERT JUMPDEST POP PUSH2 0xBF PUSH2 0xFF JUMP JUMPDEST PUSH1 0x40 MLOAD PUSH2 0xCC SWAP2 SWAP1 PUSH2 0x340 JUMP JUMPDEST PUSH1 0x40 MLOAD DUP1 SWAP2 SUB SWAP1 RETURN JUMPDEST CALLVALUE DUP1 ISZERO PUSH2 0xE0 JUMPI PUSH0 DUP1 REVERT JUMPDEST POP PUSH2 0xE9 PUSH2 0x106 JUMP JUMPDEST PUSH1 0x40 MLOAD PUSH2 0xF6 SWAP2 SWAP1 PUSH2 0x359 JUMP JUMPDEST PUSH1 0x40 MLOAD DUP1 SWAP2 SUB SWAP1 RETURN JUMPDEST PUSH0 SELFBALANCE SWAP1 POP SWAP1 JUMP JUMPDEST PUSH32 0x0 DUP2 JUMP JUMPDEST PUSH0 DUP3 DUP3 MSTORE PUSH1 0x20 DUP3 ADD SWAP1 POP SWAP3 SWAP2 POP POP JUMP JUMPDEST PUSH32 0x7265636569766500000000000000000000000000000000000000000000000000 PUSH0 DUP3 ADD MSTORE POP JUMP JUMPDEST PUSH0 PUSH2 0x16E PUSH1 0x7 DUP4 PUSH2 0x12A JUMP JUMPDEST SWAP2 POP PUSH2 0x179 DUP3 PUSH2 0x13A JUMP JUMPDEST PUSH1 0x20 DUP3 ADD SWAP1 POP SWAP2 SWAP1 POP JUMP JUMPDEST PUSH0 PUSH20 0xFFFFFFFFFFFFFFFFFFFFFFFFFFFFFFFFFFFFFFFF DUP3 AND SWAP1 POP SWAP2 SWAP1 POP JUMP JUMPDEST PUSH0 PUSH2 0x1AD DUP3 PUSH2 0x184 JUMP JUMPDEST SWAP1 POP SWAP2 SWAP1 POP JUMP JUMPDEST PUSH2 0x1BD DUP2 PUSH2 0x1A3 JUMP JUMPDEST DUP3 MSTORE POP POP JUMP JUMPDEST PUSH0 DUP2 SWAP1 POP SWAP2 SWAP1 POP JUMP JUMPDEST PUSH2 0x1D5 DUP2 PUSH2 0x1C3 JUMP JUMPDEST DUP3 MSTORE POP POP JUMP JUMPDEST PUSH0 DUP3 DUP3 MSTORE PUSH1 0x20 DUP3 ADD SWAP1 POP SWAP3 SWAP2 POP POP JUMP JUMPDEST POP JUMP JUMPDEST PUSH0 PUSH2 0x1F9 PUSH0 DUP4 PUSH2 0x1DB JUMP JUMPDEST SWAP2 POP PUSH2 0x204 DUP3 PUSH2 0x1EB JUMP JUMPDEST PUSH0 DUP3 ADD SWAP1 POP SWAP2 SWAP1 POP JUMP JUMPDEST PUSH0 PUSH1 0x80 DUP3 ADD SWAP1 POP DUP2 DUP2 SUB PUSH0 DUP4 ADD MSTORE PUSH2 0x225 DUP2 PUSH2 0x162 JUMP JUMPDEST SWAP1 POP PUSH2 0x234 PUSH1 0x20 DUP4 ADD DUP6 PUSH2 0x1B4 JUMP JUMPDEST PUSH2 0x241 PUSH1 0x40 DUP4 ADD DUP5 PUSH2 0x1CC JUMP JUMPDEST DUP2 DUP2 SUB PUSH1 0x60 DUP4 ADD MSTORE PUSH2 0x252 DUP2 PUSH2 0x1EE JUMP JUMPDEST SWAP1 POP SWAP4 SWAP3 POP POP POP JUMP JUMPDEST PUSH32 0x66616C6C6261636B000000000000000000000000000000000000000000000000 PUSH0 DUP3 ADD MSTORE POP JUMP JUMPDEST PUSH0 PUSH2 0x28F PUSH1 0x8 DUP4 PUSH2 0x12A JUMP JUMPDEST SWAP2 POP PUSH2 0x29A DUP3 PUSH2 0x25B JUMP JUMPDEST PUSH1 0x20 DUP3 ADD SWAP1 POP SWAP2 SWAP1 POP JUMP JUMPDEST DUP3 DUP2 DUP4 CALLDATACOPY PUSH0 DUP4 DUP4 ADD MSTORE POP POP POP JUMP JUMPDEST PUSH0 PUSH1 0x1F NOT PUSH1 0x1F DUP4 ADD AND SWAP1 POP SWAP2 SWAP1 POP JUMP JUMPDEST PUSH0 PUSH2 0x2CE DUP4 DUP6 PUSH2 0x1DB JUMP JUMPDEST SWAP4 POP PUSH2 0x2DB DUP4 DUP6 DUP5 PUSH2 0x2A5 JUMP JUMPDEST PUSH2 0x2E4 DUP4 PUSH2 0x2B3 JUMP JUMPDEST DUP5 ADD SWAP1 POP SWAP4 SWAP3 POP POP POP JUMP JUMPDEST PUSH0 PUSH1 0x80 DUP3 ADD SWAP1 POP DUP2 DUP2 SUB PUSH0 DUP4 ADD MSTORE PUSH2 0x306 DUP2 PUSH2 0x283 JUMP JUMPDEST SWAP1 POP PUSH2 0x315 PUSH1 0x20 DUP4 ADD DUP8 PUSH2 0x1B4 JUMP JUMPDEST PUSH2 0x322 PUSH1 0x40 DUP4 ADD DUP7 PUSH2 0x1CC JUMP JUMPDEST DUP2 DUP2 SUB PUSH1 0x60 DUP4 ADD MSTORE PUSH2 0x335 DUP2 DUP5 DUP7 PUSH2 0x2C3 JUMP JUMPDEST SWAP1 POP SWAP6 SWAP5 POP POP POP POP POP JUMP JUMPDEST PUSH0 PUSH1 0x20 DUP3 ADD SWAP1 POP PUSH2 0x353 PUSH0 DUP4 ADD DUP5 PUSH2 0x1CC JUMP JUMPDEST SWAP3 SWAP2 POP POP JUMP JUMPDEST PUSH0 PUSH1 0x20 DUP3 ADD SWAP1 POP PUSH2 0x36C PUSH0 DUP4 ADD DUP5 PUSH2 0x1B4 JUMP JUMPDEST SWAP3 SWAP2 POP POP JUMP INVALID LOG2 PUSH5 0x6970667358 0x22 SLT KECCAK256 0xC9 PUSH17 0x7E562B7CCB7690E651E4472F11C84DB406 0xD4 0xEA PUSH3 0x467ABF SWAP12 0xBF INVALID PREVRANDAO LOG4 MSIZE 0xC2 PUSH5 0x736F6C6343 STOP ADDMOD BYTE STOP CALLER "
				},
				"gasEstimates": {
					"creation": {
						"codeDepositCost": "187200",
						"executionCost": "infinite",
						"totalCost": "infinite"
					},
					"external": {
						"": "infinite",
						"getBalance()": "312",
						"leader()": "infinite"
					},
					"internal": {
						"review2(string calldata,string calldata)": "infinite"
					}
				},
				"methodIdentifiers": {
					"getBalance()": "12065fe0",
					"leader()": "40eedabb"
				}
			},
			"storageLayout": {
				"storage": [],
				"types": null
			},
			"userdoc": {
				"kind": "user",
				"methods": {},
				"version": 1
			}
		}
	}
}