{
	"contracts/HelloComrades.sol": {
		"HelloComrades": {
			"abi": [
				{
					"inputs": [
						{
							"internalType": "address",
							"name": "leader_",
							"type": "address"
						}
					],
					"stateMutability": "nonpayable",
					"type": "constructor"
				},
				{
					"inputs": [
						{
							"internalType": "string",
							"name": "msg",
							"type": "string"
						}
					],
					"name": "MyError",
					"type": "error"
				},
				{
					"anonymous": false,
					"inputs": [
						{
							"indexed": false,
							"internalType": "string",
							"name": "tag",
							"type": "string"
						},
						{
							"indexed": false,
							"internalType": "address",
							"name": "from",
							"type": "address"
						},
						{
							"indexed": false,
							"internalType": "uint256",
							"name": "amount",
							"type": "uint256"
						},
						{
							"indexed": false,
							"internalType": "bytes",
							"name": "data",
							"type": "bytes"
						}
					],
					"name": "Log",
					"type": "event"
				},
				{
					"anonymous": false,
					"inputs": [
						{
							"indexed": false,
							"internalType": "uint8",
							"name": "",
							"type": "uint8"
						}
					],
					"name": "Step",
					"type": "event"
				},
				{
					"stateMutability": "payable",
					"type": "fallback"
				},
				{
					"inputs": [
						{
							"internalType": "string",
							"name": "content",
							"type": "string"
						}
					],
					"name": "comfort",
					"outputs": [
						{
							"internalType": "bool",
							"name": "",
							"type": "bool"
						}
					],
					"stateMutability": "payable",
					"type": "function"
				},
				{
					"inputs": [
						{
							"internalType": "string",
							"name": "content",
							"type": "string"
						}
					],
					"name": "comfortRes",
					"outputs": [
						{
							"internalType": "bool",
							"name": "",
							"type": "bool"
						}
					],
					"stateMutability": "nonpayable",
					"type": "function"
				},
				{
					"inputs": [],
					"name": "destruct",
					"outputs": [
						{
							"internalType": "bool",
							"name": "",
							"type": "bool"
						}
					],
					"stateMutability": "payable",
					"type": "function"
				},
				{
					"inputs": [],
					"name": "getBalance",
					"outputs": [
						{
							"internalType": "uint256",
							"name": "",
							"type": "uint256"
						}
					],
					"stateMutability": "view",
					"type": "function"
				},
				{
					"inputs": [
						{
							"internalType": "string",
							"name": "content",
							"type": "string"
						}
					],
					"name": "hello",
					"outputs": [
						{
							"internalType": "bool",
							"name": "",
							"type": "bool"
						}
					],
					"stateMutability": "nonpayable",
					"type": "function"
				},
				{
					"inputs": [
						{
							"internalType": "string",
							"name": "content",
							"type": "string"
						}
					],
					"name": "helloRes",
					"outputs": [
						{
							"internalType": "bool",
							"name": "",
							"type": "bool"
						}
					],
					"stateMutability": "nonpayable",
					"type": "function"
				},
				{
					"inputs": [],
					"name": "leader",
					"outputs": [
						{
							"internalType": "address",
							"name": "",
							"type": "address"
						}
					],
					"stateMutability": "view",
					"type": "function"
				},
				{
					"inputs": [],
					"name": "step",
					"outputs": [
						{
							"internalType": "uint8",
							"name": "",
							"type": "uint8"
						}
					],
					"stateMutability": "view",
					"type": "function"
				},
				{
					"stateMutability": "payable",
					"type": "receive"
				}
			],
			"devdoc": {
				"kind": "dev",
				"methods": {
					"comfort(string)": {
						"details": "只能在step为2的时候调用，只能领导调用，并且只能说“同志们辛苦了”",
						"params": {
							"content": "：当前同志们说的内容"
						},
						"returns": {
							"_0": "当前的调用状态，true为成功"
						}
					},
					"comfortRes(string)": {
						"details": "只能在step为3的时候调用，只能同志们调用，并且只能说“为人民服务”",
						"params": {
							"content": "：当前同志们说的内容"
						},
						"returns": {
							"_0": "当前的调用状态，true为成功"
						}
					},
					"destruct()": {
						"details": "只能在step为4的时候调用，只能领导调用",
						"returns": {
							"_0": "当前的调用状态，true为成功"
						}
					},
					"hello(string)": {
						"details": "只能在step为0的时候调用",
						"params": {
							"content": "：当前领导说的内容 return 当前的调用状态，true为成功"
						}
					},
					"helloRes(string)": {
						"details": "只能在step为1的时候调用，只能同志们调用，并且只能说“领导好”",
						"params": {
							"content": "：当前同志们说的内容"
						},
						"returns": {
							"_0": "当前的调用状态，true为成功"
						}
					}
				},
				"version": 1
			},
			"evm": {
				"assembly": "    /* \"contracts/HelloComrades.sol\":65:5278  contract HelloComrades {... */\n  mstore(0x40, 0xa0)\n    /* \"contracts/HelloComrades.sol\":435:436  0 */\n  0x00\n    /* \"contracts/HelloComrades.sol\":415:436  uint8 public step = 0 */\n  dup1\n  exp(0x0100, 0x00)\n  dup2\n  sload\n  dup2\n  0xff\n  mul\n  not\n  and\n  swap1\n  dup4\n  0xff\n  and\n  mul\n  or\n  swap1\n  sstore\n  pop\n    /* \"contracts/HelloComrades.sol\":860:982  constructor(address leader_) {... */\n  callvalue\n  dup1\n  iszero\n  tag_1\n  jumpi\n  0x00\n  dup1\n  revert\ntag_1:\n  pop\n  mload(0x40)\n  sub(codesize, bytecodeSize)\n  dup1\n  bytecodeSize\n  dup4\n  codecopy\n  dup2\n  dup2\n  add\n  0x40\n  mstore\n  dup2\n  add\n  swap1\n  tag_2\n  swap2\n  swap1\n  tag_3\n  jump\t// in\ntag_2:\n    /* \"contracts/HelloComrades.sol\":926:927  0 */\n  0x00\n    /* \"contracts/HelloComrades.sol\":907:928  leader_ != address(0) */\n  0xffffffffffffffffffffffffffffffffffffffff\n  and\n    /* \"contracts/HelloComrades.sol\":907:914  leader_ */\n  dup2\n    /* \"contracts/HelloComrades.sol\":907:928  leader_ != address(0) */\n  0xffffffffffffffffffffffffffffffffffffffff\n  and\n  sub\n    /* \"contracts/HelloComrades.sol\":899:949  require(leader_ != address(0), \"invalid address!\") */\n  tag_6\n  jumpi\n  mload(0x40)\n  0x08c379a000000000000000000000000000000000000000000000000000000000\n  dup2\n  mstore\n  0x04\n  add\n  tag_7\n  swap1\n  tag_8\n  jump\t// in\ntag_7:\n  mload(0x40)\n  dup1\n  swap2\n  sub\n  swap1\n  revert\ntag_6:\n    /* \"contracts/HelloComrades.sol\":968:975  leader_ */\n  dup1\n    /* \"contracts/HelloComrades.sol\":959:975  leader = leader_ */\n  0xffffffffffffffffffffffffffffffffffffffff\n  and\n  0x80\n  dup2\n  0xffffffffffffffffffffffffffffffffffffffff\n  and\n  dup2\n  mstore\n  pop\n  pop\n    /* \"contracts/HelloComrades.sol\":860:982  constructor(address leader_) {... */\n  pop\n    /* \"contracts/HelloComrades.sol\":65:5278  contract HelloComrades {... */\n  jump(tag_9)\n    /* \"#utility.yul\":88:205   */\ntag_11:\n    /* \"#utility.yul\":197:198   */\n  0x00\n    /* \"#utility.yul\":194:195   */\n  dup1\n    /* \"#utility.yul\":187:199   */\n  revert\n    /* \"#utility.yul\":334:460   */\ntag_13:\n    /* \"#utility.yul\":371:378   */\n  0x00\n    /* \"#utility.yul\":411:453   */\n  0xffffffffffffffffffffffffffffffffffffffff\n    /* \"#utility.yul\":404:409   */\n  dup3\n    /* \"#utility.yul\":400:454   */\n  and\n    /* \"#utility.yul\":389:454   */\n  swap1\n  pop\n    /* \"#utility.yul\":334:460   */\n  swap2\n  swap1\n  pop\n  jump\t// out\n    /* \"#utility.yul\":466:562   */\ntag_14:\n    /* \"#utility.yul\":503:510   */\n  0x00\n    /* \"#utility.yul\":532:556   */\n  tag_26\n    /* \"#utility.yul\":550:555   */\n  dup3\n    /* \"#utility.yul\":532:556   */\n  tag_13\n  jump\t// in\ntag_26:\n    /* \"#utility.yul\":521:556   */\n  swap1\n  pop\n    /* \"#utility.yul\":466:562   */\n  swap2\n  swap1\n  pop\n  jump\t// out\n    /* \"#utility.yul\":568:690   */\ntag_15:\n    /* \"#utility.yul\":641:665   */\n  tag_28\n    /* \"#utility.yul\":659:664   */\n  dup2\n    /* \"#utility.yul\":641:665   */\n  tag_14\n  jump\t// in\ntag_28:\n    /* \"#utility.yul\":634:639   */\n  dup2\n    /* \"#utility.yul\":631:666   */\n  eq\n    /* \"#utility.yul\":621:684   */\n  tag_29\n  jumpi\n    /* \"#utility.yul\":680:681   */\n  0x00\n    /* \"#utility.yul\":677:678   */\n  dup1\n    /* \"#utility.yul\":670:682   */\n  revert\n    /* \"#utility.yul\":621:684   */\ntag_29:\n    /* \"#utility.yul\":568:690   */\n  pop\n  jump\t// out\n    /* \"#utility.yul\":696:839   */\ntag_16:\n    /* \"#utility.yul\":753:758   */\n  0x00\n    /* \"#utility.yul\":784:790   */\n  dup2\n    /* \"#utility.yul\":778:791   */\n  mload\n    /* \"#utility.yul\":769:791   */\n  swap1\n  pop\n    /* \"#utility.yul\":800:833   */\n  tag_31\n    /* \"#utility.yul\":827:832   */\n  dup2\n    /* \"#utility.yul\":800:833   */\n  tag_15\n  jump\t// in\ntag_31:\n    /* \"#utility.yul\":696:839   */\n  swap3\n  swap2\n  pop\n  pop\n  jump\t// out\n    /* \"#utility.yul\":845:1196   */\ntag_3:\n    /* \"#utility.yul\":915:921   */\n  0x00\n    /* \"#utility.yul\":964:966   */\n  0x20\n    /* \"#utility.yul\":952:961   */\n  dup3\n    /* \"#utility.yul\":943:950   */\n  dup5\n    /* \"#utility.yul\":939:962   */\n  sub\n    /* \"#utility.yul\":935:967   */\n  slt\n    /* \"#utility.yul\":932:1051   */\n  iszero\n  tag_33\n  jumpi\n    /* \"#utility.yul\":970:1049   */\n  tag_34\n  tag_11\n  jump\t// in\ntag_34:\n    /* \"#utility.yul\":932:1051   */\ntag_33:\n    /* \"#utility.yul\":1090:1091   */\n  0x00\n    /* \"#utility.yul\":1115:1179   */\n  tag_35\n    /* \"#utility.yul\":1171:1178   */\n  dup5\n    /* \"#utility.yul\":1162:1168   */\n  dup3\n    /* \"#utility.yul\":1151:1160   */\n  dup6\n    /* \"#utility.yul\":1147:1169   */\n  add\n    /* \"#utility.yul\":1115:1179   */\n  tag_16\n  jump\t// in\ntag_35:\n    /* \"#utility.yul\":1105:1179   */\n  swap2\n  pop\n    /* \"#utility.yul\":1061:1189   */\n  pop\n    /* \"#utility.yul\":845:1196   */\n  swap3\n  swap2\n  pop\n  pop\n  jump\t// out\n    /* \"#utility.yul\":1202:1371   */\ntag_17:\n    /* \"#utility.yul\":1286:1297   */\n  0x00\n    /* \"#utility.yul\":1320:1326   */\n  dup3\n    /* \"#utility.yul\":1315:1318   */\n  dup3\n    /* \"#utility.yul\":1308:1327   */\n  mstore\n    /* \"#utility.yul\":1360:1364   */\n  0x20\n    /* \"#utility.yul\":1355:1358   */\n  dup3\n    /* \"#utility.yul\":1351:1365   */\n  add\n    /* \"#utility.yul\":1336:1365   */\n  swap1\n  pop\n    /* \"#utility.yul\":1202:1371   */\n  swap3\n  swap2\n  pop\n  pop\n  jump\t// out\n    /* \"#utility.yul\":1377:1543   */\ntag_18:\n    /* \"#utility.yul\":1517:1535   */\n  0x696e76616c696420616464726573732100000000000000000000000000000000\n    /* \"#utility.yul\":1513:1514   */\n  0x00\n    /* \"#utility.yul\":1505:1511   */\n  dup3\n    /* \"#utility.yul\":1501:1515   */\n  add\n    /* \"#utility.yul\":1494:1536   */\n  mstore\n    /* \"#utility.yul\":1377:1543   */\n  pop\n  jump\t// out\n    /* \"#utility.yul\":1549:1915   */\ntag_19:\n    /* \"#utility.yul\":1691:1694   */\n  0x00\n    /* \"#utility.yul\":1712:1779   */\n  tag_39\n    /* \"#utility.yul\":1776:1778   */\n  0x10\n    /* \"#utility.yul\":1771:1774   */\n  dup4\n    /* \"#utility.yul\":1712:1779   */\n  tag_17\n  jump\t// in\ntag_39:\n    /* \"#utility.yul\":1705:1779   */\n  swap2\n  pop\n    /* \"#utility.yul\":1788:1881   */\n  tag_40\n    /* \"#utility.yul\":1877:1880   */\n  dup3\n    /* \"#utility.yul\":1788:1881   */\n  tag_18\n  jump\t// in\ntag_40:\n    /* \"#utility.yul\":1906:1908   */\n  0x20\n    /* \"#utility.yul\":1901:1904   */\n  dup3\n    /* \"#utility.yul\":1897:1909   */\n  add\n    /* \"#utility.yul\":1890:1909   */\n  swap1\n  pop\n    /* \"#utility.yul\":1549:1915   */\n  swap2\n  swap1\n  pop\n  jump\t// out\n    /* \"#utility.yul\":1921:2340   */\ntag_8:\n    /* \"#utility.yul\":2087:2091   */\n  0x00\n    /* \"#utility.yul\":2125:2127   */\n  0x20\n    /* \"#utility.yul\":2114:2123   */\n  dup3\n    /* \"#utility.yul\":2110:2128   */\n  add\n    /* \"#utility.yul\":2102:2128   */\n  swap1\n  pop\n    /* \"#utility.yul\":2174:2183   */\n  dup2\n    /* \"#utility.yul\":2168:2172   */\n  dup2\n    /* \"#utility.yul\":2164:2184   */\n  sub\n    /* \"#utility.yul\":2160:2161   */\n  0x00\n    /* \"#utility.yul\":2149:2158   */\n  dup4\n    /* \"#utility.yul\":2145:2162   */\n  add\n    /* \"#utility.yul\":2138:2185   */\n  mstore\n    /* \"#utility.yul\":2202:2333   */\n  tag_42\n    /* \"#utility.yul\":2328:2332   */\n  dup2\n    /* \"#utility.yul\":2202:2333   */\n  tag_19\n  jump\t// in\ntag_42:\n    /* \"#utility.yul\":2194:2333   */\n  swap1\n  pop\n    /* \"#utility.yul\":1921:2340   */\n  swap2\n  swap1\n  pop\n  jump\t// out\n    /* \"contracts/HelloComrades.sol\":65:5278  contract HelloComrades {... */\ntag_9:\n  mload(0x80)\n  codecopy(0x00, dataOffset(sub_0), dataSize(sub_0))\n  0x00\n  assignImmutable(\"0xe455bf8ea6e7463a1046a0b52804526e119b4bf5136279614e0b1e8e296a4e2d\")\n  return(0x00, dataSize(sub_0))\nstop\n\nsub_0: assembly {\n        /* \"contracts/HelloComrades.sol\":65:5278  contract HelloComrades {... */\n      mstore(0x40, 0x80)\n      jumpi(tag_1, lt(calldatasize, 0x04))\n      shr(0xe0, calldataload(0x00))\n      dup1\n      0x8c85d679\n      gt\n      tag_11\n      jumpi\n      dup1\n      0x8c85d679\n      eq\n      tag_7\n      jumpi\n      dup1\n      0xa777d0dc\n      eq\n      tag_8\n      jumpi\n      dup1\n      0xe25fe175\n      eq\n      tag_9\n      jumpi\n      dup1\n      0xe3b49959\n      eq\n      tag_10\n      jumpi\n      jump(tag_2)\n    tag_11:\n      dup1\n      0x12065fe0\n      eq\n      tag_3\n      jumpi\n      dup1\n      0x2b68b9c6\n      eq\n      tag_4\n      jumpi\n      dup1\n      0x40eedabb\n      eq\n      tag_5\n      jumpi\n      dup1\n      0x8ab9e66d\n      eq\n      tag_6\n      jumpi\n      jump(tag_2)\n    tag_1:\n      jumpi(tag_2, calldatasize)\n        /* \"contracts/HelloComrades.sol\":5019:5060  Log(\"receive\", msg.sender, msg.value, \"\") */\n      0xf7f75251dee7d7fc22deac3247729ebe7c86541f35930bf10c2a4207479a3b6c\n        /* \"contracts/HelloComrades.sol\":5034:5044  msg.sender */\n      caller\n        /* \"contracts/HelloComrades.sol\":5046:5055  msg.value */\n      callvalue\n        /* \"contracts/HelloComrades.sol\":5019:5060  Log(\"receive\", msg.sender, msg.value, \"\") */\n      mload(0x40)\n      tag_14\n      swap3\n      swap2\n      swap1\n      tag_15\n      jump\t// in\n    tag_14:\n      mload(0x40)\n      dup1\n      swap2\n      sub\n      swap1\n      log1\n        /* \"contracts/HelloComrades.sol\":65:5278  contract HelloComrades {... */\n      stop\n    tag_2:\n        /* \"contracts/HelloComrades.sol\":5116:5164  Log(\"fallback\", msg.sender, msg.value, msg.data) */\n      0xf7f75251dee7d7fc22deac3247729ebe7c86541f35930bf10c2a4207479a3b6c\n        /* \"contracts/HelloComrades.sol\":5132:5142  msg.sender */\n      caller\n        /* \"contracts/HelloComrades.sol\":5144:5153  msg.value */\n      callvalue\n        /* \"contracts/HelloComrades.sol\":5155:5163  msg.data */\n      0x00\n      calldatasize\n        /* \"contracts/HelloComrades.sol\":5116:5164  Log(\"fallback\", msg.sender, msg.value, msg.data) */\n      mload(0x40)\n      tag_18\n      swap5\n      swap4\n      swap3\n      swap2\n      swap1\n      tag_19\n      jump\t// in\n    tag_18:\n      mload(0x40)\n      dup1\n      swap2\n      sub\n      swap1\n      log1\n        /* \"contracts/HelloComrades.sol\":65:5278  contract HelloComrades {... */\n      stop\n        /* \"contracts/HelloComrades.sol\":5177:5276  function getBalance() external view returns (uint256) {... */\n    tag_3:\n      callvalue\n      dup1\n      iszero\n      tag_20\n      jumpi\n      0x00\n      dup1\n      revert\n    tag_20:\n      pop\n      tag_21\n      tag_22\n      jump\t// in\n    tag_21:\n      mload(0x40)\n      tag_23\n      swap2\n      swap1\n      tag_24\n      jump\t// in\n    tag_23:\n      mload(0x40)\n      dup1\n      swap2\n      sub\n      swap1\n      return\n        /* \"contracts/HelloComrades.sol\":4289:4598  function destruct()... */\n    tag_4:\n      tag_25\n      tag_26\n      jump\t// in\n    tag_25:\n      mload(0x40)\n      tag_27\n      swap2\n      swap1\n      tag_28\n      jump\t// in\n    tag_27:\n      mload(0x40)\n      dup1\n      swap2\n      sub\n      swap1\n      return\n        /* \"contracts/HelloComrades.sol\":442:473  address public immutable leader */\n    tag_5:\n      callvalue\n      dup1\n      iszero\n      tag_29\n      jumpi\n      0x00\n      dup1\n      revert\n    tag_29:\n      pop\n      tag_30\n      tag_31\n      jump\t// in\n    tag_30:\n      mload(0x40)\n      tag_32\n      swap2\n      swap1\n      tag_33\n      jump\t// in\n    tag_32:\n      mload(0x40)\n      dup1\n      swap2\n      sub\n      swap1\n      return\n        /* \"contracts/HelloComrades.sol\":3733:4115  function comfortRes(string calldata content)... */\n    tag_6:\n      callvalue\n      dup1\n      iszero\n      tag_34\n      jumpi\n      0x00\n      dup1\n      revert\n    tag_34:\n      pop\n      tag_35\n      0x04\n      dup1\n      calldatasize\n      sub\n      dup2\n      add\n      swap1\n      tag_36\n      swap2\n      swap1\n      tag_37\n      jump\t// in\n    tag_36:\n      tag_38\n      jump\t// in\n    tag_35:\n      mload(0x40)\n      tag_39\n      swap2\n      swap1\n      tag_28\n      jump\t// in\n    tag_39:\n      mload(0x40)\n      dup1\n      swap2\n      sub\n      swap1\n      return\n        /* \"contracts/HelloComrades.sol\":2877:3459  function comfort(string calldata content)... */\n    tag_7:\n      tag_40\n      0x04\n      dup1\n      calldatasize\n      sub\n      dup2\n      add\n      swap1\n      tag_41\n      swap2\n      swap1\n      tag_37\n      jump\t// in\n    tag_41:\n      tag_42\n      jump\t// in\n    tag_40:\n      mload(0x40)\n      tag_43\n      swap2\n      swap1\n      tag_28\n      jump\t// in\n    tag_43:\n      mload(0x40)\n      dup1\n      swap2\n      sub\n      swap1\n      return\n        /* \"contracts/HelloComrades.sol\":1628:1969  function hello(string calldata content) external onlyLeader returns (bool) {... */\n    tag_8:\n      callvalue\n      dup1\n      iszero\n      tag_44\n      jumpi\n      0x00\n      dup1\n      revert\n    tag_44:\n      pop\n      tag_45\n      0x04\n      dup1\n      calldatasize\n      sub\n      dup2\n      add\n      swap1\n      tag_46\n      swap2\n      swap1\n      tag_37\n      jump\t// in\n    tag_46:\n      tag_47\n      jump\t// in\n    tag_45:\n      mload(0x40)\n      tag_48\n      swap2\n      swap1\n      tag_28\n      jump\t// in\n    tag_48:\n      mload(0x40)\n      dup1\n      swap2\n      sub\n      swap1\n      return\n        /* \"contracts/HelloComrades.sol\":415:436  uint8 public step = 0 */\n    tag_9:\n      callvalue\n      dup1\n      iszero\n      tag_49\n      jumpi\n      0x00\n      dup1\n      revert\n    tag_49:\n      pop\n      tag_50\n      tag_51\n      jump\t// in\n    tag_50:\n      mload(0x40)\n      tag_52\n      swap2\n      swap1\n      tag_53\n      jump\t// in\n    tag_52:\n      mload(0x40)\n      dup1\n      swap2\n      sub\n      swap1\n      return\n        /* \"contracts/HelloComrades.sol\":2231:2599  function helloRes(string calldata content)... */\n    tag_10:\n      callvalue\n      dup1\n      iszero\n      tag_54\n      jumpi\n      0x00\n      dup1\n      revert\n    tag_54:\n      pop\n      tag_55\n      0x04\n      dup1\n      calldatasize\n      sub\n      dup2\n      add\n      swap1\n      tag_56\n      swap2\n      swap1\n      tag_37\n      jump\t// in\n    tag_56:\n      tag_57\n      jump\t// in\n    tag_55:\n      mload(0x40)\n      tag_58\n      swap2\n      swap1\n      tag_28\n      jump\t// in\n    tag_58:\n      mload(0x40)\n      dup1\n      swap2\n      sub\n      swap1\n      return\n        /* \"contracts/HelloComrades.sol\":5177:5276  function getBalance() external view returns (uint256) {... */\n    tag_22:\n        /* \"contracts/HelloComrades.sol\":5222:5229  uint256 */\n      0x00\n        /* \"contracts/HelloComrades.sol\":5248:5269  address(this).balance */\n      selfbalance\n        /* \"contracts/HelloComrades.sol\":5241:5269  return address(this).balance */\n      swap1\n      pop\n        /* \"contracts/HelloComrades.sol\":5177:5276  function getBalance() external view returns (uint256) {... */\n      swap1\n      jump\t// out\n        /* \"contracts/HelloComrades.sol\":4289:4598  function destruct()... */\n    tag_26:\n        /* \"contracts/HelloComrades.sol\":4378:4382  bool */\n      0x00\n        /* \"contracts/HelloComrades.sol\":1139:1145  leader */\n      immutable(\"0xe455bf8ea6e7463a1046a0b52804526e119b4bf5136279614e0b1e8e296a4e2d\")\n        /* \"contracts/HelloComrades.sol\":1125:1145  msg.sender == leader */\n      0xffffffffffffffffffffffffffffffffffffffff\n      and\n        /* \"contracts/HelloComrades.sol\":1125:1135  msg.sender */\n      caller\n        /* \"contracts/HelloComrades.sol\":1125:1145  msg.sender == leader */\n      0xffffffffffffffffffffffffffffffffffffffff\n      and\n      eq\n        /* \"contracts/HelloComrades.sol\":1117:1178  require(msg.sender == leader, unicode\"必须领导才能说\") */\n      tag_61\n      jumpi\n      mload(0x40)\n      0x08c379a000000000000000000000000000000000000000000000000000000000\n      dup2\n      mstore\n      0x04\n      add\n      tag_62\n      swap1\n      tag_63\n      jump\t// in\n    tag_62:\n      mload(0x40)\n      dup1\n      swap2\n      sub\n      swap1\n      revert\n    tag_61:\n        /* \"contracts/HelloComrades.sol\":4410:4411  4 */\n      0x04\n        /* \"contracts/HelloComrades.sol\":4402:4406  step */\n      0x00\n      dup1\n      sload\n      swap1\n      0x0100\n      exp\n      swap1\n      div\n      0xff\n      and\n        /* \"contracts/HelloComrades.sol\":4402:4411  step != 4 */\n      0xff\n      and\n      eq\n        /* \"contracts/HelloComrades.sol\":4398:4453  if (step != 4) {... */\n      tag_65\n      jumpi\n        /* \"contracts/HelloComrades.sol\":4434:4441  UNKNOWN */\n      mload(0x40)\n      dup1\n      0x60\n      add\n      0x40\n      mstore\n      dup1\n      0x36\n      dup2\n      mstore\n      0x20\n      add\n      data_e59595aa94ca69af78431ccd6bc64acf773ff99592b71b52f8e1b76c84a22987\n      0x36\n      swap2\n      codecopy\n        /* \"contracts/HelloComrades.sol\":4427:4442  revert(UNKNOWN) */\n      mload(0x40)\n      0x08c379a000000000000000000000000000000000000000000000000000000000\n      dup2\n      mstore\n      0x04\n      add\n      tag_66\n      swap2\n      swap1\n      tag_67\n      jump\t// in\n    tag_66:\n      mload(0x40)\n      dup1\n      swap2\n      sub\n      swap1\n      revert\n        /* \"contracts/HelloComrades.sol\":4398:4453  if (step != 4) {... */\n    tag_65:\n        /* \"contracts/HelloComrades.sol\":4467:4527  Log(\"destruct\", msg.sender, address(this).balance, msg.data) */\n      0xf7f75251dee7d7fc22deac3247729ebe7c86541f35930bf10c2a4207479a3b6c\n        /* \"contracts/HelloComrades.sol\":4483:4493  msg.sender */\n      caller\n        /* \"contracts/HelloComrades.sol\":4495:4516  address(this).balance */\n      selfbalance\n        /* \"contracts/HelloComrades.sol\":4518:4526  msg.data */\n      0x00\n      calldatasize\n        /* \"contracts/HelloComrades.sol\":4467:4527  Log(\"destruct\", msg.sender, address(this).balance, msg.data) */\n      mload(0x40)\n      tag_68\n      swap5\n      swap4\n      swap3\n      swap2\n      swap1\n      tag_69\n      jump\t// in\n    tag_68:\n      mload(0x40)\n      dup1\n      swap2\n      sub\n      swap1\n      log1\n        /* \"contracts/HelloComrades.sol\":4558:4568  msg.sender */\n      caller\n        /* \"contracts/HelloComrades.sol\":4537:4570  selfdestruct(payable(msg.sender)) */\n      0xffffffffffffffffffffffffffffffffffffffff\n      and\n      selfdestruct\n        /* \"contracts/HelloComrades.sol\":442:473  address public immutable leader */\n    tag_31:\n      immutable(\"0xe455bf8ea6e7463a1046a0b52804526e119b4bf5136279614e0b1e8e296a4e2d\")\n      dup2\n      jump\t// out\n        /* \"contracts/HelloComrades.sol\":3733:4115  function comfortRes(string calldata content)... */\n    tag_38:\n        /* \"contracts/HelloComrades.sol\":3836:3840  bool */\n      0x00\n        /* \"contracts/HelloComrades.sol\":1260:1266  leader */\n      immutable(\"0xe455bf8ea6e7463a1046a0b52804526e119b4bf5136279614e0b1e8e296a4e2d\")\n        /* \"contracts/HelloComrades.sol\":1246:1266  msg.sender != leader */\n      0xffffffffffffffffffffffffffffffffffffffff\n      and\n        /* \"contracts/HelloComrades.sol\":1246:1256  msg.sender */\n      caller\n        /* \"contracts/HelloComrades.sol\":1246:1266  msg.sender != leader */\n      0xffffffffffffffffffffffffffffffffffffffff\n      and\n      sub\n        /* \"contracts/HelloComrades.sol\":1238:1299  require(msg.sender != leader, unicode\"必须下属才能说\") */\n      tag_71\n      jumpi\n      mload(0x40)\n      0x08c379a000000000000000000000000000000000000000000000000000000000\n      dup2\n      mstore\n      0x04\n      add\n      tag_72\n      swap1\n      tag_73\n      jump\t// in\n    tag_72:\n      mload(0x40)\n      dup1\n      swap2\n      sub\n      swap1\n      revert\n    tag_71:\n        /* \"contracts/HelloComrades.sol\":3868:3869  3 */\n      0x03\n        /* \"contracts/HelloComrades.sol\":3860:3864  step */\n      0x00\n      dup1\n      sload\n      swap1\n      0x0100\n      exp\n      swap1\n      div\n      0xff\n      and\n        /* \"contracts/HelloComrades.sol\":3860:3869  step != 3 */\n      0xff\n      and\n      eq\n        /* \"contracts/HelloComrades.sol\":3856:3911  if (step != 3) {... */\n      tag_75\n      jumpi\n        /* \"contracts/HelloComrades.sol\":3892:3899  UNKNOWN */\n      mload(0x40)\n      dup1\n      0x60\n      add\n      0x40\n      mstore\n      dup1\n      0x36\n      dup2\n      mstore\n      0x20\n      add\n      data_e59595aa94ca69af78431ccd6bc64acf773ff99592b71b52f8e1b76c84a22987\n      0x36\n      swap2\n      codecopy\n        /* \"contracts/HelloComrades.sol\":3885:3900  revert(UNKNOWN) */\n      mload(0x40)\n      0x08c379a000000000000000000000000000000000000000000000000000000000\n      dup2\n      mstore\n      0x04\n      add\n      tag_76\n      swap2\n      swap1\n      tag_67\n      jump\t// in\n    tag_76:\n      mload(0x40)\n      dup1\n      swap2\n      sub\n      swap1\n      revert\n        /* \"contracts/HelloComrades.sol\":3856:3911  if (step != 3) {... */\n    tag_75:\n        /* \"contracts/HelloComrades.sol\":3925:3966  review(content, unicode\"为人民服务\") */\n      tag_77\n        /* \"contracts/HelloComrades.sol\":3932:3939  content */\n      dup4\n      dup4\n        /* \"contracts/HelloComrades.sol\":3925:3966  review(content, unicode\"为人民服务\") */\n      mload(0x40)\n      dup1\n      0x40\n      add\n      0x40\n      mstore\n      dup1\n      0x0f\n      dup2\n      mstore\n      0x20\n      add\n      0xe4b8bae4babae6b091e69c8de58aa10000000000000000000000000000000000\n      dup2\n      mstore\n      pop\n        /* \"contracts/HelloComrades.sol\":3925:3931  review */\n      tag_78\n        /* \"contracts/HelloComrades.sol\":3925:3966  review(content, unicode\"为人民服务\") */\n      jump\t// in\n    tag_77:\n        /* \"contracts/HelloComrades.sol\":3920:4045  if (!review(content, unicode\"为人民服务\")) {... */\n      tag_79\n      jumpi\n        /* \"contracts/HelloComrades.sol\":3989:4034  MyError(unicode\"必须说：为人民服务\") */\n      mload(0x40)\n      0x8b3d2d4300000000000000000000000000000000000000000000000000000000\n      dup2\n      mstore\n      0x04\n      add\n      tag_80\n      swap1\n      tag_81\n      jump\t// in\n    tag_80:\n      mload(0x40)\n      dup1\n      swap2\n      sub\n      swap1\n      revert\n        /* \"contracts/HelloComrades.sol\":3920:4045  if (!review(content, unicode\"为人民服务\")) {... */\n    tag_79:\n        /* \"contracts/HelloComrades.sol\":4061:4062  4 */\n      0x04\n        /* \"contracts/HelloComrades.sol\":4054:4058  step */\n      0x00\n      dup1\n        /* \"contracts/HelloComrades.sol\":4054:4062  step = 4 */\n      0x0100\n      exp\n      dup2\n      sload\n      dup2\n      0xff\n      mul\n      not\n      and\n      swap1\n      dup4\n      0xff\n      and\n      mul\n      or\n      swap1\n      sstore\n      pop\n        /* \"contracts/HelloComrades.sol\":4077:4087  Step(step) */\n      0xf39143d48d073ee18f9a08fcabdbd340be0b2a698e3e45fc3b4318251131b4fc\n        /* \"contracts/HelloComrades.sol\":4082:4086  step */\n      0x00\n      dup1\n      sload\n      swap1\n      0x0100\n      exp\n      swap1\n      div\n      0xff\n      and\n        /* \"contracts/HelloComrades.sol\":4077:4087  Step(step) */\n      mload(0x40)\n      tag_82\n      swap2\n      swap1\n      tag_53\n      jump\t// in\n    tag_82:\n      mload(0x40)\n      dup1\n      swap2\n      sub\n      swap1\n      log1\n        /* \"contracts/HelloComrades.sol\":4104:4108  true */\n      0x01\n        /* \"contracts/HelloComrades.sol\":4097:4108  return true */\n      swap1\n      pop\n        /* \"contracts/HelloComrades.sol\":3733:4115  function comfortRes(string calldata content)... */\n      swap3\n      swap2\n      pop\n      pop\n      jump\t// out\n        /* \"contracts/HelloComrades.sol\":2877:3459  function comfort(string calldata content)... */\n    tag_42:\n        /* \"contracts/HelloComrades.sol\":2988:2992  bool */\n      0x00\n        /* \"contracts/HelloComrades.sol\":1139:1145  leader */\n      immutable(\"0xe455bf8ea6e7463a1046a0b52804526e119b4bf5136279614e0b1e8e296a4e2d\")\n        /* \"contracts/HelloComrades.sol\":1125:1145  msg.sender == leader */\n      0xffffffffffffffffffffffffffffffffffffffff\n      and\n        /* \"contracts/HelloComrades.sol\":1125:1135  msg.sender */\n      caller\n        /* \"contracts/HelloComrades.sol\":1125:1145  msg.sender == leader */\n      0xffffffffffffffffffffffffffffffffffffffff\n      and\n      eq\n        /* \"contracts/HelloComrades.sol\":1117:1178  require(msg.sender == leader, unicode\"必须领导才能说\") */\n      tag_84\n      jumpi\n      mload(0x40)\n      0x08c379a000000000000000000000000000000000000000000000000000000000\n      dup2\n      mstore\n      0x04\n      add\n      tag_85\n      swap1\n      tag_63\n      jump\t// in\n    tag_85:\n      mload(0x40)\n      dup1\n      swap2\n      sub\n      swap1\n      revert\n    tag_84:\n        /* \"contracts/HelloComrades.sol\":3020:3021  2 */\n      0x02\n        /* \"contracts/HelloComrades.sol\":3012:3016  step */\n      0x00\n      dup1\n      sload\n      swap1\n      0x0100\n      exp\n      swap1\n      div\n      0xff\n      and\n        /* \"contracts/HelloComrades.sol\":3012:3021  step != 2 */\n      0xff\n      and\n      eq\n        /* \"contracts/HelloComrades.sol\":3008:3063  if (step != 2) {... */\n      tag_87\n      jumpi\n        /* \"contracts/HelloComrades.sol\":3044:3051  UNKNOWN */\n      mload(0x40)\n      dup1\n      0x60\n      add\n      0x40\n      mstore\n      dup1\n      0x36\n      dup2\n      mstore\n      0x20\n      add\n      data_e59595aa94ca69af78431ccd6bc64acf773ff99592b71b52f8e1b76c84a22987\n      0x36\n      swap2\n      codecopy\n        /* \"contracts/HelloComrades.sol\":3037:3052  revert(UNKNOWN) */\n      mload(0x40)\n      0x08c379a000000000000000000000000000000000000000000000000000000000\n      dup2\n      mstore\n      0x04\n      add\n      tag_88\n      swap2\n      swap1\n      tag_67\n      jump\t// in\n    tag_88:\n      mload(0x40)\n      dup1\n      swap2\n      sub\n      swap1\n      revert\n        /* \"contracts/HelloComrades.sol\":3008:3063  if (step != 2) {... */\n    tag_87:\n        /* \"contracts/HelloComrades.sol\":3077:3121  review(content, unicode\"同志们辛苦了\") */\n      tag_89\n        /* \"contracts/HelloComrades.sol\":3084:3091  content */\n      dup4\n      dup4\n        /* \"contracts/HelloComrades.sol\":3077:3121  review(content, unicode\"同志们辛苦了\") */\n      mload(0x40)\n      dup1\n      0x40\n      add\n      0x40\n      mstore\n      dup1\n      0x12\n      dup2\n      mstore\n      0x20\n      add\n      0xe5908ce5bf97e4bbace8be9be88ba6e4ba860000000000000000000000000000\n      dup2\n      mstore\n      pop\n        /* \"contracts/HelloComrades.sol\":3077:3083  review */\n      tag_78\n        /* \"contracts/HelloComrades.sol\":3077:3121  review(content, unicode\"同志们辛苦了\") */\n      jump\t// in\n    tag_89:\n        /* \"contracts/HelloComrades.sol\":3072:3203  if (!review(content, unicode\"同志们辛苦了\")) {... */\n      tag_90\n      jumpi\n        /* \"contracts/HelloComrades.sol\":3144:3192  MyError(unicode\"必须说：同志们辛苦了\") */\n      mload(0x40)\n      0x8b3d2d4300000000000000000000000000000000000000000000000000000000\n      dup2\n      mstore\n      0x04\n      add\n      tag_91\n      swap1\n      tag_92\n      jump\t// in\n    tag_91:\n      mload(0x40)\n      dup1\n      swap2\n      sub\n      swap1\n      revert\n        /* \"contracts/HelloComrades.sol\":3072:3203  if (!review(content, unicode\"同志们辛苦了\")) {... */\n    tag_90:\n        /* \"contracts/HelloComrades.sol\":3228:3235  2 ether */\n      0x1bc16d674ec80000\n        /* \"contracts/HelloComrades.sol\":3216:3225  msg.value */\n      callvalue\n        /* \"contracts/HelloComrades.sol\":3216:3235  msg.value < 2 ether */\n      lt\n        /* \"contracts/HelloComrades.sol\":3212:3327  if (msg.value < 2 ether) {... */\n      iszero\n      tag_93\n      jumpi\n        /* \"contracts/HelloComrades.sol\":3258:3316  MyError(unicode\"给钱！！！最少给2个以太币！\") */\n      mload(0x40)\n      0x8b3d2d4300000000000000000000000000000000000000000000000000000000\n      dup2\n      mstore\n      0x04\n      add\n      tag_94\n      swap1\n      tag_95\n      jump\t// in\n    tag_94:\n      mload(0x40)\n      dup1\n      swap2\n      sub\n      swap1\n      revert\n        /* \"contracts/HelloComrades.sol\":3212:3327  if (msg.value < 2 ether) {... */\n    tag_93:\n        /* \"contracts/HelloComrades.sol\":3343:3344  3 */\n      0x03\n        /* \"contracts/HelloComrades.sol\":3336:3340  step */\n      0x00\n      dup1\n        /* \"contracts/HelloComrades.sol\":3336:3344  step = 3 */\n      0x0100\n      exp\n      dup2\n      sload\n      dup2\n      0xff\n      mul\n      not\n      and\n      swap1\n      dup4\n      0xff\n      and\n      mul\n      or\n      swap1\n      sstore\n      pop\n        /* \"contracts/HelloComrades.sol\":3359:3369  Step(step) */\n      0xf39143d48d073ee18f9a08fcabdbd340be0b2a698e3e45fc3b4318251131b4fc\n        /* \"contracts/HelloComrades.sol\":3364:3368  step */\n      0x00\n      dup1\n      sload\n      swap1\n      0x0100\n      exp\n      swap1\n      div\n      0xff\n      and\n        /* \"contracts/HelloComrades.sol\":3359:3369  Step(step) */\n      mload(0x40)\n      tag_96\n      swap2\n      swap1\n      tag_53\n      jump\t// in\n    tag_96:\n      mload(0x40)\n      dup1\n      swap2\n      sub\n      swap1\n      log1\n        /* \"contracts/HelloComrades.sol\":3384:3431  Log(\"comfort\", msg.sender, msg.value, msg.data) */\n      0xf7f75251dee7d7fc22deac3247729ebe7c86541f35930bf10c2a4207479a3b6c\n        /* \"contracts/HelloComrades.sol\":3399:3409  msg.sender */\n      caller\n        /* \"contracts/HelloComrades.sol\":3411:3420  msg.value */\n      callvalue\n        /* \"contracts/HelloComrades.sol\":3422:3430  msg.data */\n      0x00\n      calldatasize\n        /* \"contracts/HelloComrades.sol\":3384:3431  Log(\"comfort\", msg.sender, msg.value, msg.data) */\n      mload(0x40)\n      tag_97\n      swap5\n      swap4\n      swap3\n      swap2\n      swap1\n      tag_98\n      jump\t// in\n    tag_97:\n      mload(0x40)\n      dup1\n      swap2\n      sub\n      swap1\n      log1\n        /* \"contracts/HelloComrades.sol\":3448:3452  true */\n      0x01\n        /* \"contracts/HelloComrades.sol\":3441:3452  return true */\n      swap1\n      pop\n        /* \"contracts/HelloComrades.sol\":2877:3459  function comfort(string calldata content)... */\n      swap3\n      swap2\n      pop\n      pop\n      jump\t// out\n        /* \"contracts/HelloComrades.sol\":1628:1969  function hello(string calldata content) external onlyLeader returns (bool) {... */\n    tag_47:\n        /* \"contracts/HelloComrades.sol\":1697:1701  bool */\n      0x00\n        /* \"contracts/HelloComrades.sol\":1139:1145  leader */\n      immutable(\"0xe455bf8ea6e7463a1046a0b52804526e119b4bf5136279614e0b1e8e296a4e2d\")\n        /* \"contracts/HelloComrades.sol\":1125:1145  msg.sender == leader */\n      0xffffffffffffffffffffffffffffffffffffffff\n      and\n        /* \"contracts/HelloComrades.sol\":1125:1135  msg.sender */\n      caller\n        /* \"contracts/HelloComrades.sol\":1125:1145  msg.sender == leader */\n      0xffffffffffffffffffffffffffffffffffffffff\n      and\n      eq\n        /* \"contracts/HelloComrades.sol\":1117:1178  require(msg.sender == leader, unicode\"必须领导才能说\") */\n      tag_100\n      jumpi\n      mload(0x40)\n      0x08c379a000000000000000000000000000000000000000000000000000000000\n      dup2\n      mstore\n      0x04\n      add\n      tag_101\n      swap1\n      tag_63\n      jump\t// in\n    tag_101:\n      mload(0x40)\n      dup1\n      swap2\n      sub\n      swap1\n      revert\n    tag_100:\n        /* \"contracts/HelloComrades.sol\":1725:1726  0 */\n      0x00\n        /* \"contracts/HelloComrades.sol\":1717:1721  step */\n      dup1\n      0x00\n      swap1\n      sload\n      swap1\n      0x0100\n      exp\n      swap1\n      div\n      0xff\n      and\n        /* \"contracts/HelloComrades.sol\":1717:1726  step != 0 */\n      0xff\n      and\n      eq\n        /* \"contracts/HelloComrades.sol\":1713:1768  if (step != 0) {... */\n      tag_103\n      jumpi\n        /* \"contracts/HelloComrades.sol\":1749:1756  UNKNOWN */\n      mload(0x40)\n      dup1\n      0x60\n      add\n      0x40\n      mstore\n      dup1\n      0x36\n      dup2\n      mstore\n      0x20\n      add\n      data_e59595aa94ca69af78431ccd6bc64acf773ff99592b71b52f8e1b76c84a22987\n      0x36\n      swap2\n      codecopy\n        /* \"contracts/HelloComrades.sol\":1742:1757  revert(UNKNOWN) */\n      mload(0x40)\n      0x08c379a000000000000000000000000000000000000000000000000000000000\n      dup2\n      mstore\n      0x04\n      add\n      tag_104\n      swap2\n      swap1\n      tag_67\n      jump\t// in\n    tag_104:\n      mload(0x40)\n      dup1\n      swap2\n      sub\n      swap1\n      revert\n        /* \"contracts/HelloComrades.sol\":1713:1768  if (step != 0) {... */\n    tag_103:\n        /* \"contracts/HelloComrades.sol\":1782:1820  review(content, unicode\"同志们好\") */\n      tag_105\n        /* \"contracts/HelloComrades.sol\":1789:1796  content */\n      dup4\n      dup4\n        /* \"contracts/HelloComrades.sol\":1782:1820  review(content, unicode\"同志们好\") */\n      mload(0x40)\n      dup1\n      0x40\n      add\n      0x40\n      mstore\n      dup1\n      0x0c\n      dup2\n      mstore\n      0x20\n      add\n      0xe5908ce5bf97e4bbace5a5bd0000000000000000000000000000000000000000\n      dup2\n      mstore\n      pop\n        /* \"contracts/HelloComrades.sol\":1782:1788  review */\n      tag_78\n        /* \"contracts/HelloComrades.sol\":1782:1820  review(content, unicode\"同志们好\") */\n      jump\t// in\n    tag_105:\n        /* \"contracts/HelloComrades.sol\":1777:1899  if (!review(content, unicode\"同志们好\")) {... */\n      tag_106\n      jumpi\n        /* \"contracts/HelloComrades.sol\":1843:1888  MyError(unicode\"必须说：同志们好！\") */\n      mload(0x40)\n      0x8b3d2d4300000000000000000000000000000000000000000000000000000000\n      dup2\n      mstore\n      0x04\n      add\n      tag_107\n      swap1\n      tag_108\n      jump\t// in\n    tag_107:\n      mload(0x40)\n      dup1\n      swap2\n      sub\n      swap1\n      revert\n        /* \"contracts/HelloComrades.sol\":1777:1899  if (!review(content, unicode\"同志们好\")) {... */\n    tag_106:\n        /* \"contracts/HelloComrades.sol\":1915:1916  1 */\n      0x01\n        /* \"contracts/HelloComrades.sol\":1908:1912  step */\n      0x00\n      dup1\n        /* \"contracts/HelloComrades.sol\":1908:1916  step = 1 */\n      0x0100\n      exp\n      dup2\n      sload\n      dup2\n      0xff\n      mul\n      not\n      and\n      swap1\n      dup4\n      0xff\n      and\n      mul\n      or\n      swap1\n      sstore\n      pop\n        /* \"contracts/HelloComrades.sol\":1931:1941  Step(step) */\n      0xf39143d48d073ee18f9a08fcabdbd340be0b2a698e3e45fc3b4318251131b4fc\n        /* \"contracts/HelloComrades.sol\":1936:1940  step */\n      0x00\n      dup1\n      sload\n      swap1\n      0x0100\n      exp\n      swap1\n      div\n      0xff\n      and\n        /* \"contracts/HelloComrades.sol\":1931:1941  Step(step) */\n      mload(0x40)\n      tag_109\n      swap2\n      swap1\n      tag_53\n      jump\t// in\n    tag_109:\n      mload(0x40)\n      dup1\n      swap2\n      sub\n      swap1\n      log1\n        /* \"contracts/HelloComrades.sol\":1958:1962  true */\n      0x01\n        /* \"contracts/HelloComrades.sol\":1951:1962  return true */\n      swap1\n      pop\n        /* \"contracts/HelloComrades.sol\":1628:1969  function hello(string calldata content) external onlyLeader returns (bool) {... */\n      swap3\n      swap2\n      pop\n      pop\n      jump\t// out\n        /* \"contracts/HelloComrades.sol\":415:436  uint8 public step = 0 */\n    tag_51:\n      0x00\n      dup1\n      sload\n      swap1\n      0x0100\n      exp\n      swap1\n      div\n      0xff\n      and\n      dup2\n      jump\t// out\n        /* \"contracts/HelloComrades.sol\":2231:2599  function helloRes(string calldata content)... */\n    tag_57:\n        /* \"contracts/HelloComrades.sol\":2332:2336  bool */\n      0x00\n        /* \"contracts/HelloComrades.sol\":1260:1266  leader */\n      immutable(\"0xe455bf8ea6e7463a1046a0b52804526e119b4bf5136279614e0b1e8e296a4e2d\")\n        /* \"contracts/HelloComrades.sol\":1246:1266  msg.sender != leader */\n      0xffffffffffffffffffffffffffffffffffffffff\n      and\n        /* \"contracts/HelloComrades.sol\":1246:1256  msg.sender */\n      caller\n        /* \"contracts/HelloComrades.sol\":1246:1266  msg.sender != leader */\n      0xffffffffffffffffffffffffffffffffffffffff\n      and\n      sub\n        /* \"contracts/HelloComrades.sol\":1238:1299  require(msg.sender != leader, unicode\"必须下属才能说\") */\n      tag_111\n      jumpi\n      mload(0x40)\n      0x08c379a000000000000000000000000000000000000000000000000000000000\n      dup2\n      mstore\n      0x04\n      add\n      tag_112\n      swap1\n      tag_73\n      jump\t// in\n    tag_112:\n      mload(0x40)\n      dup1\n      swap2\n      sub\n      swap1\n      revert\n    tag_111:\n        /* \"contracts/HelloComrades.sol\":2364:2365  1 */\n      0x01\n        /* \"contracts/HelloComrades.sol\":2356:2360  step */\n      0x00\n      dup1\n      sload\n      swap1\n      0x0100\n      exp\n      swap1\n      div\n      0xff\n      and\n        /* \"contracts/HelloComrades.sol\":2356:2365  step != 1 */\n      0xff\n      and\n      eq\n        /* \"contracts/HelloComrades.sol\":2352:2407  if (step != 1) {... */\n      tag_114\n      jumpi\n        /* \"contracts/HelloComrades.sol\":2388:2395  UNKNOWN */\n      mload(0x40)\n      dup1\n      0x60\n      add\n      0x40\n      mstore\n      dup1\n      0x36\n      dup2\n      mstore\n      0x20\n      add\n      data_e59595aa94ca69af78431ccd6bc64acf773ff99592b71b52f8e1b76c84a22987\n      0x36\n      swap2\n      codecopy\n        /* \"contracts/HelloComrades.sol\":2381:2396  revert(UNKNOWN) */\n      mload(0x40)\n      0x08c379a000000000000000000000000000000000000000000000000000000000\n      dup2\n      mstore\n      0x04\n      add\n      tag_115\n      swap2\n      swap1\n      tag_67\n      jump\t// in\n    tag_115:\n      mload(0x40)\n      dup1\n      swap2\n      sub\n      swap1\n      revert\n        /* \"contracts/HelloComrades.sol\":2352:2407  if (step != 1) {... */\n    tag_114:\n        /* \"contracts/HelloComrades.sol\":2421:2456  review(content, unicode\"领导好\") */\n      tag_116\n        /* \"contracts/HelloComrades.sol\":2428:2435  content */\n      dup4\n      dup4\n        /* \"contracts/HelloComrades.sol\":2421:2456  review(content, unicode\"领导好\") */\n      mload(0x40)\n      dup1\n      0x40\n      add\n      0x40\n      mstore\n      dup1\n      0x09\n      dup2\n      mstore\n      0x20\n      add\n      0xe9a286e5afbce5a5bd0000000000000000000000000000000000000000000000\n      dup2\n      mstore\n      pop\n        /* \"contracts/HelloComrades.sol\":2421:2427  review */\n      tag_78\n        /* \"contracts/HelloComrades.sol\":2421:2456  review(content, unicode\"领导好\") */\n      jump\t// in\n    tag_116:\n        /* \"contracts/HelloComrades.sol\":2416:2529  if (!review(content, unicode\"领导好\")) {... */\n      tag_117\n      jumpi\n        /* \"contracts/HelloComrades.sol\":2479:2518  MyError(unicode\"必须说：领导好\") */\n      mload(0x40)\n      0x8b3d2d4300000000000000000000000000000000000000000000000000000000\n      dup2\n      mstore\n      0x04\n      add\n      tag_118\n      swap1\n      tag_119\n      jump\t// in\n    tag_118:\n      mload(0x40)\n      dup1\n      swap2\n      sub\n      swap1\n      revert\n        /* \"contracts/HelloComrades.sol\":2416:2529  if (!review(content, unicode\"领导好\")) {... */\n    tag_117:\n        /* \"contracts/HelloComrades.sol\":2545:2546  2 */\n      0x02\n        /* \"contracts/HelloComrades.sol\":2538:2542  step */\n      0x00\n      dup1\n        /* \"contracts/HelloComrades.sol\":2538:2546  step = 2 */\n      0x0100\n      exp\n      dup2\n      sload\n      dup2\n      0xff\n      mul\n      not\n      and\n      swap1\n      dup4\n      0xff\n      and\n      mul\n      or\n      swap1\n      sstore\n      pop\n        /* \"contracts/HelloComrades.sol\":2561:2571  Step(step) */\n      0xf39143d48d073ee18f9a08fcabdbd340be0b2a698e3e45fc3b4318251131b4fc\n        /* \"contracts/HelloComrades.sol\":2566:2570  step */\n      0x00\n      dup1\n      sload\n      swap1\n      0x0100\n      exp\n      swap1\n      div\n      0xff\n      and\n        /* \"contracts/HelloComrades.sol\":2561:2571  Step(step) */\n      mload(0x40)\n      tag_120\n      swap2\n      swap1\n      tag_53\n      jump\t// in\n    tag_120:\n      mload(0x40)\n      dup1\n      swap2\n      sub\n      swap1\n      log1\n        /* \"contracts/HelloComrades.sol\":2588:2592  true */\n      0x01\n        /* \"contracts/HelloComrades.sol\":2581:2592  return true */\n      swap1\n      pop\n        /* \"contracts/HelloComrades.sol\":2231:2599  function helloRes(string calldata content)... */\n      swap3\n      swap2\n      pop\n      pop\n      jump\t// out\n        /* \"contracts/HelloComrades.sol\":4713:4971  function review(string calldata content, string memory correctContent)... */\n    tag_78:\n        /* \"contracts/HelloComrades.sol\":4830:4834  bool */\n      0x00\n        /* \"contracts/HelloComrades.sol\":4948:4962  correctContent */\n      dup2\n        /* \"contracts/HelloComrades.sol\":4931:4963  abi.encodePacked(correctContent) */\n      add(0x20, mload(0x40))\n      tag_122\n      swap2\n      swap1\n      tag_123\n      jump\t// in\n    tag_122:\n      mload(0x40)\n      0x20\n      dup2\n      dup4\n      sub\n      sub\n      dup2\n      mstore\n      swap1\n      0x40\n      mstore\n        /* \"contracts/HelloComrades.sol\":4921:4964  keccak256(abi.encodePacked(correctContent)) */\n      dup1\n      mload\n      swap1\n      0x20\n      add\n      keccak256\n        /* \"contracts/HelloComrades.sol\":4896:4903  content */\n      dup5\n      dup5\n        /* \"contracts/HelloComrades.sol\":4879:4904  abi.encodePacked(content) */\n      add(0x20, mload(0x40))\n      tag_124\n      swap3\n      swap2\n      swap1\n      tag_125\n      jump\t// in\n    tag_124:\n      mload(0x40)\n      0x20\n      dup2\n      dup4\n      sub\n      sub\n      dup2\n      mstore\n      swap1\n      0x40\n      mstore\n        /* \"contracts/HelloComrades.sol\":4869:4905  keccak256(abi.encodePacked(content)) */\n      dup1\n      mload\n      swap1\n      0x20\n      add\n      keccak256\n        /* \"contracts/HelloComrades.sol\":4869:4964  keccak256(abi.encodePacked(content)) ==... */\n      eq\n        /* \"contracts/HelloComrades.sol\":4850:4964  return... */\n      swap1\n      pop\n        /* \"contracts/HelloComrades.sol\":4713:4971  function review(string calldata content, string memory correctContent)... */\n      swap4\n      swap3\n      pop\n      pop\n      pop\n      jump\t// out\n        /* \"#utility.yul\":7:176   */\n    tag_126:\n        /* \"#utility.yul\":91:102   */\n      0x00\n        /* \"#utility.yul\":125:131   */\n      dup3\n        /* \"#utility.yul\":120:123   */\n      dup3\n        /* \"#utility.yul\":113:132   */\n      mstore\n        /* \"#utility.yul\":165:169   */\n      0x20\n        /* \"#utility.yul\":160:163   */\n      dup3\n        /* \"#utility.yul\":156:170   */\n      add\n        /* \"#utility.yul\":141:170   */\n      swap1\n      pop\n        /* \"#utility.yul\":7:176   */\n      swap3\n      swap2\n      pop\n      pop\n      jump\t// out\n        /* \"#utility.yul\":182:339   */\n    tag_127:\n        /* \"#utility.yul\":322:331   */\n      0x7265636569766500000000000000000000000000000000000000000000000000\n        /* \"#utility.yul\":318:319   */\n      0x00\n        /* \"#utility.yul\":310:316   */\n      dup3\n        /* \"#utility.yul\":306:320   */\n      add\n        /* \"#utility.yul\":299:332   */\n      mstore\n        /* \"#utility.yul\":182:339   */\n      pop\n      jump\t// out\n        /* \"#utility.yul\":345:710   */\n    tag_128:\n        /* \"#utility.yul\":487:490   */\n      0x00\n        /* \"#utility.yul\":508:574   */\n      tag_181\n        /* \"#utility.yul\":572:573   */\n      0x07\n        /* \"#utility.yul\":567:570   */\n      dup4\n        /* \"#utility.yul\":508:574   */\n      tag_126\n      jump\t// in\n    tag_181:\n        /* \"#utility.yul\":501:574   */\n      swap2\n      pop\n        /* \"#utility.yul\":583:676   */\n      tag_182\n        /* \"#utility.yul\":672:675   */\n      dup3\n        /* \"#utility.yul\":583:676   */\n      tag_127\n      jump\t// in\n    tag_182:\n        /* \"#utility.yul\":701:703   */\n      0x20\n        /* \"#utility.yul\":696:699   */\n      dup3\n        /* \"#utility.yul\":692:704   */\n      add\n        /* \"#utility.yul\":685:704   */\n      swap1\n      pop\n        /* \"#utility.yul\":345:710   */\n      swap2\n      swap1\n      pop\n      jump\t// out\n        /* \"#utility.yul\":716:842   */\n    tag_129:\n        /* \"#utility.yul\":753:760   */\n      0x00\n        /* \"#utility.yul\":793:835   */\n      0xffffffffffffffffffffffffffffffffffffffff\n        /* \"#utility.yul\":786:791   */\n      dup3\n        /* \"#utility.yul\":782:836   */\n      and\n        /* \"#utility.yul\":771:836   */\n      swap1\n      pop\n        /* \"#utility.yul\":716:842   */\n      swap2\n      swap1\n      pop\n      jump\t// out\n        /* \"#utility.yul\":848:944   */\n    tag_130:\n        /* \"#utility.yul\":885:892   */\n      0x00\n        /* \"#utility.yul\":914:938   */\n      tag_185\n        /* \"#utility.yul\":932:937   */\n      dup3\n        /* \"#utility.yul\":914:938   */\n      tag_129\n      jump\t// in\n    tag_185:\n        /* \"#utility.yul\":903:938   */\n      swap1\n      pop\n        /* \"#utility.yul\":848:944   */\n      swap2\n      swap1\n      pop\n      jump\t// out\n        /* \"#utility.yul\":950:1068   */\n    tag_131:\n        /* \"#utility.yul\":1037:1061   */\n      tag_187\n        /* \"#utility.yul\":1055:1060   */\n      dup2\n        /* \"#utility.yul\":1037:1061   */\n      tag_130\n      jump\t// in\n    tag_187:\n        /* \"#utility.yul\":1032:1035   */\n      dup3\n        /* \"#utility.yul\":1025:1062   */\n      mstore\n        /* \"#utility.yul\":950:1068   */\n      pop\n      pop\n      jump\t// out\n        /* \"#utility.yul\":1074:1151   */\n    tag_132:\n        /* \"#utility.yul\":1111:1118   */\n      0x00\n        /* \"#utility.yul\":1140:1145   */\n      dup2\n        /* \"#utility.yul\":1129:1145   */\n      swap1\n      pop\n        /* \"#utility.yul\":1074:1151   */\n      swap2\n      swap1\n      pop\n      jump\t// out\n        /* \"#utility.yul\":1157:1275   */\n    tag_133:\n        /* \"#utility.yul\":1244:1268   */\n      tag_190\n        /* \"#utility.yul\":1262:1267   */\n      dup2\n        /* \"#utility.yul\":1244:1268   */\n      tag_132\n      jump\t// in\n    tag_190:\n        /* \"#utility.yul\":1239:1242   */\n      dup3\n        /* \"#utility.yul\":1232:1269   */\n      mstore\n        /* \"#utility.yul\":1157:1275   */\n      pop\n      pop\n      jump\t// out\n        /* \"#utility.yul\":1281:1449   */\n    tag_134:\n        /* \"#utility.yul\":1364:1375   */\n      0x00\n        /* \"#utility.yul\":1398:1404   */\n      dup3\n        /* \"#utility.yul\":1393:1396   */\n      dup3\n        /* \"#utility.yul\":1386:1405   */\n      mstore\n        /* \"#utility.yul\":1438:1442   */\n      0x20\n        /* \"#utility.yul\":1433:1436   */\n      dup3\n        /* \"#utility.yul\":1429:1443   */\n      add\n        /* \"#utility.yul\":1414:1443   */\n      swap1\n      pop\n        /* \"#utility.yul\":1281:1449   */\n      swap3\n      swap2\n      pop\n      pop\n      jump\t// out\n        /* \"#utility.yul\":1455:1569   */\n    tag_135:\n      pop\n      jump\t// out\n        /* \"#utility.yul\":1575:1937   */\n    tag_136:\n        /* \"#utility.yul\":1716:1719   */\n      0x00\n        /* \"#utility.yul\":1737:1802   */\n      tag_194\n        /* \"#utility.yul\":1800:1801   */\n      0x00\n        /* \"#utility.yul\":1795:1798   */\n      dup4\n        /* \"#utility.yul\":1737:1802   */\n      tag_134\n      jump\t// in\n    tag_194:\n        /* \"#utility.yul\":1730:1802   */\n      swap2\n      pop\n        /* \"#utility.yul\":1811:1904   */\n      tag_195\n        /* \"#utility.yul\":1900:1903   */\n      dup3\n        /* \"#utility.yul\":1811:1904   */\n      tag_135\n      jump\t// in\n    tag_195:\n        /* \"#utility.yul\":1929:1930   */\n      0x00\n        /* \"#utility.yul\":1924:1927   */\n      dup3\n        /* \"#utility.yul\":1920:1931   */\n      add\n        /* \"#utility.yul\":1913:1931   */\n      swap1\n      pop\n        /* \"#utility.yul\":1575:1937   */\n      swap2\n      swap1\n      pop\n      jump\t// out\n        /* \"#utility.yul\":1943:2888   */\n    tag_15:\n        /* \"#utility.yul\":2265:2269   */\n      0x00\n        /* \"#utility.yul\":2303:2306   */\n      0x80\n        /* \"#utility.yul\":2292:2301   */\n      dup3\n        /* \"#utility.yul\":2288:2307   */\n      add\n        /* \"#utility.yul\":2280:2307   */\n      swap1\n      pop\n        /* \"#utility.yul\":2353:2362   */\n      dup2\n        /* \"#utility.yul\":2347:2351   */\n      dup2\n        /* \"#utility.yul\":2343:2363   */\n      sub\n        /* \"#utility.yul\":2339:2340   */\n      0x00\n        /* \"#utility.yul\":2328:2337   */\n      dup4\n        /* \"#utility.yul\":2324:2341   */\n      add\n        /* \"#utility.yul\":2317:2364   */\n      mstore\n        /* \"#utility.yul\":2381:2512   */\n      tag_197\n        /* \"#utility.yul\":2507:2511   */\n      dup2\n        /* \"#utility.yul\":2381:2512   */\n      tag_128\n      jump\t// in\n    tag_197:\n        /* \"#utility.yul\":2373:2512   */\n      swap1\n      pop\n        /* \"#utility.yul\":2522:2594   */\n      tag_198\n        /* \"#utility.yul\":2590:2592   */\n      0x20\n        /* \"#utility.yul\":2579:2588   */\n      dup4\n        /* \"#utility.yul\":2575:2593   */\n      add\n        /* \"#utility.yul\":2566:2572   */\n      dup6\n        /* \"#utility.yul\":2522:2594   */\n      tag_131\n      jump\t// in\n    tag_198:\n        /* \"#utility.yul\":2604:2676   */\n      tag_199\n        /* \"#utility.yul\":2672:2674   */\n      0x40\n        /* \"#utility.yul\":2661:2670   */\n      dup4\n        /* \"#utility.yul\":2657:2675   */\n      add\n        /* \"#utility.yul\":2648:2654   */\n      dup5\n        /* \"#utility.yul\":2604:2676   */\n      tag_133\n      jump\t// in\n    tag_199:\n        /* \"#utility.yul\":2723:2732   */\n      dup2\n        /* \"#utility.yul\":2717:2721   */\n      dup2\n        /* \"#utility.yul\":2713:2733   */\n      sub\n        /* \"#utility.yul\":2708:2710   */\n      0x60\n        /* \"#utility.yul\":2697:2706   */\n      dup4\n        /* \"#utility.yul\":2693:2711   */\n      add\n        /* \"#utility.yul\":2686:2734   */\n      mstore\n        /* \"#utility.yul\":2751:2881   */\n      tag_200\n        /* \"#utility.yul\":2876:2880   */\n      dup2\n        /* \"#utility.yul\":2751:2881   */\n      tag_136\n      jump\t// in\n    tag_200:\n        /* \"#utility.yul\":2743:2881   */\n      swap1\n      pop\n        /* \"#utility.yul\":1943:2888   */\n      swap4\n      swap3\n      pop\n      pop\n      pop\n      jump\t// out\n        /* \"#utility.yul\":2894:3052   */\n    tag_137:\n        /* \"#utility.yul\":3034:3044   */\n      0x66616c6c6261636b000000000000000000000000000000000000000000000000\n        /* \"#utility.yul\":3030:3031   */\n      0x00\n        /* \"#utility.yul\":3022:3028   */\n      dup3\n        /* \"#utility.yul\":3018:3032   */\n      add\n        /* \"#utility.yul\":3011:3045   */\n      mstore\n        /* \"#utility.yul\":2894:3052   */\n      pop\n      jump\t// out\n        /* \"#utility.yul\":3058:3423   */\n    tag_138:\n        /* \"#utility.yul\":3200:3203   */\n      0x00\n        /* \"#utility.yul\":3221:3287   */\n      tag_203\n        /* \"#utility.yul\":3285:3286   */\n      0x08\n        /* \"#utility.yul\":3280:3283   */\n      dup4\n        /* \"#utility.yul\":3221:3287   */\n      tag_126\n      jump\t// in\n    tag_203:\n        /* \"#utility.yul\":3214:3287   */\n      swap2\n      pop\n        /* \"#utility.yul\":3296:3389   */\n      tag_204\n        /* \"#utility.yul\":3385:3388   */\n      dup3\n        /* \"#utility.yul\":3296:3389   */\n      tag_137\n      jump\t// in\n    tag_204:\n        /* \"#utility.yul\":3414:3416   */\n      0x20\n        /* \"#utility.yul\":3409:3412   */\n      dup3\n        /* \"#utility.yul\":3405:3417   */\n      add\n        /* \"#utility.yul\":3398:3417   */\n      swap1\n      pop\n        /* \"#utility.yul\":3058:3423   */\n      swap2\n      swap1\n      pop\n      jump\t// out\n        /* \"#utility.yul\":3429:3577   */\n    tag_139:\n        /* \"#utility.yul\":3527:3533   */\n      dup3\n        /* \"#utility.yul\":3522:3525   */\n      dup2\n        /* \"#utility.yul\":3517:3520   */\n      dup4\n        /* \"#utility.yul\":3504:3534   */\n      calldatacopy\n        /* \"#utility.yul\":3568:3569   */\n      0x00\n        /* \"#utility.yul\":3559:3565   */\n      dup4\n        /* \"#utility.yul\":3554:3557   */\n      dup4\n        /* \"#utility.yul\":3550:3566   */\n      add\n        /* \"#utility.yul\":3543:3570   */\n      mstore\n        /* \"#utility.yul\":3429:3577   */\n      pop\n      pop\n      pop\n      jump\t// out\n        /* \"#utility.yul\":3583:3685   */\n    tag_140:\n        /* \"#utility.yul\":3624:3630   */\n      0x00\n        /* \"#utility.yul\":3675:3677   */\n      0x1f\n        /* \"#utility.yul\":3671:3678   */\n      not\n        /* \"#utility.yul\":3666:3668   */\n      0x1f\n        /* \"#utility.yul\":3659:3664   */\n      dup4\n        /* \"#utility.yul\":3655:3669   */\n      add\n        /* \"#utility.yul\":3651:3679   */\n      and\n        /* \"#utility.yul\":3641:3679   */\n      swap1\n      pop\n        /* \"#utility.yul\":3583:3685   */\n      swap2\n      swap1\n      pop\n      jump\t// out\n        /* \"#utility.yul\":3713:4027   */\n    tag_141:\n        /* \"#utility.yul\":3809:3812   */\n      0x00\n        /* \"#utility.yul\":3830:3900   */\n      tag_208\n        /* \"#utility.yul\":3893:3899   */\n      dup4\n        /* \"#utility.yul\":3888:3891   */\n      dup6\n        /* \"#utility.yul\":3830:3900   */\n      tag_134\n      jump\t// in\n    tag_208:\n        /* \"#utility.yul\":3823:3900   */\n      swap4\n      pop\n        /* \"#utility.yul\":3910:3966   */\n      tag_209\n        /* \"#utility.yul\":3959:3965   */\n      dup4\n        /* \"#utility.yul\":3954:3957   */\n      dup6\n        /* \"#utility.yul\":3947:3952   */\n      dup5\n        /* \"#utility.yul\":3910:3966   */\n      tag_139\n      jump\t// in\n    tag_209:\n        /* \"#utility.yul\":3991:4020   */\n      tag_210\n        /* \"#utility.yul\":4013:4019   */\n      dup4\n        /* \"#utility.yul\":3991:4020   */\n      tag_140\n      jump\t// in\n    tag_210:\n        /* \"#utility.yul\":3986:3989   */\n      dup5\n        /* \"#utility.yul\":3982:4021   */\n      add\n        /* \"#utility.yul\":3975:4021   */\n      swap1\n      pop\n        /* \"#utility.yul\":3713:4027   */\n      swap4\n      swap3\n      pop\n      pop\n      pop\n      jump\t// out\n        /* \"#utility.yul\":4033:4890   */\n    tag_19:\n        /* \"#utility.yul\":4311:4315   */\n      0x00\n        /* \"#utility.yul\":4349:4352   */\n      0x80\n        /* \"#utility.yul\":4338:4347   */\n      dup3\n        /* \"#utility.yul\":4334:4353   */\n      add\n        /* \"#utility.yul\":4326:4353   */\n      swap1\n      pop\n        /* \"#utility.yul\":4399:4408   */\n      dup2\n        /* \"#utility.yul\":4393:4397   */\n      dup2\n        /* \"#utility.yul\":4389:4409   */\n      sub\n        /* \"#utility.yul\":4385:4386   */\n      0x00\n        /* \"#utility.yul\":4374:4383   */\n      dup4\n        /* \"#utility.yul\":4370:4387   */\n      add\n        /* \"#utility.yul\":4363:4410   */\n      mstore\n        /* \"#utility.yul\":4427:4558   */\n      tag_212\n        /* \"#utility.yul\":4553:4557   */\n      dup2\n        /* \"#utility.yul\":4427:4558   */\n      tag_138\n      jump\t// in\n    tag_212:\n        /* \"#utility.yul\":4419:4558   */\n      swap1\n      pop\n        /* \"#utility.yul\":4568:4640   */\n      tag_213\n        /* \"#utility.yul\":4636:4638   */\n      0x20\n        /* \"#utility.yul\":4625:4634   */\n      dup4\n        /* \"#utility.yul\":4621:4639   */\n      add\n        /* \"#utility.yul\":4612:4618   */\n      dup8\n        /* \"#utility.yul\":4568:4640   */\n      tag_131\n      jump\t// in\n    tag_213:\n        /* \"#utility.yul\":4650:4722   */\n      tag_214\n        /* \"#utility.yul\":4718:4720   */\n      0x40\n        /* \"#utility.yul\":4707:4716   */\n      dup4\n        /* \"#utility.yul\":4703:4721   */\n      add\n        /* \"#utility.yul\":4694:4700   */\n      dup7\n        /* \"#utility.yul\":4650:4722   */\n      tag_133\n      jump\t// in\n    tag_214:\n        /* \"#utility.yul\":4769:4778   */\n      dup2\n        /* \"#utility.yul\":4763:4767   */\n      dup2\n        /* \"#utility.yul\":4759:4779   */\n      sub\n        /* \"#utility.yul\":4754:4756   */\n      0x60\n        /* \"#utility.yul\":4743:4752   */\n      dup4\n        /* \"#utility.yul\":4739:4757   */\n      add\n        /* \"#utility.yul\":4732:4780   */\n      mstore\n        /* \"#utility.yul\":4797:4883   */\n      tag_215\n        /* \"#utility.yul\":4878:4882   */\n      dup2\n        /* \"#utility.yul\":4869:4875   */\n      dup5\n        /* \"#utility.yul\":4861:4867   */\n      dup7\n        /* \"#utility.yul\":4797:4883   */\n      tag_141\n      jump\t// in\n    tag_215:\n        /* \"#utility.yul\":4789:4883   */\n      swap1\n      pop\n        /* \"#utility.yul\":4033:4890   */\n      swap6\n      swap5\n      pop\n      pop\n      pop\n      pop\n      pop\n      jump\t// out\n        /* \"#utility.yul\":4896:5118   */\n    tag_24:\n        /* \"#utility.yul\":4989:4993   */\n      0x00\n        /* \"#utility.yul\":5027:5029   */\n      0x20\n        /* \"#utility.yul\":5016:5025   */\n      dup3\n        /* \"#utility.yul\":5012:5030   */\n      add\n        /* \"#utility.yul\":5004:5030   */\n      swap1\n      pop\n        /* \"#utility.yul\":5040:5111   */\n      tag_217\n        /* \"#utility.yul\":5108:5109   */\n      0x00\n        /* \"#utility.yul\":5097:5106   */\n      dup4\n        /* \"#utility.yul\":5093:5110   */\n      add\n        /* \"#utility.yul\":5084:5090   */\n      dup5\n        /* \"#utility.yul\":5040:5111   */\n      tag_133\n      jump\t// in\n    tag_217:\n        /* \"#utility.yul\":4896:5118   */\n      swap3\n      swap2\n      pop\n      pop\n      jump\t// out\n        /* \"#utility.yul\":5124:5214   */\n    tag_142:\n        /* \"#utility.yul\":5158:5165   */\n      0x00\n        /* \"#utility.yul\":5201:5206   */\n      dup2\n        /* \"#utility.yul\":5194:5207   */\n      iszero\n        /* \"#utility.yul\":5187:5208   */\n      iszero\n        /* \"#utility.yul\":5176:5208   */\n      swap1\n      pop\n        /* \"#utility.yul\":5124:5214   */\n      swap2\n      swap1\n      pop\n      jump\t// out\n        /* \"#utility.yul\":5220:5329   */\n    tag_143:\n        /* \"#utility.yul\":5301:5322   */\n      tag_220\n        /* \"#utility.yul\":5316:5321   */\n      dup2\n        /* \"#utility.yul\":5301:5322   */\n      tag_142\n      jump\t// in\n    tag_220:\n        /* \"#utility.yul\":5296:5299   */\n      dup3\n        /* \"#utility.yul\":5289:5323   */\n      mstore\n        /* \"#utility.yul\":5220:5329   */\n      pop\n      pop\n      jump\t// out\n        /* \"#utility.yul\":5335:5545   */\n    tag_28:\n        /* \"#utility.yul\":5422:5426   */\n      0x00\n        /* \"#utility.yul\":5460:5462   */\n      0x20\n        /* \"#utility.yul\":5449:5458   */\n      dup3\n        /* \"#utility.yul\":5445:5463   */\n      add\n        /* \"#utility.yul\":5437:5463   */\n      swap1\n      pop\n        /* \"#utility.yul\":5473:5538   */\n      tag_222\n        /* \"#utility.yul\":5535:5536   */\n      0x00\n        /* \"#utility.yul\":5524:5533   */\n      dup4\n        /* \"#utility.yul\":5520:5537   */\n      add\n        /* \"#utility.yul\":5511:5517   */\n      dup5\n        /* \"#utility.yul\":5473:5538   */\n      tag_143\n      jump\t// in\n    tag_222:\n        /* \"#utility.yul\":5335:5545   */\n      swap3\n      swap2\n      pop\n      pop\n      jump\t// out\n        /* \"#utility.yul\":5551:5773   */\n    tag_33:\n        /* \"#utility.yul\":5644:5648   */\n      0x00\n        /* \"#utility.yul\":5682:5684   */\n      0x20\n        /* \"#utility.yul\":5671:5680   */\n      dup3\n        /* \"#utility.yul\":5667:5685   */\n      add\n        /* \"#utility.yul\":5659:5685   */\n      swap1\n      pop\n        /* \"#utility.yul\":5695:5766   */\n      tag_224\n        /* \"#utility.yul\":5763:5764   */\n      0x00\n        /* \"#utility.yul\":5752:5761   */\n      dup4\n        /* \"#utility.yul\":5748:5765   */\n      add\n        /* \"#utility.yul\":5739:5745   */\n      dup5\n        /* \"#utility.yul\":5695:5766   */\n      tag_131\n      jump\t// in\n    tag_224:\n        /* \"#utility.yul\":5551:5773   */\n      swap3\n      swap2\n      pop\n      pop\n      jump\t// out\n        /* \"#utility.yul\":5860:5977   */\n    tag_145:\n        /* \"#utility.yul\":5969:5970   */\n      0x00\n        /* \"#utility.yul\":5966:5967   */\n      dup1\n        /* \"#utility.yul\":5959:5971   */\n      revert\n        /* \"#utility.yul\":5983:6100   */\n    tag_146:\n        /* \"#utility.yul\":6092:6093   */\n      0x00\n        /* \"#utility.yul\":6089:6090   */\n      dup1\n        /* \"#utility.yul\":6082:6094   */\n      revert\n        /* \"#utility.yul\":6106:6223   */\n    tag_147:\n        /* \"#utility.yul\":6215:6216   */\n      0x00\n        /* \"#utility.yul\":6212:6213   */\n      dup1\n        /* \"#utility.yul\":6205:6217   */\n      revert\n        /* \"#utility.yul\":6229:6346   */\n    tag_148:\n        /* \"#utility.yul\":6338:6339   */\n      0x00\n        /* \"#utility.yul\":6335:6336   */\n      dup1\n        /* \"#utility.yul\":6328:6340   */\n      revert\n        /* \"#utility.yul\":6352:6469   */\n    tag_149:\n        /* \"#utility.yul\":6461:6462   */\n      0x00\n        /* \"#utility.yul\":6458:6459   */\n      dup1\n        /* \"#utility.yul\":6451:6463   */\n      revert\n        /* \"#utility.yul\":6489:7042   */\n    tag_150:\n        /* \"#utility.yul\":6547:6555   */\n      0x00\n        /* \"#utility.yul\":6557:6563   */\n      dup1\n        /* \"#utility.yul\":6607:6610   */\n      dup4\n        /* \"#utility.yul\":6600:6604   */\n      0x1f\n        /* \"#utility.yul\":6592:6598   */\n      dup5\n        /* \"#utility.yul\":6588:6605   */\n      add\n        /* \"#utility.yul\":6584:6611   */\n      slt\n        /* \"#utility.yul\":6574:6696   */\n      tag_232\n      jumpi\n        /* \"#utility.yul\":6615:6694   */\n      tag_233\n      tag_147\n      jump\t// in\n    tag_233:\n        /* \"#utility.yul\":6574:6696   */\n    tag_232:\n        /* \"#utility.yul\":6728:6734   */\n      dup3\n        /* \"#utility.yul\":6715:6735   */\n      calldataload\n        /* \"#utility.yul\":6705:6735   */\n      swap1\n      pop\n        /* \"#utility.yul\":6758:6776   */\n      0xffffffffffffffff\n        /* \"#utility.yul\":6750:6756   */\n      dup2\n        /* \"#utility.yul\":6747:6777   */\n      gt\n        /* \"#utility.yul\":6744:6861   */\n      iszero\n      tag_234\n      jumpi\n        /* \"#utility.yul\":6780:6859   */\n      tag_235\n      tag_148\n      jump\t// in\n    tag_235:\n        /* \"#utility.yul\":6744:6861   */\n    tag_234:\n        /* \"#utility.yul\":6894:6898   */\n      0x20\n        /* \"#utility.yul\":6886:6892   */\n      dup4\n        /* \"#utility.yul\":6882:6899   */\n      add\n        /* \"#utility.yul\":6870:6899   */\n      swap2\n      pop\n        /* \"#utility.yul\":6948:6951   */\n      dup4\n        /* \"#utility.yul\":6940:6944   */\n      0x01\n        /* \"#utility.yul\":6932:6938   */\n      dup3\n        /* \"#utility.yul\":6928:6945   */\n      mul\n        /* \"#utility.yul\":6918:6926   */\n      dup4\n        /* \"#utility.yul\":6914:6946   */\n      add\n        /* \"#utility.yul\":6911:6952   */\n      gt\n        /* \"#utility.yul\":6908:7036   */\n      iszero\n      tag_236\n      jumpi\n        /* \"#utility.yul\":6955:7034   */\n      tag_237\n      tag_149\n      jump\t// in\n    tag_237:\n        /* \"#utility.yul\":6908:7036   */\n    tag_236:\n        /* \"#utility.yul\":6489:7042   */\n      swap3\n      pop\n      swap3\n      swap1\n      pop\n      jump\t// out\n        /* \"#utility.yul\":7048:7577   */\n    tag_37:\n        /* \"#utility.yul\":7119:7125   */\n      0x00\n        /* \"#utility.yul\":7127:7133   */\n      dup1\n        /* \"#utility.yul\":7176:7178   */\n      0x20\n        /* \"#utility.yul\":7164:7173   */\n      dup4\n        /* \"#utility.yul\":7155:7162   */\n      dup6\n        /* \"#utility.yul\":7151:7174   */\n      sub\n        /* \"#utility.yul\":7147:7179   */\n      slt\n        /* \"#utility.yul\":7144:7263   */\n      iszero\n      tag_239\n      jumpi\n        /* \"#utility.yul\":7182:7261   */\n      tag_240\n      tag_145\n      jump\t// in\n    tag_240:\n        /* \"#utility.yul\":7144:7263   */\n    tag_239:\n        /* \"#utility.yul\":7330:7331   */\n      0x00\n        /* \"#utility.yul\":7319:7328   */\n      dup4\n        /* \"#utility.yul\":7315:7332   */\n      add\n        /* \"#utility.yul\":7302:7333   */\n      calldataload\n        /* \"#utility.yul\":7360:7378   */\n      0xffffffffffffffff\n        /* \"#utility.yul\":7352:7358   */\n      dup2\n        /* \"#utility.yul\":7349:7379   */\n      gt\n        /* \"#utility.yul\":7346:7463   */\n      iszero\n      tag_241\n      jumpi\n        /* \"#utility.yul\":7382:7461   */\n      tag_242\n      tag_146\n      jump\t// in\n    tag_242:\n        /* \"#utility.yul\":7346:7463   */\n    tag_241:\n        /* \"#utility.yul\":7495:7560   */\n      tag_243\n        /* \"#utility.yul\":7552:7559   */\n      dup6\n        /* \"#utility.yul\":7543:7549   */\n      dup3\n        /* \"#utility.yul\":7532:7541   */\n      dup7\n        /* \"#utility.yul\":7528:7550   */\n      add\n        /* \"#utility.yul\":7495:7560   */\n      tag_150\n      jump\t// in\n    tag_243:\n        /* \"#utility.yul\":7477:7560   */\n      swap3\n      pop\n      swap3\n      pop\n        /* \"#utility.yul\":7273:7570   */\n      pop\n        /* \"#utility.yul\":7048:7577   */\n      swap3\n      pop\n      swap3\n      swap1\n      pop\n      jump\t// out\n        /* \"#utility.yul\":7583:7669   */\n    tag_151:\n        /* \"#utility.yul\":7618:7625   */\n      0x00\n        /* \"#utility.yul\":7658:7662   */\n      0xff\n        /* \"#utility.yul\":7651:7656   */\n      dup3\n        /* \"#utility.yul\":7647:7663   */\n      and\n        /* \"#utility.yul\":7636:7663   */\n      swap1\n      pop\n        /* \"#utility.yul\":7583:7669   */\n      swap2\n      swap1\n      pop\n      jump\t// out\n        /* \"#utility.yul\":7675:7787   */\n    tag_152:\n        /* \"#utility.yul\":7758:7780   */\n      tag_246\n        /* \"#utility.yul\":7774:7779   */\n      dup2\n        /* \"#utility.yul\":7758:7780   */\n      tag_151\n      jump\t// in\n    tag_246:\n        /* \"#utility.yul\":7753:7756   */\n      dup3\n        /* \"#utility.yul\":7746:7781   */\n      mstore\n        /* \"#utility.yul\":7675:7787   */\n      pop\n      pop\n      jump\t// out\n        /* \"#utility.yul\":7793:8007   */\n    tag_53:\n        /* \"#utility.yul\":7882:7886   */\n      0x00\n        /* \"#utility.yul\":7920:7922   */\n      0x20\n        /* \"#utility.yul\":7909:7918   */\n      dup3\n        /* \"#utility.yul\":7905:7923   */\n      add\n        /* \"#utility.yul\":7897:7923   */\n      swap1\n      pop\n        /* \"#utility.yul\":7933:8000   */\n      tag_248\n        /* \"#utility.yul\":7997:7998   */\n      0x00\n        /* \"#utility.yul\":7986:7995   */\n      dup4\n        /* \"#utility.yul\":7982:7999   */\n      add\n        /* \"#utility.yul\":7973:7979   */\n      dup5\n        /* \"#utility.yul\":7933:8000   */\n      tag_152\n      jump\t// in\n    tag_248:\n        /* \"#utility.yul\":7793:8007   */\n      swap3\n      swap2\n      pop\n      pop\n      jump\t// out\n        /* \"#utility.yul\":8013:8227   */\n    tag_153:\n        /* \"#utility.yul\":8153:8219   */\n      0xe5bf85e9a1bbe9a286e5afbce6898de883bde8afb40000000000000000000000\n        /* \"#utility.yul\":8149:8150   */\n      0x00\n        /* \"#utility.yul\":8141:8147   */\n      dup3\n        /* \"#utility.yul\":8137:8151   */\n      add\n        /* \"#utility.yul\":8130:8220   */\n      mstore\n        /* \"#utility.yul\":8013:8227   */\n      pop\n      jump\t// out\n        /* \"#utility.yul\":8233:8599   */\n    tag_154:\n        /* \"#utility.yul\":8375:8378   */\n      0x00\n        /* \"#utility.yul\":8396:8463   */\n      tag_251\n        /* \"#utility.yul\":8460:8462   */\n      0x15\n        /* \"#utility.yul\":8455:8458   */\n      dup4\n        /* \"#utility.yul\":8396:8463   */\n      tag_126\n      jump\t// in\n    tag_251:\n        /* \"#utility.yul\":8389:8463   */\n      swap2\n      pop\n        /* \"#utility.yul\":8472:8565   */\n      tag_252\n        /* \"#utility.yul\":8561:8564   */\n      dup3\n        /* \"#utility.yul\":8472:8565   */\n      tag_153\n      jump\t// in\n    tag_252:\n        /* \"#utility.yul\":8590:8592   */\n      0x20\n        /* \"#utility.yul\":8585:8588   */\n      dup3\n        /* \"#utility.yul\":8581:8593   */\n      add\n        /* \"#utility.yul\":8574:8593   */\n      swap1\n      pop\n        /* \"#utility.yul\":8233:8599   */\n      swap2\n      swap1\n      pop\n      jump\t// out\n        /* \"#utility.yul\":8605:9024   */\n    tag_63:\n        /* \"#utility.yul\":8771:8775   */\n      0x00\n        /* \"#utility.yul\":8809:8811   */\n      0x20\n        /* \"#utility.yul\":8798:8807   */\n      dup3\n        /* \"#utility.yul\":8794:8812   */\n      add\n        /* \"#utility.yul\":8786:8812   */\n      swap1\n      pop\n        /* \"#utility.yul\":8858:8867   */\n      dup2\n        /* \"#utility.yul\":8852:8856   */\n      dup2\n        /* \"#utility.yul\":8848:8868   */\n      sub\n        /* \"#utility.yul\":8844:8845   */\n      0x00\n        /* \"#utility.yul\":8833:8842   */\n      dup4\n        /* \"#utility.yul\":8829:8846   */\n      add\n        /* \"#utility.yul\":8822:8869   */\n      mstore\n        /* \"#utility.yul\":8886:9017   */\n      tag_254\n        /* \"#utility.yul\":9012:9016   */\n      dup2\n        /* \"#utility.yul\":8886:9017   */\n      tag_154\n      jump\t// in\n    tag_254:\n        /* \"#utility.yul\":8878:9017   */\n      swap1\n      pop\n        /* \"#utility.yul\":8605:9024   */\n      swap2\n      swap1\n      pop\n      jump\t// out\n        /* \"#utility.yul\":9030:9129   */\n    tag_155:\n        /* \"#utility.yul\":9082:9088   */\n      0x00\n        /* \"#utility.yul\":9116:9121   */\n      dup2\n        /* \"#utility.yul\":9110:9122   */\n      mload\n        /* \"#utility.yul\":9100:9122   */\n      swap1\n      pop\n        /* \"#utility.yul\":9030:9129   */\n      swap2\n      swap1\n      pop\n      jump\t// out\n        /* \"#utility.yul\":9135:9274   */\n    tag_156:\n        /* \"#utility.yul\":9224:9230   */\n      dup3\n        /* \"#utility.yul\":9219:9222   */\n      dup2\n        /* \"#utility.yul\":9214:9217   */\n      dup4\n        /* \"#utility.yul\":9208:9231   */\n      mcopy\n        /* \"#utility.yul\":9265:9266   */\n      0x00\n        /* \"#utility.yul\":9256:9262   */\n      dup4\n        /* \"#utility.yul\":9251:9254   */\n      dup4\n        /* \"#utility.yul\":9247:9263   */\n      add\n        /* \"#utility.yul\":9240:9267   */\n      mstore\n        /* \"#utility.yul\":9135:9274   */\n      pop\n      pop\n      pop\n      jump\t// out\n        /* \"#utility.yul\":9280:9657   */\n    tag_157:\n        /* \"#utility.yul\":9368:9371   */\n      0x00\n        /* \"#utility.yul\":9396:9435   */\n      tag_258\n        /* \"#utility.yul\":9429:9434   */\n      dup3\n        /* \"#utility.yul\":9396:9435   */\n      tag_155\n      jump\t// in\n    tag_258:\n        /* \"#utility.yul\":9451:9522   */\n      tag_259\n        /* \"#utility.yul\":9515:9521   */\n      dup2\n        /* \"#utility.yul\":9510:9513   */\n      dup6\n        /* \"#utility.yul\":9451:9522   */\n      tag_126\n      jump\t// in\n    tag_259:\n        /* \"#utility.yul\":9444:9522   */\n      swap4\n      pop\n        /* \"#utility.yul\":9531:9596   */\n      tag_260\n        /* \"#utility.yul\":9589:9595   */\n      dup2\n        /* \"#utility.yul\":9584:9587   */\n      dup6\n        /* \"#utility.yul\":9577:9581   */\n      0x20\n        /* \"#utility.yul\":9570:9575   */\n      dup7\n        /* \"#utility.yul\":9566:9582   */\n      add\n        /* \"#utility.yul\":9531:9596   */\n      tag_156\n      jump\t// in\n    tag_260:\n        /* \"#utility.yul\":9621:9650   */\n      tag_261\n        /* \"#utility.yul\":9643:9649   */\n      dup2\n        /* \"#utility.yul\":9621:9650   */\n      tag_140\n      jump\t// in\n    tag_261:\n        /* \"#utility.yul\":9616:9619   */\n      dup5\n        /* \"#utility.yul\":9612:9651   */\n      add\n        /* \"#utility.yul\":9605:9651   */\n      swap2\n      pop\n        /* \"#utility.yul\":9372:9657   */\n      pop\n        /* \"#utility.yul\":9280:9657   */\n      swap3\n      swap2\n      pop\n      pop\n      jump\t// out\n        /* \"#utility.yul\":9663:9976   */\n    tag_67:\n        /* \"#utility.yul\":9776:9780   */\n      0x00\n        /* \"#utility.yul\":9814:9816   */\n      0x20\n        /* \"#utility.yul\":9803:9812   */\n      dup3\n        /* \"#utility.yul\":9799:9817   */\n      add\n        /* \"#utility.yul\":9791:9817   */\n      swap1\n      pop\n        /* \"#utility.yul\":9863:9872   */\n      dup2\n        /* \"#utility.yul\":9857:9861   */\n      dup2\n        /* \"#utility.yul\":9853:9873   */\n      sub\n        /* \"#utility.yul\":9849:9850   */\n      0x00\n        /* \"#utility.yul\":9838:9847   */\n      dup4\n        /* \"#utility.yul\":9834:9851   */\n      add\n        /* \"#utility.yul\":9827:9874   */\n      mstore\n        /* \"#utility.yul\":9891:9969   */\n      tag_263\n        /* \"#utility.yul\":9964:9968   */\n      dup2\n        /* \"#utility.yul\":9955:9961   */\n      dup5\n        /* \"#utility.yul\":9891:9969   */\n      tag_157\n      jump\t// in\n    tag_263:\n        /* \"#utility.yul\":9883:9969   */\n      swap1\n      pop\n        /* \"#utility.yul\":9663:9976   */\n      swap3\n      swap2\n      pop\n      pop\n      jump\t// out\n        /* \"#utility.yul\":9982:10140   */\n    tag_158:\n        /* \"#utility.yul\":10122:10132   */\n      0x6465737472756374000000000000000000000000000000000000000000000000\n        /* \"#utility.yul\":10118:10119   */\n      0x00\n        /* \"#utility.yul\":10110:10116   */\n      dup3\n        /* \"#utility.yul\":10106:10120   */\n      add\n        /* \"#utility.yul\":10099:10133   */\n      mstore\n        /* \"#utility.yul\":9982:10140   */\n      pop\n      jump\t// out\n        /* \"#utility.yul\":10146:10511   */\n    tag_159:\n        /* \"#utility.yul\":10288:10291   */\n      0x00\n        /* \"#utility.yul\":10309:10375   */\n      tag_266\n        /* \"#utility.yul\":10373:10374   */\n      0x08\n        /* \"#utility.yul\":10368:10371   */\n      dup4\n        /* \"#utility.yul\":10309:10375   */\n      tag_126\n      jump\t// in\n    tag_266:\n        /* \"#utility.yul\":10302:10375   */\n      swap2\n      pop\n        /* \"#utility.yul\":10384:10477   */\n      tag_267\n        /* \"#utility.yul\":10473:10476   */\n      dup3\n        /* \"#utility.yul\":10384:10477   */\n      tag_158\n      jump\t// in\n    tag_267:\n        /* \"#utility.yul\":10502:10504   */\n      0x20\n        /* \"#utility.yul\":10497:10500   */\n      dup3\n        /* \"#utility.yul\":10493:10505   */\n      add\n        /* \"#utility.yul\":10486:10505   */\n      swap1\n      pop\n        /* \"#utility.yul\":10146:10511   */\n      swap2\n      swap1\n      pop\n      jump\t// out\n        /* \"#utility.yul\":10517:11374   */\n    tag_69:\n        /* \"#utility.yul\":10795:10799   */\n      0x00\n        /* \"#utility.yul\":10833:10836   */\n      0x80\n        /* \"#utility.yul\":10822:10831   */\n      dup3\n        /* \"#utility.yul\":10818:10837   */\n      add\n        /* \"#utility.yul\":10810:10837   */\n      swap1\n      pop\n        /* \"#utility.yul\":10883:10892   */\n      dup2\n        /* \"#utility.yul\":10877:10881   */\n      dup2\n        /* \"#utility.yul\":10873:10893   */\n      sub\n        /* \"#utility.yul\":10869:10870   */\n      0x00\n        /* \"#utility.yul\":10858:10867   */\n      dup4\n        /* \"#utility.yul\":10854:10871   */\n      add\n        /* \"#utility.yul\":10847:10894   */\n      mstore\n        /* \"#utility.yul\":10911:11042   */\n      tag_269\n        /* \"#utility.yul\":11037:11041   */\n      dup2\n        /* \"#utility.yul\":10911:11042   */\n      tag_159\n      jump\t// in\n    tag_269:\n        /* \"#utility.yul\":10903:11042   */\n      swap1\n      pop\n        /* \"#utility.yul\":11052:11124   */\n      tag_270\n        /* \"#utility.yul\":11120:11122   */\n      0x20\n        /* \"#utility.yul\":11109:11118   */\n      dup4\n        /* \"#utility.yul\":11105:11123   */\n      add\n        /* \"#utility.yul\":11096:11102   */\n      dup8\n        /* \"#utility.yul\":11052:11124   */\n      tag_131\n      jump\t// in\n    tag_270:\n        /* \"#utility.yul\":11134:11206   */\n      tag_271\n        /* \"#utility.yul\":11202:11204   */\n      0x40\n        /* \"#utility.yul\":11191:11200   */\n      dup4\n        /* \"#utility.yul\":11187:11205   */\n      add\n        /* \"#utility.yul\":11178:11184   */\n      dup7\n        /* \"#utility.yul\":11134:11206   */\n      tag_133\n      jump\t// in\n    tag_271:\n        /* \"#utility.yul\":11253:11262   */\n      dup2\n        /* \"#utility.yul\":11247:11251   */\n      dup2\n        /* \"#utility.yul\":11243:11263   */\n      sub\n        /* \"#utility.yul\":11238:11240   */\n      0x60\n        /* \"#utility.yul\":11227:11236   */\n      dup4\n        /* \"#utility.yul\":11223:11241   */\n      add\n        /* \"#utility.yul\":11216:11264   */\n      mstore\n        /* \"#utility.yul\":11281:11367   */\n      tag_272\n        /* \"#utility.yul\":11362:11366   */\n      dup2\n        /* \"#utility.yul\":11353:11359   */\n      dup5\n        /* \"#utility.yul\":11345:11351   */\n      dup7\n        /* \"#utility.yul\":11281:11367   */\n      tag_141\n      jump\t// in\n    tag_272:\n        /* \"#utility.yul\":11273:11367   */\n      swap1\n      pop\n        /* \"#utility.yul\":10517:11374   */\n      swap6\n      swap5\n      pop\n      pop\n      pop\n      pop\n      pop\n      jump\t// out\n        /* \"#utility.yul\":11380:11594   */\n    tag_160:\n        /* \"#utility.yul\":11520:11586   */\n      0xe5bf85e9a1bbe4b88be5b19ee6898de883bde8afb40000000000000000000000\n        /* \"#utility.yul\":11516:11517   */\n      0x00\n        /* \"#utility.yul\":11508:11514   */\n      dup3\n        /* \"#utility.yul\":11504:11518   */\n      add\n        /* \"#utility.yul\":11497:11587   */\n      mstore\n        /* \"#utility.yul\":11380:11594   */\n      pop\n      jump\t// out\n        /* \"#utility.yul\":11600:11966   */\n    tag_161:\n        /* \"#utility.yul\":11742:11745   */\n      0x00\n        /* \"#utility.yul\":11763:11830   */\n      tag_275\n        /* \"#utility.yul\":11827:11829   */\n      0x15\n        /* \"#utility.yul\":11822:11825   */\n      dup4\n        /* \"#utility.yul\":11763:11830   */\n      tag_126\n      jump\t// in\n    tag_275:\n        /* \"#utility.yul\":11756:11830   */\n      swap2\n      pop\n        /* \"#utility.yul\":11839:11932   */\n      tag_276\n        /* \"#utility.yul\":11928:11931   */\n      dup3\n        /* \"#utility.yul\":11839:11932   */\n      tag_160\n      jump\t// in\n    tag_276:\n        /* \"#utility.yul\":11957:11959   */\n      0x20\n        /* \"#utility.yul\":11952:11955   */\n      dup3\n        /* \"#utility.yul\":11948:11960   */\n      add\n        /* \"#utility.yul\":11941:11960   */\n      swap1\n      pop\n        /* \"#utility.yul\":11600:11966   */\n      swap2\n      swap1\n      pop\n      jump\t// out\n        /* \"#utility.yul\":11972:12391   */\n    tag_73:\n        /* \"#utility.yul\":12138:12142   */\n      0x00\n        /* \"#utility.yul\":12176:12178   */\n      0x20\n        /* \"#utility.yul\":12165:12174   */\n      dup3\n        /* \"#utility.yul\":12161:12179   */\n      add\n        /* \"#utility.yul\":12153:12179   */\n      swap1\n      pop\n        /* \"#utility.yul\":12225:12234   */\n      dup2\n        /* \"#utility.yul\":12219:12223   */\n      dup2\n        /* \"#utility.yul\":12215:12235   */\n      sub\n        /* \"#utility.yul\":12211:12212   */\n      0x00\n        /* \"#utility.yul\":12200:12209   */\n      dup4\n        /* \"#utility.yul\":12196:12213   */\n      add\n        /* \"#utility.yul\":12189:12236   */\n      mstore\n        /* \"#utility.yul\":12253:12384   */\n      tag_278\n        /* \"#utility.yul\":12379:12383   */\n      dup2\n        /* \"#utility.yul\":12253:12384   */\n      tag_161\n      jump\t// in\n    tag_278:\n        /* \"#utility.yul\":12245:12384   */\n      swap1\n      pop\n        /* \"#utility.yul\":11972:12391   */\n      swap2\n      swap1\n      pop\n      jump\t// out\n        /* \"#utility.yul\":12397:12611   */\n    tag_162:\n        /* \"#utility.yul\":12537:12603   */\n      0xe5bf85e9a1bbe8afb4efbc9ae4b8bae4babae6b091e69c8de58aa10000000000\n        /* \"#utility.yul\":12533:12534   */\n      0x00\n        /* \"#utility.yul\":12525:12531   */\n      dup3\n        /* \"#utility.yul\":12521:12535   */\n      add\n        /* \"#utility.yul\":12514:12604   */\n      mstore\n        /* \"#utility.yul\":12397:12611   */\n      pop\n      jump\t// out\n        /* \"#utility.yul\":12617:12983   */\n    tag_163:\n        /* \"#utility.yul\":12759:12762   */\n      0x00\n        /* \"#utility.yul\":12780:12847   */\n      tag_281\n        /* \"#utility.yul\":12844:12846   */\n      0x1b\n        /* \"#utility.yul\":12839:12842   */\n      dup4\n        /* \"#utility.yul\":12780:12847   */\n      tag_126\n      jump\t// in\n    tag_281:\n        /* \"#utility.yul\":12773:12847   */\n      swap2\n      pop\n        /* \"#utility.yul\":12856:12949   */\n      tag_282\n        /* \"#utility.yul\":12945:12948   */\n      dup3\n        /* \"#utility.yul\":12856:12949   */\n      tag_162\n      jump\t// in\n    tag_282:\n        /* \"#utility.yul\":12974:12976   */\n      0x20\n        /* \"#utility.yul\":12969:12972   */\n      dup3\n        /* \"#utility.yul\":12965:12977   */\n      add\n        /* \"#utility.yul\":12958:12977   */\n      swap1\n      pop\n        /* \"#utility.yul\":12617:12983   */\n      swap2\n      swap1\n      pop\n      jump\t// out\n        /* \"#utility.yul\":12989:13408   */\n    tag_81:\n        /* \"#utility.yul\":13155:13159   */\n      0x00\n        /* \"#utility.yul\":13193:13195   */\n      0x20\n        /* \"#utility.yul\":13182:13191   */\n      dup3\n        /* \"#utility.yul\":13178:13196   */\n      add\n        /* \"#utility.yul\":13170:13196   */\n      swap1\n      pop\n        /* \"#utility.yul\":13242:13251   */\n      dup2\n        /* \"#utility.yul\":13236:13240   */\n      dup2\n        /* \"#utility.yul\":13232:13252   */\n      sub\n        /* \"#utility.yul\":13228:13229   */\n      0x00\n        /* \"#utility.yul\":13217:13226   */\n      dup4\n        /* \"#utility.yul\":13213:13230   */\n      add\n        /* \"#utility.yul\":13206:13253   */\n      mstore\n        /* \"#utility.yul\":13270:13401   */\n      tag_284\n        /* \"#utility.yul\":13396:13400   */\n      dup2\n        /* \"#utility.yul\":13270:13401   */\n      tag_163\n      jump\t// in\n    tag_284:\n        /* \"#utility.yul\":13262:13401   */\n      swap1\n      pop\n        /* \"#utility.yul\":12989:13408   */\n      swap2\n      swap1\n      pop\n      jump\t// out\n        /* \"#utility.yul\":13414:13628   */\n    tag_164:\n        /* \"#utility.yul\":13554:13620   */\n      0xe5bf85e9a1bbe8afb4efbc9ae5908ce5bf97e4bbace8be9be88ba6e4ba860000\n        /* \"#utility.yul\":13550:13551   */\n      0x00\n        /* \"#utility.yul\":13542:13548   */\n      dup3\n        /* \"#utility.yul\":13538:13552   */\n      add\n        /* \"#utility.yul\":13531:13621   */\n      mstore\n        /* \"#utility.yul\":13414:13628   */\n      pop\n      jump\t// out\n        /* \"#utility.yul\":13634:14000   */\n    tag_165:\n        /* \"#utility.yul\":13776:13779   */\n      0x00\n        /* \"#utility.yul\":13797:13864   */\n      tag_287\n        /* \"#utility.yul\":13861:13863   */\n      0x1e\n        /* \"#utility.yul\":13856:13859   */\n      dup4\n        /* \"#utility.yul\":13797:13864   */\n      tag_126\n      jump\t// in\n    tag_287:\n        /* \"#utility.yul\":13790:13864   */\n      swap2\n      pop\n        /* \"#utility.yul\":13873:13966   */\n      tag_288\n        /* \"#utility.yul\":13962:13965   */\n      dup3\n        /* \"#utility.yul\":13873:13966   */\n      tag_164\n      jump\t// in\n    tag_288:\n        /* \"#utility.yul\":13991:13993   */\n      0x20\n        /* \"#utility.yul\":13986:13989   */\n      dup3\n        /* \"#utility.yul\":13982:13994   */\n      add\n        /* \"#utility.yul\":13975:13994   */\n      swap1\n      pop\n        /* \"#utility.yul\":13634:14000   */\n      swap2\n      swap1\n      pop\n      jump\t// out\n        /* \"#utility.yul\":14006:14425   */\n    tag_92:\n        /* \"#utility.yul\":14172:14176   */\n      0x00\n        /* \"#utility.yul\":14210:14212   */\n      0x20\n        /* \"#utility.yul\":14199:14208   */\n      dup3\n        /* \"#utility.yul\":14195:14213   */\n      add\n        /* \"#utility.yul\":14187:14213   */\n      swap1\n      pop\n        /* \"#utility.yul\":14259:14268   */\n      dup2\n        /* \"#utility.yul\":14253:14257   */\n      dup2\n        /* \"#utility.yul\":14249:14269   */\n      sub\n        /* \"#utility.yul\":14245:14246   */\n      0x00\n        /* \"#utility.yul\":14234:14243   */\n      dup4\n        /* \"#utility.yul\":14230:14247   */\n      add\n        /* \"#utility.yul\":14223:14270   */\n      mstore\n        /* \"#utility.yul\":14287:14418   */\n      tag_290\n        /* \"#utility.yul\":14413:14417   */\n      dup2\n        /* \"#utility.yul\":14287:14418   */\n      tag_165\n      jump\t// in\n    tag_290:\n        /* \"#utility.yul\":14279:14418   */\n      swap1\n      pop\n        /* \"#utility.yul\":14006:14425   */\n      swap2\n      swap1\n      pop\n      jump\t// out\n        /* \"#utility.yul\":14431:14746   */\n    tag_166:\n        /* \"#utility.yul\":14571:14637   */\n      0xe7bb99e992b1efbc81efbc81efbc81e69c80e5b091e7bb9932e4b8aae4bba5e5\n        /* \"#utility.yul\":14567:14568   */\n      0x00\n        /* \"#utility.yul\":14559:14565   */\n      dup3\n        /* \"#utility.yul\":14555:14569   */\n      add\n        /* \"#utility.yul\":14548:14638   */\n      mstore\n        /* \"#utility.yul\":14672:14738   */\n      0xa4aae5b881efbc81000000000000000000000000000000000000000000000000\n        /* \"#utility.yul\":14667:14669   */\n      0x20\n        /* \"#utility.yul\":14659:14665   */\n      dup3\n        /* \"#utility.yul\":14655:14670   */\n      add\n        /* \"#utility.yul\":14648:14739   */\n      mstore\n        /* \"#utility.yul\":14431:14746   */\n      pop\n      jump\t// out\n        /* \"#utility.yul\":14752:15118   */\n    tag_167:\n        /* \"#utility.yul\":14894:14897   */\n      0x00\n        /* \"#utility.yul\":14915:14982   */\n      tag_293\n        /* \"#utility.yul\":14979:14981   */\n      0x28\n        /* \"#utility.yul\":14974:14977   */\n      dup4\n        /* \"#utility.yul\":14915:14982   */\n      tag_126\n      jump\t// in\n    tag_293:\n        /* \"#utility.yul\":14908:14982   */\n      swap2\n      pop\n        /* \"#utility.yul\":14991:15084   */\n      tag_294\n        /* \"#utility.yul\":15080:15083   */\n      dup3\n        /* \"#utility.yul\":14991:15084   */\n      tag_166\n      jump\t// in\n    tag_294:\n        /* \"#utility.yul\":15109:15111   */\n      0x40\n        /* \"#utility.yul\":15104:15107   */\n      dup3\n        /* \"#utility.yul\":15100:15112   */\n      add\n        /* \"#utility.yul\":15093:15112   */\n      swap1\n      pop\n        /* \"#utility.yul\":14752:15118   */\n      swap2\n      swap1\n      pop\n      jump\t// out\n        /* \"#utility.yul\":15124:15543   */\n    tag_95:\n        /* \"#utility.yul\":15290:15294   */\n      0x00\n        /* \"#utility.yul\":15328:15330   */\n      0x20\n        /* \"#utility.yul\":15317:15326   */\n      dup3\n        /* \"#utility.yul\":15313:15331   */\n      add\n        /* \"#utility.yul\":15305:15331   */\n      swap1\n      pop\n        /* \"#utility.yul\":15377:15386   */\n      dup2\n        /* \"#utility.yul\":15371:15375   */\n      dup2\n        /* \"#utility.yul\":15367:15387   */\n      sub\n        /* \"#utility.yul\":15363:15364   */\n      0x00\n        /* \"#utility.yul\":15352:15361   */\n      dup4\n        /* \"#utility.yul\":15348:15365   */\n      add\n        /* \"#utility.yul\":15341:15388   */\n      mstore\n        /* \"#utility.yul\":15405:15536   */\n      tag_296\n        /* \"#utility.yul\":15531:15535   */\n      dup2\n        /* \"#utility.yul\":15405:15536   */\n      tag_167\n      jump\t// in\n    tag_296:\n        /* \"#utility.yul\":15397:15536   */\n      swap1\n      pop\n        /* \"#utility.yul\":15124:15543   */\n      swap2\n      swap1\n      pop\n      jump\t// out\n        /* \"#utility.yul\":15549:15706   */\n    tag_168:\n        /* \"#utility.yul\":15689:15698   */\n      0x636f6d666f727400000000000000000000000000000000000000000000000000\n        /* \"#utility.yul\":15685:15686   */\n      0x00\n        /* \"#utility.yul\":15677:15683   */\n      dup3\n        /* \"#utility.yul\":15673:15687   */\n      add\n        /* \"#utility.yul\":15666:15699   */\n      mstore\n        /* \"#utility.yul\":15549:15706   */\n      pop\n      jump\t// out\n        /* \"#utility.yul\":15712:16077   */\n    tag_169:\n        /* \"#utility.yul\":15854:15857   */\n      0x00\n        /* \"#utility.yul\":15875:15941   */\n      tag_299\n        /* \"#utility.yul\":15939:15940   */\n      0x07\n        /* \"#utility.yul\":15934:15937   */\n      dup4\n        /* \"#utility.yul\":15875:15941   */\n      tag_126\n      jump\t// in\n    tag_299:\n        /* \"#utility.yul\":15868:15941   */\n      swap2\n      pop\n        /* \"#utility.yul\":15950:16043   */\n      tag_300\n        /* \"#utility.yul\":16039:16042   */\n      dup3\n        /* \"#utility.yul\":15950:16043   */\n      tag_168\n      jump\t// in\n    tag_300:\n        /* \"#utility.yul\":16068:16070   */\n      0x20\n        /* \"#utility.yul\":16063:16066   */\n      dup3\n        /* \"#utility.yul\":16059:16071   */\n      add\n        /* \"#utility.yul\":16052:16071   */\n      swap1\n      pop\n        /* \"#utility.yul\":15712:16077   */\n      swap2\n      swap1\n      pop\n      jump\t// out\n        /* \"#utility.yul\":16083:16940   */\n    tag_98:\n        /* \"#utility.yul\":16361:16365   */\n      0x00\n        /* \"#utility.yul\":16399:16402   */\n      0x80\n        /* \"#utility.yul\":16388:16397   */\n      dup3\n        /* \"#utility.yul\":16384:16403   */\n      add\n        /* \"#utility.yul\":16376:16403   */\n      swap1\n      pop\n        /* \"#utility.yul\":16449:16458   */\n      dup2\n        /* \"#utility.yul\":16443:16447   */\n      dup2\n        /* \"#utility.yul\":16439:16459   */\n      sub\n        /* \"#utility.yul\":16435:16436   */\n      0x00\n        /* \"#utility.yul\":16424:16433   */\n      dup4\n        /* \"#utility.yul\":16420:16437   */\n      add\n        /* \"#utility.yul\":16413:16460   */\n      mstore\n        /* \"#utility.yul\":16477:16608   */\n      tag_302\n        /* \"#utility.yul\":16603:16607   */\n      dup2\n        /* \"#utility.yul\":16477:16608   */\n      tag_169\n      jump\t// in\n    tag_302:\n        /* \"#utility.yul\":16469:16608   */\n      swap1\n      pop\n        /* \"#utility.yul\":16618:16690   */\n      tag_303\n        /* \"#utility.yul\":16686:16688   */\n      0x20\n        /* \"#utility.yul\":16675:16684   */\n      dup4\n        /* \"#utility.yul\":16671:16689   */\n      add\n        /* \"#utility.yul\":16662:16668   */\n      dup8\n        /* \"#utility.yul\":16618:16690   */\n      tag_131\n      jump\t// in\n    tag_303:\n        /* \"#utility.yul\":16700:16772   */\n      tag_304\n        /* \"#utility.yul\":16768:16770   */\n      0x40\n        /* \"#utility.yul\":16757:16766   */\n      dup4\n        /* \"#utility.yul\":16753:16771   */\n      add\n        /* \"#utility.yul\":16744:16750   */\n      dup7\n        /* \"#utility.yul\":16700:16772   */\n      tag_133\n      jump\t// in\n    tag_304:\n        /* \"#utility.yul\":16819:16828   */\n      dup2\n        /* \"#utility.yul\":16813:16817   */\n      dup2\n        /* \"#utility.yul\":16809:16829   */\n      sub\n        /* \"#utility.yul\":16804:16806   */\n      0x60\n        /* \"#utility.yul\":16793:16802   */\n      dup4\n        /* \"#utility.yul\":16789:16807   */\n      add\n        /* \"#utility.yul\":16782:16830   */\n      mstore\n        /* \"#utility.yul\":16847:16933   */\n      tag_305\n        /* \"#utility.yul\":16928:16932   */\n      dup2\n        /* \"#utility.yul\":16919:16925   */\n      dup5\n        /* \"#utility.yul\":16911:16917   */\n      dup7\n        /* \"#utility.yul\":16847:16933   */\n      tag_141\n      jump\t// in\n    tag_305:\n        /* \"#utility.yul\":16839:16933   */\n      swap1\n      pop\n        /* \"#utility.yul\":16083:16940   */\n      swap6\n      swap5\n      pop\n      pop\n      pop\n      pop\n      pop\n      jump\t// out\n        /* \"#utility.yul\":16946:17160   */\n    tag_170:\n        /* \"#utility.yul\":17086:17152   */\n      0xe5bf85e9a1bbe8afb4efbc9ae5908ce5bf97e4bbace5a5bdefbc810000000000\n        /* \"#utility.yul\":17082:17083   */\n      0x00\n        /* \"#utility.yul\":17074:17080   */\n      dup3\n        /* \"#utility.yul\":17070:17084   */\n      add\n        /* \"#utility.yul\":17063:17153   */\n      mstore\n        /* \"#utility.yul\":16946:17160   */\n      pop\n      jump\t// out\n        /* \"#utility.yul\":17166:17532   */\n    tag_171:\n        /* \"#utility.yul\":17308:17311   */\n      0x00\n        /* \"#utility.yul\":17329:17396   */\n      tag_308\n        /* \"#utility.yul\":17393:17395   */\n      0x1b\n        /* \"#utility.yul\":17388:17391   */\n      dup4\n        /* \"#utility.yul\":17329:17396   */\n      tag_126\n      jump\t// in\n    tag_308:\n        /* \"#utility.yul\":17322:17396   */\n      swap2\n      pop\n        /* \"#utility.yul\":17405:17498   */\n      tag_309\n        /* \"#utility.yul\":17494:17497   */\n      dup3\n        /* \"#utility.yul\":17405:17498   */\n      tag_170\n      jump\t// in\n    tag_309:\n        /* \"#utility.yul\":17523:17525   */\n      0x20\n        /* \"#utility.yul\":17518:17521   */\n      dup3\n        /* \"#utility.yul\":17514:17526   */\n      add\n        /* \"#utility.yul\":17507:17526   */\n      swap1\n      pop\n        /* \"#utility.yul\":17166:17532   */\n      swap2\n      swap1\n      pop\n      jump\t// out\n        /* \"#utility.yul\":17538:17957   */\n    tag_108:\n        /* \"#utility.yul\":17704:17708   */\n      0x00\n        /* \"#utility.yul\":17742:17744   */\n      0x20\n        /* \"#utility.yul\":17731:17740   */\n      dup3\n        /* \"#utility.yul\":17727:17745   */\n      add\n        /* \"#utility.yul\":17719:17745   */\n      swap1\n      pop\n        /* \"#utility.yul\":17791:17800   */\n      dup2\n        /* \"#utility.yul\":17785:17789   */\n      dup2\n        /* \"#utility.yul\":17781:17801   */\n      sub\n        /* \"#utility.yul\":17777:17778   */\n      0x00\n        /* \"#utility.yul\":17766:17775   */\n      dup4\n        /* \"#utility.yul\":17762:17779   */\n      add\n        /* \"#utility.yul\":17755:17802   */\n      mstore\n        /* \"#utility.yul\":17819:17950   */\n      tag_311\n        /* \"#utility.yul\":17945:17949   */\n      dup2\n        /* \"#utility.yul\":17819:17950   */\n      tag_171\n      jump\t// in\n    tag_311:\n        /* \"#utility.yul\":17811:17950   */\n      swap1\n      pop\n        /* \"#utility.yul\":17538:17957   */\n      swap2\n      swap1\n      pop\n      jump\t// out\n        /* \"#utility.yul\":17963:18177   */\n    tag_172:\n        /* \"#utility.yul\":18103:18169   */\n      0xe5bf85e9a1bbe8afb4efbc9ae9a286e5afbce5a5bd0000000000000000000000\n        /* \"#utility.yul\":18099:18100   */\n      0x00\n        /* \"#utility.yul\":18091:18097   */\n      dup3\n        /* \"#utility.yul\":18087:18101   */\n      add\n        /* \"#utility.yul\":18080:18170   */\n      mstore\n        /* \"#utility.yul\":17963:18177   */\n      pop\n      jump\t// out\n        /* \"#utility.yul\":18183:18549   */\n    tag_173:\n        /* \"#utility.yul\":18325:18328   */\n      0x00\n        /* \"#utility.yul\":18346:18413   */\n      tag_314\n        /* \"#utility.yul\":18410:18412   */\n      0x15\n        /* \"#utility.yul\":18405:18408   */\n      dup4\n        /* \"#utility.yul\":18346:18413   */\n      tag_126\n      jump\t// in\n    tag_314:\n        /* \"#utility.yul\":18339:18413   */\n      swap2\n      pop\n        /* \"#utility.yul\":18422:18515   */\n      tag_315\n        /* \"#utility.yul\":18511:18514   */\n      dup3\n        /* \"#utility.yul\":18422:18515   */\n      tag_172\n      jump\t// in\n    tag_315:\n        /* \"#utility.yul\":18540:18542   */\n      0x20\n        /* \"#utility.yul\":18535:18538   */\n      dup3\n        /* \"#utility.yul\":18531:18543   */\n      add\n        /* \"#utility.yul\":18524:18543   */\n      swap1\n      pop\n        /* \"#utility.yul\":18183:18549   */\n      swap2\n      swap1\n      pop\n      jump\t// out\n        /* \"#utility.yul\":18555:18974   */\n    tag_119:\n        /* \"#utility.yul\":18721:18725   */\n      0x00\n        /* \"#utility.yul\":18759:18761   */\n      0x20\n        /* \"#utility.yul\":18748:18757   */\n      dup3\n        /* \"#utility.yul\":18744:18762   */\n      add\n        /* \"#utility.yul\":18736:18762   */\n      swap1\n      pop\n        /* \"#utility.yul\":18808:18817   */\n      dup2\n        /* \"#utility.yul\":18802:18806   */\n      dup2\n        /* \"#utility.yul\":18798:18818   */\n      sub\n        /* \"#utility.yul\":18794:18795   */\n      0x00\n        /* \"#utility.yul\":18783:18792   */\n      dup4\n        /* \"#utility.yul\":18779:18796   */\n      add\n        /* \"#utility.yul\":18772:18819   */\n      mstore\n        /* \"#utility.yul\":18836:18967   */\n      tag_317\n        /* \"#utility.yul\":18962:18966   */\n      dup2\n        /* \"#utility.yul\":18836:18967   */\n      tag_173\n      jump\t// in\n    tag_317:\n        /* \"#utility.yul\":18828:18967   */\n      swap1\n      pop\n        /* \"#utility.yul\":18555:18974   */\n      swap2\n      swap1\n      pop\n      jump\t// out\n        /* \"#utility.yul\":18980:19128   */\n    tag_174:\n        /* \"#utility.yul\":19082:19093   */\n      0x00\n        /* \"#utility.yul\":19119:19122   */\n      dup2\n        /* \"#utility.yul\":19104:19122   */\n      swap1\n      pop\n        /* \"#utility.yul\":18980:19128   */\n      swap3\n      swap2\n      pop\n      pop\n      jump\t// out\n        /* \"#utility.yul\":19134:19524   */\n    tag_175:\n        /* \"#utility.yul\":19240:19243   */\n      0x00\n        /* \"#utility.yul\":19268:19307   */\n      tag_320\n        /* \"#utility.yul\":19301:19306   */\n      dup3\n        /* \"#utility.yul\":19268:19307   */\n      tag_155\n      jump\t// in\n    tag_320:\n        /* \"#utility.yul\":19323:19412   */\n      tag_321\n        /* \"#utility.yul\":19405:19411   */\n      dup2\n        /* \"#utility.yul\":19400:19403   */\n      dup6\n        /* \"#utility.yul\":19323:19412   */\n      tag_174\n      jump\t// in\n    tag_321:\n        /* \"#utility.yul\":19316:19412   */\n      swap4\n      pop\n        /* \"#utility.yul\":19421:19486   */\n      tag_322\n        /* \"#utility.yul\":19479:19485   */\n      dup2\n        /* \"#utility.yul\":19474:19477   */\n      dup6\n        /* \"#utility.yul\":19467:19471   */\n      0x20\n        /* \"#utility.yul\":19460:19465   */\n      dup7\n        /* \"#utility.yul\":19456:19472   */\n      add\n        /* \"#utility.yul\":19421:19486   */\n      tag_156\n      jump\t// in\n    tag_322:\n        /* \"#utility.yul\":19511:19517   */\n      dup1\n        /* \"#utility.yul\":19506:19509   */\n      dup5\n        /* \"#utility.yul\":19502:19518   */\n      add\n        /* \"#utility.yul\":19495:19518   */\n      swap2\n      pop\n        /* \"#utility.yul\":19244:19524   */\n      pop\n        /* \"#utility.yul\":19134:19524   */\n      swap3\n      swap2\n      pop\n      pop\n      jump\t// out\n        /* \"#utility.yul\":19530:19805   */\n    tag_123:\n        /* \"#utility.yul\":19662:19665   */\n      0x00\n        /* \"#utility.yul\":19684:19779   */\n      tag_324\n        /* \"#utility.yul\":19775:19778   */\n      dup3\n        /* \"#utility.yul\":19766:19772   */\n      dup5\n        /* \"#utility.yul\":19684:19779   */\n      tag_175\n      jump\t// in\n    tag_324:\n        /* \"#utility.yul\":19677:19779   */\n      swap2\n      pop\n        /* \"#utility.yul\":19796:19799   */\n      dup2\n        /* \"#utility.yul\":19789:19799   */\n      swap1\n      pop\n        /* \"#utility.yul\":19530:19805   */\n      swap3\n      swap2\n      pop\n      pop\n      jump\t// out\n        /* \"#utility.yul\":19835:20165   */\n    tag_176:\n        /* \"#utility.yul\":19951:19954   */\n      0x00\n        /* \"#utility.yul\":19972:20061   */\n      tag_326\n        /* \"#utility.yul\":20054:20060   */\n      dup4\n        /* \"#utility.yul\":20049:20052   */\n      dup6\n        /* \"#utility.yul\":19972:20061   */\n      tag_174\n      jump\t// in\n    tag_326:\n        /* \"#utility.yul\":19965:20061   */\n      swap4\n      pop\n        /* \"#utility.yul\":20071:20127   */\n      tag_327\n        /* \"#utility.yul\":20120:20126   */\n      dup4\n        /* \"#utility.yul\":20115:20118   */\n      dup6\n        /* \"#utility.yul\":20108:20113   */\n      dup5\n        /* \"#utility.yul\":20071:20127   */\n      tag_139\n      jump\t// in\n    tag_327:\n        /* \"#utility.yul\":20152:20158   */\n      dup3\n        /* \"#utility.yul\":20147:20150   */\n      dup5\n        /* \"#utility.yul\":20143:20159   */\n      add\n        /* \"#utility.yul\":20136:20159   */\n      swap1\n      pop\n        /* \"#utility.yul\":19835:20165   */\n      swap4\n      swap3\n      pop\n      pop\n      pop\n      jump\t// out\n        /* \"#utility.yul\":20171:20466   */\n    tag_125:\n        /* \"#utility.yul\":20313:20316   */\n      0x00\n        /* \"#utility.yul\":20335:20440   */\n      tag_329\n        /* \"#utility.yul\":20436:20439   */\n      dup3\n        /* \"#utility.yul\":20427:20433   */\n      dup5\n        /* \"#utility.yul\":20419:20425   */\n      dup7\n        /* \"#utility.yul\":20335:20440   */\n      tag_176\n      jump\t// in\n    tag_329:\n        /* \"#utility.yul\":20328:20440   */\n      swap2\n      pop\n        /* \"#utility.yul\":20457:20460   */\n      dup2\n        /* \"#utility.yul\":20450:20460   */\n      swap1\n      pop\n        /* \"#utility.yul\":20171:20466   */\n      swap4\n      swap3\n      pop\n      pop\n      pop\n      jump\t// out\n    stop\n    data_e59595aa94ca69af78431ccd6bc64acf773ff99592b71b52f8e1b76c84a22987 e68891e4b88de79fa5e98193e5a682e4bd95e5a484e79086e5ae83efbc8ce4bda0e689bee69c89e585b3e983a8e997a8e590a7efbc81\n\n    auxdata: 0xa264697066735822122000fbd36e2299db3c475d9f0f1dadb6d80100e3d989e50e9ce91b57595d25bf8164736f6c634300081a0033\n}\n",
				"bytecode": {
					"linkReferences": {},
					"object": "60a06040525f805f6101000a81548160ff021916908360ff160217905550348015610028575f80fd5b5060405161179d38038061179d833981810160405281019061004a9190610150565b5f73ffffffffffffffffffffffffffffffffffffffff168173ffffffffffffffffffffffffffffffffffffffff16036100b8576040517f08c379a00000000000000000000000000000000000000000000000000000000081526004016100af906101d5565b60405180910390fd5b8073ffffffffffffffffffffffffffffffffffffffff1660808173ffffffffffffffffffffffffffffffffffffffff1681525050506101f3565b5f80fd5b5f73ffffffffffffffffffffffffffffffffffffffff82169050919050565b5f61011f826100f6565b9050919050565b61012f81610115565b8114610139575f80fd5b50565b5f8151905061014a81610126565b92915050565b5f60208284031215610165576101646100f2565b5b5f6101728482850161013c565b91505092915050565b5f82825260208201905092915050565b7f696e76616c6964206164647265737321000000000000000000000000000000005f82015250565b5f6101bf60108361017b565b91506101ca8261018b565b602082019050919050565b5f6020820190508181035f8301526101ec816101b3565b9050919050565b60805161156f61022e5f395f8181610287015281816103d7015281816103fc015281816105dd015281816108460152610a37015261156f5ff3fe60806040526004361061007e575f3560e01c80638c85d6791161004d5780638c85d679146101ab578063a777d0dc146101db578063e25fe17514610217578063e3b4995914610241576100be565b806312065fe0146100fd5780632b68b9c61461012757806340eedabb146101455780638ab9e66d1461016f576100be565b366100be577ff7f75251dee7d7fc22deac3247729ebe7c86541f35930bf10c2a4207479a3b6c33346040516100b4929190610d54565b60405180910390a1005b7ff7f75251dee7d7fc22deac3247729ebe7c86541f35930bf10c2a4207479a3b6c33345f366040516100f39493929190610e35565b60405180910390a1005b348015610108575f80fd5b5061011161027d565b60405161011e9190610e86565b60405180910390f35b61012f610284565b60405161013c9190610eb9565b60405180910390f35b348015610150575f80fd5b506101596103d5565b6040516101669190610ed2565b60405180910390f35b34801561017a575f80fd5b5061019560048036038101906101909190610f54565b6103f9565b6040516101a29190610eb9565b60405180910390f35b6101c560048036038101906101c09190610f54565b6105da565b6040516101d29190610eb9565b60405180910390f35b3480156101e6575f80fd5b5061020160048036038101906101fc9190610f54565b610843565b60405161020e9190610eb9565b60405180910390f35b348015610222575f80fd5b5061022b610a24565b6040516102389190610fba565b60405180910390f35b34801561024c575f80fd5b5061026760048036038101906102629190610f54565b610a34565b6040516102749190610eb9565b60405180910390f35b5f47905090565b5f7f000000000000000000000000000000000000000000000000000000000000000073ffffffffffffffffffffffffffffffffffffffff163373ffffffffffffffffffffffffffffffffffffffff1614610313576040517f08c379a000000000000000000000000000000000000000000000000000000000815260040161030a9061101d565b60405180910390fd5b60045f8054906101000a900460ff1660ff161461037f57604051806060016040528060368152602001611504603691396040517f08c379a0000000000000000000000000000000000000000000000000000000008152600401610376919061108b565b60405180910390fd5b7ff7f75251dee7d7fc22deac3247729ebe7c86541f35930bf10c2a4207479a3b6c33475f366040516103b494939291906110f5565b60405180910390a13373ffffffffffffffffffffffffffffffffffffffff16ff5b7f000000000000000000000000000000000000000000000000000000000000000081565b5f7f000000000000000000000000000000000000000000000000000000000000000073ffffffffffffffffffffffffffffffffffffffff163373ffffffffffffffffffffffffffffffffffffffff1603610488576040517f08c379a000000000000000000000000000000000000000000000000000000000815260040161047f90611190565b60405180910390fd5b60035f8054906101000a900460ff1660ff16146104f457604051806060016040528060368152602001611504603691396040517f08c379a00000000000000000000000000000000000000000000000000000000081526004016104eb919061108b565b60405180910390fd5b61053483836040518060400160405280600f81526020017fe4b8bae4babae6b091e69c8de58aa10000000000000000000000000000000000815250610c15565b610573576040517f8b3d2d4300000000000000000000000000000000000000000000000000000000815260040161056a906111f8565b60405180910390fd5b60045f806101000a81548160ff021916908360ff1602179055507ff39143d48d073ee18f9a08fcabdbd340be0b2a698e3e45fc3b4318251131b4fc5f8054906101000a900460ff166040516105c89190610fba565b60405180910390a16001905092915050565b5f7f000000000000000000000000000000000000000000000000000000000000000073ffffffffffffffffffffffffffffffffffffffff163373ffffffffffffffffffffffffffffffffffffffff1614610669576040517f08c379a00000000000000000000000000000000000000000000000000000000081526004016106609061101d565b60405180910390fd5b60025f8054906101000a900460ff1660ff16146106d557604051806060016040528060368152602001611504603691396040517f08c379a00000000000000000000000000000000000000000000000000000000081526004016106cc919061108b565b60405180910390fd5b61071583836040518060400160405280601281526020017fe5908ce5bf97e4bbace8be9be88ba6e4ba860000000000000000000000000000815250610c15565b610754576040517f8b3d2d4300000000000000000000000000000000000000000000000000000000815260040161074b90611260565b60405180910390fd5b671bc16d674ec8000034101561079f576040517f8b3d2d43000000000000000000000000000000000000000000000000000000008152600401610796906112ee565b60405180910390fd5b60035f806101000a81548160ff021916908360ff1602179055507ff39143d48d073ee18f9a08fcabdbd340be0b2a698e3e45fc3b4318251131b4fc5f8054906101000a900460ff166040516107f49190610fba565b60405180910390a17ff7f75251dee7d7fc22deac3247729ebe7c86541f35930bf10c2a4207479a3b6c33345f366040516108319493929190611356565b60405180910390a16001905092915050565b5f7f000000000000000000000000000000000000000000000000000000000000000073ffffffffffffffffffffffffffffffffffffffff163373ffffffffffffffffffffffffffffffffffffffff16146108d2576040517f08c379a00000000000000000000000000000000000000000000000000000000081526004016108c99061101d565b60405180910390fd5b5f805f9054906101000a900460ff1660ff161461093e57604051806060016040528060368152602001611504603691396040517f08c379a0000000000000000000000000000000000000000000000000000000008152600401610935919061108b565b60405180910390fd5b61097e83836040518060400160405280600c81526020017fe5908ce5bf97e4bbace5a5bd0000000000000000000000000000000000000000815250610c15565b6109bd576040517f8b3d2d430000000000000000000000000000000000000000000000000000000081526004016109b4906113f1565b60405180910390fd5b60015f806101000a81548160ff021916908360ff1602179055507ff39143d48d073ee18f9a08fcabdbd340be0b2a698e3e45fc3b4318251131b4fc5f8054906101000a900460ff16604051610a129190610fba565b60405180910390a16001905092915050565b5f8054906101000a900460ff1681565b5f7f000000000000000000000000000000000000000000000000000000000000000073ffffffffffffffffffffffffffffffffffffffff163373ffffffffffffffffffffffffffffffffffffffff1603610ac3576040517f08c379a0000000000000000000000000000000000000000000000000000000008152600401610aba90611190565b60405180910390fd5b60015f8054906101000a900460ff1660ff1614610b2f57604051806060016040528060368152602001611504603691396040517f08c379a0000000000000000000000000000000000000000000000000000000008152600401610b26919061108b565b60405180910390fd5b610b6f83836040518060400160405280600981526020017fe9a286e5afbce5a5bd0000000000000000000000000000000000000000000000815250610c15565b610bae576040517f8b3d2d43000000000000000000000000000000000000000000000000000000008152600401610ba590611459565b60405180910390fd5b60025f806101000a81548160ff021916908360ff1602179055507ff39143d48d073ee18f9a08fcabdbd340be0b2a698e3e45fc3b4318251131b4fc5f8054906101000a900460ff16604051610c039190610fba565b60405180910390a16001905092915050565b5f81604051602001610c2791906114b1565b604051602081830303815290604052805190602001208484604051602001610c509291906114eb565b604051602081830303815290604052805190602001201490509392505050565b5f82825260208201905092915050565b7f72656365697665000000000000000000000000000000000000000000000000005f82015250565b5f610cb4600783610c70565b9150610cbf82610c80565b602082019050919050565b5f73ffffffffffffffffffffffffffffffffffffffff82169050919050565b5f610cf382610cca565b9050919050565b610d0381610ce9565b82525050565b5f819050919050565b610d1b81610d09565b82525050565b5f82825260208201905092915050565b50565b5f610d3f5f83610d21565b9150610d4a82610d31565b5f82019050919050565b5f6080820190508181035f830152610d6b81610ca8565b9050610d7a6020830185610cfa565b610d876040830184610d12565b8181036060830152610d9881610d34565b90509392505050565b7f66616c6c6261636b0000000000000000000000000000000000000000000000005f82015250565b5f610dd5600883610c70565b9150610de082610da1565b602082019050919050565b828183375f83830152505050565b5f601f19601f8301169050919050565b5f610e148385610d21565b9350610e21838584610deb565b610e2a83610df9565b840190509392505050565b5f6080820190508181035f830152610e4c81610dc9565b9050610e5b6020830187610cfa565b610e686040830186610d12565b8181036060830152610e7b818486610e09565b905095945050505050565b5f602082019050610e995f830184610d12565b92915050565b5f8115159050919050565b610eb381610e9f565b82525050565b5f602082019050610ecc5f830184610eaa565b92915050565b5f602082019050610ee55f830184610cfa565b92915050565b5f80fd5b5f80fd5b5f80fd5b5f80fd5b5f80fd5b5f8083601f840112610f1457610f13610ef3565b5b8235905067ffffffffffffffff811115610f3157610f30610ef7565b5b602083019150836001820283011115610f4d57610f4c610efb565b5b9250929050565b5f8060208385031215610f6a57610f69610eeb565b5b5f83013567ffffffffffffffff811115610f8757610f86610eef565b5b610f9385828601610eff565b92509250509250929050565b5f60ff82169050919050565b610fb481610f9f565b82525050565b5f602082019050610fcd5f830184610fab565b92915050565b7fe5bf85e9a1bbe9a286e5afbce6898de883bde8afb400000000000000000000005f82015250565b5f611007601583610c70565b915061101282610fd3565b602082019050919050565b5f6020820190508181035f83015261103481610ffb565b9050919050565b5f81519050919050565b8281835e5f83830152505050565b5f61105d8261103b565b6110678185610c70565b9350611077818560208601611045565b61108081610df9565b840191505092915050565b5f6020820190508181035f8301526110a38184611053565b905092915050565b7f64657374727563740000000000000000000000000000000000000000000000005f82015250565b5f6110df600883610c70565b91506110ea826110ab565b602082019050919050565b5f6080820190508181035f83015261110c816110d3565b905061111b6020830187610cfa565b6111286040830186610d12565b818103606083015261113b818486610e09565b905095945050505050565b7fe5bf85e9a1bbe4b88be5b19ee6898de883bde8afb400000000000000000000005f82015250565b5f61117a601583610c70565b915061118582611146565b602082019050919050565b5f6020820190508181035f8301526111a78161116e565b9050919050565b7fe5bf85e9a1bbe8afb4efbc9ae4b8bae4babae6b091e69c8de58aa100000000005f82015250565b5f6111e2601b83610c70565b91506111ed826111ae565b602082019050919050565b5f6020820190508181035f83015261120f816111d6565b9050919050565b7fe5bf85e9a1bbe8afb4efbc9ae5908ce5bf97e4bbace8be9be88ba6e4ba8600005f82015250565b5f61124a601e83610c70565b915061125582611216565b602082019050919050565b5f6020820190508181035f8301526112778161123e565b9050919050565b7fe7bb99e992b1efbc81efbc81efbc81e69c80e5b091e7bb9932e4b8aae4bba5e55f8201527fa4aae5b881efbc81000000000000000000000000000000000000000000000000602082015250565b5f6112d8602883610c70565b91506112e38261127e565b604082019050919050565b5f6020820190508181035f830152611305816112cc565b9050919050565b7f636f6d666f7274000000000000000000000000000000000000000000000000005f82015250565b5f611340600783610c70565b915061134b8261130c565b602082019050919050565b5f6080820190508181035f83015261136d81611334565b905061137c6020830187610cfa565b6113896040830186610d12565b818103606083015261139c818486610e09565b905095945050505050565b7fe5bf85e9a1bbe8afb4efbc9ae5908ce5bf97e4bbace5a5bdefbc8100000000005f82015250565b5f6113db601b83610c70565b91506113e6826113a7565b602082019050919050565b5f6020820190508181035f830152611408816113cf565b9050919050565b7fe5bf85e9a1bbe8afb4efbc9ae9a286e5afbce5a5bd00000000000000000000005f82015250565b5f611443601583610c70565b915061144e8261140f565b602082019050919050565b5f6020820190508181035f83015261147081611437565b9050919050565b5f81905092915050565b5f61148b8261103b565b6114958185611477565b93506114a5818560208601611045565b80840191505092915050565b5f6114bc8284611481565b915081905092915050565b5f6114d28385611477565b93506114df838584610deb565b82840190509392505050565b5f6114f78284866114c7565b9150819050939250505056fee68891e4b88de79fa5e98193e5a682e4bd95e5a484e79086e5ae83efbc8ce4bda0e689bee69c89e585b3e983a8e997a8e590a7efbc81a264697066735822122000fbd36e2299db3c475d9f0f1dadb6d80100e3d989e50e9ce91b57595d25bf8164736f6c634300081a0033",
					"opcodes": "PUSH1 0xA0 PUSH1 0x40 MSTORE PUSH0 DUP1 PUSH0 PUSH2 0x100 EXP DUP2 SLOAD DUP2 PUSH1 0xFF MUL NOT AND SWAP1 DUP4 PUSH1 0xFF AND MUL OR SWAP1 SSTORE POP CALLVALUE DUP1 ISZERO PUSH2 0x28 JUMPI PUSH0 DUP1 REVERT JUMPDEST POP PUSH1 0x40 MLOAD PUSH2 0x179D CODESIZE SUB DUP1 PUSH2 0x179D DUP4 CODECOPY DUP2 DUP2 ADD PUSH1 0x40 MSTORE DUP2 ADD SWAP1 PUSH2 0x4A SWAP2 SWAP1 PUSH2 0x150 JUMP JUMPDEST PUSH0 PUSH20 0xFFFFFFFFFFFFFFFFFFFFFFFFFFFFFFFFFFFFFFFF AND DUP2 PUSH20 0xFFFFFFFFFFFFFFFFFFFFFFFFFFFFFFFFFFFFFFFF AND SUB PUSH2 0xB8 JUMPI PUSH1 0x40 MLOAD PUSH32 0x8C379A000000000000000000000000000000000000000000000000000000000 DUP2 MSTORE PUSH1 0x4 ADD PUSH2 0xAF SWAP1 PUSH2 0x1D5 JUMP JUMPDEST PUSH1 0x40 MLOAD DUP1 SWAP2 SUB SWAP1 REVERT JUMPDEST DUP1 PUSH20 0xFFFFFFFFFFFFFFFFFFFFFFFFFFFFFFFFFFFFFFFF AND PUSH1 0x80 DUP2 PUSH20 0xFFFFFFFFFFFFFFFFFFFFFFFFFFFFFFFFFFFFFFFF AND DUP2 MSTORE POP POP POP PUSH2 0x1F3 JUMP JUMPDEST PUSH0 DUP1 REVERT JUMPDEST PUSH0 PUSH20 0xFFFFFFFFFFFFFFFFFFFFFFFFFFFFFFFFFFFFFFFF DUP3 AND SWAP1 POP SWAP2 SWAP1 POP JUMP JUMPDEST PUSH0 PUSH2 0x11F DUP3 PUSH2 0xF6 JUMP JUMPDEST SWAP1 POP SWAP2 SWAP1 POP JUMP JUMPDEST PUSH2 0x12F DUP2 PUSH2 0x115 JUMP JUMPDEST DUP2 EQ PUSH2 0x139 JUMPI PUSH0 DUP1 REVERT JUMPDEST POP JUMP JUMPDEST PUSH0 DUP2 MLOAD SWAP1 POP PUSH2 0x14A DUP2 PUSH2 0x126 JUMP JUMPDEST SWAP3 SWAP2 POP POP JUMP JUMPDEST PUSH0 PUSH1 0x20 DUP3 DUP5 SUB SLT ISZERO PUSH2 0x165 JUMPI PUSH2 0x164 PUSH2 0xF2 JUMP JUMPDEST JUMPDEST PUSH0 PUSH2 0x172 DUP5 DUP3 DUP6 ADD PUSH2 0x13C JUMP JUMPDEST SWAP2 POP POP SWAP3 SWAP2 POP POP JUMP JUMPDEST PUSH0 DUP3 DUP3 MSTORE PUSH1 0x20 DUP3 ADD SWAP1 POP SWAP3 SWAP2 POP POP JUMP JUMPDEST PUSH32 0x696E76616C696420616464726573732100000000000000000000000000000000 PUSH0 DUP3 ADD MSTORE POP JUMP JUMPDEST PUSH0 PUSH2 0x1BF PUSH1 0x10 DUP4 PUSH2 0x17B JUMP JUMPDEST SWAP2 POP PUSH2 0x1CA DUP3 PUSH2 0x18B JUMP JUMPDEST PUSH1 0x20 DUP3 ADD SWAP1 POP SWAP2 SWAP1 POP JUMP JUMPDEST PUSH0 PUSH1 0x20 DUP3 ADD SWAP1 POP DUP2 DUP2 SUB PUSH0 DUP4 ADD MSTORE PUSH2 0x1EC DUP2 PUSH2 0x1B3 JUMP JUMPDEST SWAP1 POP SWAP2 SWAP1 POP JUMP JUMPDEST PUSH1 0x80 MLOAD PUSH2 0x156F PUSH2 0x22E PUSH0 CODECOPY PUSH0 DUP2 DUP2 PUSH2 0x287 ADD MSTORE DUP2 DUP2 PUSH2 0x3D7 ADD MSTORE DUP2 DUP2 PUSH2 0x3FC ADD MSTORE DUP2 DUP2 PUSH2 0x5DD ADD MSTORE DUP2 DUP2 PUSH2 0x846 ADD MSTORE PUSH2 0xA37 ADD MSTORE PUSH2 0x156F PUSH0 RETURN INVALID PUSH1 0x80 PUSH1 0x40 MSTORE PUSH1 0x4 CALLDATASIZE LT PUSH2 0x7E JUMPI PUSH0 CALLDATALOAD PUSH1 0xE0 SHR DUP1 PUSH4 0x8C85D679 GT PUSH2 0x4D JUMPI DUP1 PUSH4 0x8C85D679 EQ PUSH2 0x1AB JUMPI DUP1 PUSH4 0xA777D0DC EQ PUSH2 0x1DB JUMPI DUP1 PUSH4 0xE25FE175 EQ PUSH2 0x217 JUMPI DUP1 PUSH4 0xE3B49959 EQ PUSH2 0x241 JUMPI PUSH2 0xBE JUMP JUMPDEST DUP1 PUSH4 0x12065FE0 EQ PUSH2 0xFD JUMPI DUP1 PUSH4 0x2B68B9C6 EQ PUSH2 0x127 JUMPI DUP1 PUSH4 0x40EEDABB EQ PUSH2 0x145 JUMPI DUP1 PUSH4 0x8AB9E66D EQ PUSH2 0x16F JUMPI PUSH2 0xBE JUMP JUMPDEST CALLDATASIZE PUSH2 0xBE JUMPI PUSH32 0xF7F75251DEE7D7FC22DEAC3247729EBE7C86541F35930BF10C2A4207479A3B6C CALLER CALLVALUE PUSH1 0x40 MLOAD PUSH2 0xB4 SWAP3 SWAP2 SWAP1 PUSH2 0xD54 JUMP JUMPDEST PUSH1 0x40 MLOAD DUP1 SWAP2 SUB SWAP1 LOG1 STOP JUMPDEST PUSH32 0xF7F75251DEE7D7FC22DEAC3247729EBE7C86541F35930BF10C2A4207479A3B6C CALLER CALLVALUE PUSH0 CALLDATASIZE PUSH1 0x40 MLOAD PUSH2 0xF3 SWAP5 SWAP4 SWAP3 SWAP2 SWAP1 PUSH2 0xE35 JUMP JUMPDEST PUSH1 0x40 MLOAD DUP1 SWAP2 SUB SWAP1 LOG1 STOP JUMPDEST CALLVALUE DUP1 ISZERO PUSH2 0x108 JUMPI PUSH0 DUP1 REVERT JUMPDEST POP PUSH2 0x111 PUSH2 0x27D JUMP JUMPDEST PUSH1 0x40 MLOAD PUSH2 0x11E SWAP2 SWAP1 PUSH2 0xE86 JUMP JUMPDEST PUSH1 0x40 MLOAD DUP1 SWAP2 SUB SWAP1 RETURN JUMPDEST PUSH2 0x12F PUSH2 0x284 JUMP JUMPDEST PUSH1 0x40 MLOAD PUSH2 0x13C SWAP2 SWAP1 PUSH2 0xEB9 JUMP JUMPDEST PUSH1 0x40 MLOAD DUP1 SWAP2 SUB SWAP1 RETURN JUMPDEST CALLVALUE DUP1 ISZERO PUSH2 0x150 JUMPI PUSH0 DUP1 REVERT JUMPDEST POP PUSH2 0x159 PUSH2 0x3D5 JUMP JUMPDEST PUSH1 0x40 MLOAD PUSH2 0x166 SWAP2 SWAP1 PUSH2 0xED2 JUMP JUMPDEST PUSH1 0x40 MLOAD DUP1 SWAP2 SUB SWAP1 RETURN JUMPDEST CALLVALUE DUP1 ISZERO PUSH2 0x17A JUMPI PUSH0 DUP1 REVERT JUMPDEST POP PUSH2 0x195 PUSH1 0x4 DUP1 CALLDATASIZE SUB DUP2 ADD SWAP1 PUSH2 0x190 SWAP2 SWAP1 PUSH2 0xF54 JUMP JUMPDEST PUSH2 0x3F9 JUMP JUMPDEST PUSH1 0x40 MLOAD PUSH2 0x1A2 SWAP2 SWAP1 PUSH2 0xEB9 JUMP JUMPDEST PUSH1 0x40 MLOAD DUP1 SWAP2 SUB SWAP1 RETURN JUMPDEST PUSH2 0x1C5 PUSH1 0x4 DUP1 CALLDATASIZE SUB DUP2 ADD SWAP1 PUSH2 0x1C0 SWAP2 SWAP1 PUSH2 0xF54 JUMP JUMPDEST PUSH2 0x5DA JUMP JUMPDEST PUSH1 0x40 MLOAD PUSH2 0x1D2 SWAP2 SWAP1 PUSH2 0xEB9 JUMP JUMPDEST PUSH1 0x40 MLOAD DUP1 SWAP2 SUB SWAP1 RETURN JUMPDEST CALLVALUE DUP1 ISZERO PUSH2 0x1E6 JUMPI PUSH0 DUP1 REVERT JUMPDEST POP PUSH2 0x201 PUSH1 0x4 DUP1 CALLDATASIZE SUB DUP2 ADD SWAP1 PUSH2 0x1FC SWAP2 SWAP1 PUSH2 0xF54 JUMP JUMPDEST PUSH2 0x843 JUMP JUMPDEST PUSH1 0x40 MLOAD PUSH2 0x20E SWAP2 SWAP1 PUSH2 0xEB9 JUMP JUMPDEST PUSH1 0x40 MLOAD DUP1 SWAP2 SUB SWAP1 RETURN JUMPDEST CALLVALUE DUP1 ISZERO PUSH2 0x222 JUMPI PUSH0 DUP1 REVERT JUMPDEST POP PUSH2 0x22B PUSH2 0xA24 JUMP JUMPDEST PUSH1 0x40 MLOAD PUSH2 0x238 SWAP2 SWAP1 PUSH2 0xFBA JUMP JUMPDEST PUSH1 0x40 MLOAD DUP1 SWAP2 SUB SWAP1 RETURN JUMPDEST CALLVALUE DUP1 ISZERO PUSH2 0x24C JUMPI PUSH0 DUP1 REVERT JUMPDEST POP PUSH2 0x267 PUSH1 0x4 DUP1 CALLDATASIZE SUB DUP2 ADD SWAP1 PUSH2 0x262 SWAP2 SWAP1 PUSH2 0xF54 JUMP JUMPDEST PUSH2 0xA34 JUMP JUMPDEST PUSH1 0x40 MLOAD PUSH2 0x274 SWAP2 SWAP1 PUSH2 0xEB9 JUMP JUMPDEST PUSH1 0x40 MLOAD DUP1 SWAP2 SUB SWAP1 RETURN JUMPDEST PUSH0 SELFBALANCE SWAP1 POP SWAP1 JUMP JUMPDEST PUSH0 PUSH32 0x0 PUSH20 0xFFFFFFFFFFFFFFFFFFFFFFFFFFFFFFFFFFFFFFFF AND CALLER PUSH20 0xFFFFFFFFFFFFFFFFFFFFFFFFFFFFFFFFFFFFFFFF AND EQ PUSH2 0x313 JUMPI PUSH1 0x40 MLOAD PUSH32 0x8C379A000000000000000000000000000000000000000000000000000000000 DUP2 MSTORE PUSH1 0x4 ADD PUSH2 0x30A SWAP1 PUSH2 0x101D JUMP JUMPDEST PUSH1 0x40 MLOAD DUP1 SWAP2 SUB SWAP1 REVERT JUMPDEST PUSH1 0x4 PUSH0 DUP1 SLOAD SWAP1 PUSH2 0x100 EXP SWAP1 DIV PUSH1 0xFF AND PUSH1 0xFF AND EQ PUSH2 0x37F JUMPI PUSH1 0x40 MLOAD DUP1 PUSH1 0x60 ADD PUSH1 0x40 MSTORE DUP1 PUSH1 0x36 DUP2 MSTORE PUSH1 0x20 ADD PUSH2 0x1504 PUSH1 0x36 SWAP2 CODECOPY PUSH1 0x40 MLOAD PUSH32 0x8C379A000000000000000000000000000000000000000000000000000000000 DUP2 MSTORE PUSH1 0x4 ADD PUSH2 0x376 SWAP2 SWAP1 PUSH2 0x108B JUMP JUMPDEST PUSH1 0x40 MLOAD DUP1 SWAP2 SUB SWAP1 REVERT JUMPDEST PUSH32 0xF7F75251DEE7D7FC22DEAC3247729EBE7C86541F35930BF10C2A4207479A3B6C CALLER SELFBALANCE PUSH0 CALLDATASIZE PUSH1 0x40 MLOAD PUSH2 0x3B4 SWAP5 SWAP4 SWAP3 SWAP2 SWAP1 PUSH2 0x10F5 JUMP JUMPDEST PUSH1 0x40 MLOAD DUP1 SWAP2 SUB SWAP1 LOG1 CALLER PUSH20 0xFFFFFFFFFFFFFFFFFFFFFFFFFFFFFFFFFFFFFFFF AND SELFDESTRUCT JUMPDEST PUSH32 0x0 DUP2 JUMP JUMPDEST PUSH0 PUSH32 0x0 PUSH20 0xFFFFFFFFFFFFFFFFFFFFFFFFFFFFFFFFFFFFFFFF AND CALLER PUSH20 0xFFFFFFFFFFFFFFFFFFFFFFFFFFFFFFFFFFFFFFFF AND SUB PUSH2 0x488 JUMPI PUSH1 0x40 MLOAD PUSH32 0x8C379A000000000000000000000000000000000000000000000000000000000 DUP2 MSTORE PUSH1 0x4 ADD PUSH2 0x47F SWAP1 PUSH2 0x1190 JUMP JUMPDEST PUSH1 0x40 MLOAD DUP1 SWAP2 SUB SWAP1 REVERT JUMPDEST PUSH1 0x3 PUSH0 DUP1 SLOAD SWAP1 PUSH2 0x100 EXP SWAP1 DIV PUSH1 0xFF AND PUSH1 0xFF AND EQ PUSH2 0x4F4 JUMPI PUSH1 0x40 MLOAD DUP1 PUSH1 0x60 ADD PUSH1 0x40 MSTORE DUP1 PUSH1 0x36 DUP2 MSTORE PUSH1 0x20 ADD PUSH2 0x1504 PUSH1 0x36 SWAP2 CODECOPY PUSH1 0x40 MLOAD PUSH32 0x8C379A000000000000000000000000000000000000000000000000000000000 DUP2 MSTORE PUSH1 0x4 ADD PUSH2 0x4EB SWAP2 SWAP1 PUSH2 0x108B JUMP JUMPDEST PUSH1 0x40 MLOAD DUP1 SWAP2 SUB SWAP1 REVERT JUMPDEST PUSH2 0x534 DUP4 DUP4 PUSH1 0x40 MLOAD DUP1 PUSH1 0x40 ADD PUSH1 0x40 MSTORE DUP1 PUSH1 0xF DUP2 MSTORE PUSH1 0x20 ADD PUSH32 0xE4B8BAE4BABAE6B091E69C8DE58AA10000000000000000000000000000000000 DUP2 MSTORE POP PUSH2 0xC15 JUMP JUMPDEST PUSH2 0x573 JUMPI PUSH1 0x40 MLOAD PUSH32 0x8B3D2D4300000000000000000000000000000000000000000000000000000000 DUP2 MSTORE PUSH1 0x4 ADD PUSH2 0x56A SWAP1 PUSH2 0x11F8 JUMP JUMPDEST PUSH1 0x40 MLOAD DUP1 SWAP2 SUB SWAP1 REVERT JUMPDEST PUSH1 0x4 PUSH0 DUP1 PUSH2 0x100 EXP DUP2 SLOAD DUP2 PUSH1 0xFF MUL NOT AND SWAP1 DUP4 PUSH1 0xFF AND MUL OR SWAP1 SSTORE POP PUSH32 0xF39143D48D073EE18F9A08FCABDBD340BE0B2A698E3E45FC3B4318251131B4FC PUSH0 DUP1 SLOAD SWAP1 PUSH2 0x100 EXP SWAP1 DIV PUSH1 0xFF AND PUSH1 0x40 MLOAD PUSH2 0x5C8 SWAP2 SWAP1 PUSH2 0xFBA JUMP JUMPDEST PUSH1 0x40 MLOAD DUP1 SWAP2 SUB SWAP1 LOG1 PUSH1 0x1 SWAP1 POP SWAP3 SWAP2 POP POP JUMP JUMPDEST PUSH0 PUSH32 0x0 PUSH20 0xFFFFFFFFFFFFFFFFFFFFFFFFFFFFFFFFFFFFFFFF AND CALLER PUSH20 0xFFFFFFFFFFFFFFFFFFFFFFFFFFFFFFFFFFFFFFFF AND EQ PUSH2 0x669 JUMPI PUSH1 0x40 MLOAD PUSH32 0x8C379A000000000000000000000000000000000000000000000000000000000 DUP2 MSTORE PUSH1 0x4 ADD PUSH2 0x660 SWAP1 PUSH2 0x101D JUMP JUMPDEST PUSH1 0x40 MLOAD DUP1 SWAP2 SUB SWAP1 REVERT JUMPDEST PUSH1 0x2 PUSH0 DUP1 SLOAD SWAP1 PUSH2 0x100 EXP SWAP1 DIV PUSH1 0xFF AND PUSH1 0xFF AND EQ PUSH2 0x6D5 JUMPI PUSH1 0x40 MLOAD DUP1 PUSH1 0x60 ADD PUSH1 0x40 MSTORE DUP1 PUSH1 0x36 DUP2 MSTORE PUSH1 0x20 ADD PUSH2 0x1504 PUSH1 0x36 SWAP2 CODECOPY PUSH1 0x40 MLOAD PUSH32 0x8C379A000000000000000000000000000000000000000000000000000000000 DUP2 MSTORE PUSH1 0x4 ADD PUSH2 0x6CC SWAP2 SWAP1 PUSH2 0x108B JUMP JUMPDEST PUSH1 0x40 MLOAD DUP1 SWAP2 SUB SWAP1 REVERT JUMPDEST PUSH2 0x715 DUP4 DUP4 PUSH1 0x40 MLOAD DUP1 PUSH1 0x40 ADD PUSH1 0x40 MSTORE DUP1 PUSH1 0x12 DUP2 MSTORE PUSH1 0x20 ADD PUSH32 0xE5908CE5BF97E4BBACE8BE9BE88BA6E4BA860000000000000000000000000000 DUP2 MSTORE POP PUSH2 0xC15 JUMP JUMPDEST PUSH2 0x754 JUMPI PUSH1 0x40 MLOAD PUSH32 0x8B3D2D4300000000000000000000000000000000000000000000000000000000 DUP2 MSTORE PUSH1 0x4 ADD PUSH2 0x74B SWAP1 PUSH2 0x1260 JUMP JUMPDEST PUSH1 0x40 MLOAD DUP1 SWAP2 SUB SWAP1 REVERT JUMPDEST PUSH8 0x1BC16D674EC80000 CALLVALUE LT ISZERO PUSH2 0x79F JUMPI PUSH1 0x40 MLOAD PUSH32 0x8B3D2D4300000000000000000000000000000000000000000000000000000000 DUP2 MSTORE PUSH1 0x4 ADD PUSH2 0x796 SWAP1 PUSH2 0x12EE JUMP JUMPDEST PUSH1 0x40 MLOAD DUP1 SWAP2 SUB SWAP1 REVERT JUMPDEST PUSH1 0x3 PUSH0 DUP1 PUSH2 0x100 EXP DUP2 SLOAD DUP2 PUSH1 0xFF MUL NOT AND SWAP1 DUP4 PUSH1 0xFF AND MUL OR SWAP1 SSTORE POP PUSH32 0xF39143D48D073EE18F9A08FCABDBD340BE0B2A698E3E45FC3B4318251131B4FC PUSH0 DUP1 SLOAD SWAP1 PUSH2 0x100 EXP SWAP1 DIV PUSH1 0xFF AND PUSH1 0x40 MLOAD PUSH2 0x7F4 SWAP2 SWAP1 PUSH2 0xFBA JUMP JUMPDEST PUSH1 0x40 MLOAD DUP1 SWAP2 SUB SWAP1 LOG1 PUSH32 0xF7F75251DEE7D7FC22DEAC3247729EBE7C86541F35930BF10C2A4207479A3B6C CALLER CALLVALUE PUSH0 CALLDATASIZE PUSH1 0x40 MLOAD PUSH2 0x831 SWAP5 SWAP4 SWAP3 SWAP2 SWAP1 PUSH2 0x1356 JUMP JUMPDEST PUSH1 0x40 MLOAD DUP1 SWAP2 SUB SWAP1 LOG1 PUSH1 0x1 SWAP1 POP SWAP3 SWAP2 POP POP JUMP JUMPDEST PUSH0 PUSH32 0x0 PUSH20 0xFFFFFFFFFFFFFFFFFFFFFFFFFFFFFFFFFFFFFFFF AND CALLER PUSH20 0xFFFFFFFFFFFFFFFFFFFFFFFFFFFFFFFFFFFFFFFF AND EQ PUSH2 0x8D2 JUMPI PUSH1 0x40 MLOAD PUSH32 0x8C379A000000000000000000000000000000000000000000000000000000000 DUP2 MSTORE PUSH1 0x4 ADD PUSH2 0x8C9 SWAP1 PUSH2 0x101D JUMP JUMPDEST PUSH1 0x40 MLOAD DUP1 SWAP2 SUB SWAP1 REVERT JUMPDEST PUSH0 DUP1 PUSH0 SWAP1 SLOAD SWAP1 PUSH2 0x100 EXP SWAP1 DIV PUSH1 0xFF AND PUSH1 0xFF AND EQ PUSH2 0x93E JUMPI PUSH1 0x40 MLOAD DUP1 PUSH1 0x60 ADD PUSH1 0x40 MSTORE DUP1 PUSH1 0x36 DUP2 MSTORE PUSH1 0x20 ADD PUSH2 0x1504 PUSH1 0x36 SWAP2 CODECOPY PUSH1 0x40 MLOAD PUSH32 0x8C379A000000000000000000000000000000000000000000000000000000000 DUP2 MSTORE PUSH1 0x4 ADD PUSH2 0x935 SWAP2 SWAP1 PUSH2 0x108B JUMP JUMPDEST PUSH1 0x40 MLOAD DUP1 SWAP2 SUB SWAP1 REVERT JUMPDEST PUSH2 0x97E DUP4 DUP4 PUSH1 0x40 MLOAD DUP1 PUSH1 0x40 ADD PUSH1 0x40 MSTORE DUP1 PUSH1 0xC DUP2 MSTORE PUSH1 0x20 ADD PUSH32 0xE5908CE5BF97E4BBACE5A5BD0000000000000000000000000000000000000000 DUP2 MSTORE POP PUSH2 0xC15 JUMP JUMPDEST PUSH2 0x9BD JUMPI PUSH1 0x40 MLOAD PUSH32 0x8B3D2D4300000000000000000000000000000000000000000000000000000000 DUP2 MSTORE PUSH1 0x4 ADD PUSH2 0x9B4 SWAP1 PUSH2 0x13F1 JUMP JUMPDEST PUSH1 0x40 MLOAD DUP1 SWAP2 SUB SWAP1 REVERT JUMPDEST PUSH1 0x1 PUSH0 DUP1 PUSH2 0x100 EXP DUP2 SLOAD DUP2 PUSH1 0xFF MUL NOT AND SWAP1 DUP4 PUSH1 0xFF AND MUL OR SWAP1 SSTORE POP PUSH32 0xF39143D48D073EE18F9A08FCABDBD340BE0B2A698E3E45FC3B4318251131B4FC PUSH0 DUP1 SLOAD SWAP1 PUSH2 0x100 EXP SWAP1 DIV PUSH1 0xFF AND PUSH1 0x40 MLOAD PUSH2 0xA12 SWAP2 SWAP1 PUSH2 0xFBA JUMP JUMPDEST PUSH1 0x40 MLOAD DUP1 SWAP2 SUB SWAP1 LOG1 PUSH1 0x1 SWAP1 POP SWAP3 SWAP2 POP POP JUMP JUMPDEST PUSH0 DUP1 SLOAD SWAP1 PUSH2 0x100 EXP SWAP1 DIV PUSH1 0xFF AND DUP2 JUMP JUMPDEST PUSH0 PUSH32 0x0 PUSH20 0xFFFFFFFFFFFFFFFFFFFFFFFFFFFFFFFFFFFFFFFF AND CALLER PUSH20 0xFFFFFFFFFFFFFFFFFFFFFFFFFFFFFFFFFFFFFFFF AND SUB PUSH2 0xAC3 JUMPI PUSH1 0x40 MLOAD PUSH32 0x8C379A000000000000000000000000000000000000000000000000000000000 DUP2 MSTORE PUSH1 0x4 ADD PUSH2 0xABA SWAP1 PUSH2 0x1190 JUMP JUMPDEST PUSH1 0x40 MLOAD DUP1 SWAP2 SUB SWAP1 REVERT JUMPDEST PUSH1 0x1 PUSH0 DUP1 SLOAD SWAP1 PUSH2 0x100 EXP SWAP1 DIV PUSH1 0xFF AND PUSH1 0xFF AND EQ PUSH2 0xB2F JUMPI PUSH1 0x40 MLOAD DUP1 PUSH1 0x60 ADD PUSH1 0x40 MSTORE DUP1 PUSH1 0x36 DUP2 MSTORE PUSH1 0x20 ADD PUSH2 0x1504 PUSH1 0x36 SWAP2 CODECOPY PUSH1 0x40 MLOAD PUSH32 0x8C379A000000000000000000000000000000000000000000000000000000000 DUP2 MSTORE PUSH1 0x4 ADD PUSH2 0xB26 SWAP2 SWAP1 PUSH2 0x108B JUMP JUMPDEST PUSH1 0x40 MLOAD DUP1 SWAP2 SUB SWAP1 REVERT JUMPDEST PUSH2 0xB6F DUP4 DUP4 PUSH1 0x40 MLOAD DUP1 PUSH1 0x40 ADD PUSH1 0x40 MSTORE DUP1 PUSH1 0x9 DUP2 MSTORE PUSH1 0x20 ADD PUSH32 0xE9A286E5AFBCE5A5BD0000000000000000000000000000000000000000000000 DUP2 MSTORE POP PUSH2 0xC15 JUMP JUMPDEST PUSH2 0xBAE JUMPI PUSH1 0x40 MLOAD PUSH32 0x8B3D2D4300000000000000000000000000000000000000000000000000000000 DUP2 MSTORE PUSH1 0x4 ADD PUSH2 0xBA5 SWAP1 PUSH2 0x1459 JUMP JUMPDEST PUSH1 0x40 MLOAD DUP1 SWAP2 SUB SWAP1 REVERT JUMPDEST PUSH1 0x2 PUSH0 DUP1 PUSH2 0x100 EXP DUP2 SLOAD DUP2 PUSH1 0xFF MUL NOT AND SWAP1 DUP4 PUSH1 0xFF AND MUL OR SWAP1 SSTORE POP PUSH32 0xF39143D48D073EE18F9A08FCABDBD340BE0B2A698E3E45FC3B4318251131B4FC PUSH0 DUP1 SLOAD SWAP1 PUSH2 0x100 EXP SWAP1 DIV PUSH1 0xFF AND PUSH1 0x40 MLOAD PUSH2 0xC03 SWAP2 SWAP1 PUSH2 0xFBA JUMP JUMPDEST PUSH1 0x40 MLOAD DUP1 SWAP2 SUB SWAP1 LOG1 PUSH1 0x1 SWAP1 POP SWAP3 SWAP2 POP POP JUMP JUMPDEST PUSH0 DUP2 PUSH1 0x40 MLOAD PUSH1 0x20 ADD PUSH2 0xC27 SWAP2 SWAP1 PUSH2 0x14B1 JUMP JUMPDEST PUSH1 0x40 MLOAD PUSH1 0x20 DUP2 DUP4 SUB SUB DUP2 MSTORE SWAP1 PUSH1 0x40 MSTORE DUP1 MLOAD SWAP1 PUSH1 0x20 ADD KECCAK256 DUP5 DUP5 PUSH1 0x40 MLOAD PUSH1 0x20 ADD PUSH2 0xC50 SWAP3 SWAP2 SWAP1 PUSH2 0x14EB JUMP JUMPDEST PUSH1 0x40 MLOAD PUSH1 0x20 DUP2 DUP4 SUB SUB DUP2 MSTORE SWAP1 PUSH1 0x40 MSTORE DUP1 MLOAD SWAP1 PUSH1 0x20 ADD KECCAK256 EQ SWAP1 POP SWAP4 SWAP3 POP POP POP JUMP JUMPDEST PUSH0 DUP3 DUP3 MSTORE PUSH1 0x20 DUP3 ADD SWAP1 POP SWAP3 SWAP2 POP POP JUMP JUMPDEST PUSH32 0x7265636569766500000000000000000000000000000000000000000000000000 PUSH0 DUP3 ADD MSTORE POP JUMP JUMPDEST PUSH0 PUSH2 0xCB4 PUSH1 0x7 DUP4 PUSH2 0xC70 JUMP JUMPDEST SWAP2 POP PUSH2 0xCBF DUP3 PUSH2 0xC80 JUMP JUMPDEST PUSH1 0x20 DUP3 ADD SWAP1 POP SWAP2 SWAP1 POP JUMP JUMPDEST PUSH0 PUSH20 0xFFFFFFFFFFFFFFFFFFFFFFFFFFFFFFFFFFFFFFFF DUP3 AND SWAP1 POP SWAP2 SWAP1 POP JUMP JUMPDEST PUSH0 PUSH2 0xCF3 DUP3 PUSH2 0xCCA JUMP JUMPDEST SWAP1 POP SWAP2 SWAP1 POP JUMP JUMPDEST PUSH2 0xD03 DUP2 PUSH2 0xCE9 JUMP JUMPDEST DUP3 MSTORE POP POP JUMP JUMPDEST PUSH0 DUP2 SWAP1 POP SWAP2 SWAP1 POP JUMP JUMPDEST PUSH2 0xD1B DUP2 PUSH2 0xD09 JUMP JUMPDEST DUP3 MSTORE POP POP JUMP JUMPDEST PUSH0 DUP3 DUP3 MSTORE PUSH1 0x20 DUP3 ADD SWAP1 POP SWAP3 SWAP2 POP POP JUMP JUMPDEST POP JUMP JUMPDEST PUSH0 PUSH2 0xD3F PUSH0 DUP4 PUSH2 0xD21 JUMP JUMPDEST SWAP2 POP PUSH2 0xD4A DUP3 PUSH2 0xD31 JUMP JUMPDEST PUSH0 DUP3 ADD SWAP1 POP SWAP2 SWAP1 POP JUMP JUMPDEST PUSH0 PUSH1 0x80 DUP3 ADD SWAP1 POP DUP2 DUP2 SUB PUSH0 DUP4 ADD MSTORE PUSH2 0xD6B DUP2 PUSH2 0xCA8 JUMP JUMPDEST SWAP1 POP PUSH2 0xD7A PUSH1 0x20 DUP4 ADD DUP6 PUSH2 0xCFA JUMP JUMPDEST PUSH2 0xD87 PUSH1 0x40 DUP4 ADD DUP5 PUSH2 0xD12 JUMP JUMPDEST DUP2 DUP2 SUB PUSH1 0x60 DUP4 ADD MSTORE PUSH2 0xD98 DUP2 PUSH2 0xD34 JUMP JUMPDEST SWAP1 POP SWAP4 SWAP3 POP POP POP JUMP JUMPDEST PUSH32 0x66616C6C6261636B000000000000000000000000000000000000000000000000 PUSH0 DUP3 ADD MSTORE POP JUMP JUMPDEST PUSH0 PUSH2 0xDD5 PUSH1 0x8 DUP4 PUSH2 0xC70 JUMP JUMPDEST SWAP2 POP PUSH2 0xDE0 DUP3 PUSH2 0xDA1 JUMP JUMPDEST PUSH1 0x20 DUP3 ADD SWAP1 POP SWAP2 SWAP1 POP JUMP JUMPDEST DUP3 DUP2 DUP4 CALLDATACOPY PUSH0 DUP4 DUP4 ADD MSTORE POP POP POP JUMP JUMPDEST PUSH0 PUSH1 0x1F NOT PUSH1 0x1F DUP4 ADD AND SWAP1 POP SWAP2 SWAP1 POP JUMP JUMPDEST PUSH0 PUSH2 0xE14 DUP4 DUP6 PUSH2 0xD21 JUMP JUMPDEST SWAP4 POP PUSH2 0xE21 DUP4 DUP6 DUP5 PUSH2 0xDEB JUMP JUMPDEST PUSH2 0xE2A DUP4 PUSH2 0xDF9 JUMP JUMPDEST DUP5 ADD SWAP1 POP SWAP4 SWAP3 POP POP POP JUMP JUMPDEST PUSH0 PUSH1 0x80 DUP3 ADD SWAP1 POP DUP2 DUP2 SUB PUSH0 DUP4 ADD MSTORE PUSH2 0xE4C DUP2 PUSH2 0xDC9 JUMP JUMPDEST SWAP1 POP PUSH2 0xE5B PUSH1 0x20 DUP4 ADD DUP8 PUSH2 0xCFA JUMP JUMPDEST PUSH2 0xE68 PUSH1 0x40 DUP4 ADD DUP7 PUSH2 0xD12 JUMP JUMPDEST DUP2 DUP2 SUB PUSH1 0x60 DUP4 ADD MSTORE PUSH2 0xE7B DUP2 DUP5 DUP7 PUSH2 0xE09 JUMP JUMPDEST SWAP1 POP SWAP6 SWAP5 POP POP POP POP POP JUMP JUMPDEST PUSH0 PUSH1 0x20 DUP3 ADD SWAP1 POP PUSH2 0xE99 PUSH0 DUP4 ADD DUP5 PUSH2 0xD12 JUMP JUMPDEST SWAP3 SWAP2 POP POP JUMP JUMPDEST PUSH0 DUP2 ISZERO ISZERO SWAP1 POP SWAP2 SWAP1 POP JUMP JUMPDEST PUSH2 0xEB3 DUP2 PUSH2 0xE9F JUMP JUMPDEST DUP3 MSTORE POP POP JUMP JUMPDEST PUSH0 PUSH1 0x20 DUP3 ADD SWAP1 POP PUSH2 0xECC PUSH0 DUP4 ADD DUP5 PUSH2 0xEAA JUMP JUMPDEST SWAP3 SWAP2 POP POP JUMP JUMPDEST PUSH0 PUSH1 0x20 DUP3 ADD SWAP1 POP PUSH2 0xEE5 PUSH0 DUP4 ADD DUP5 PUSH2 0xCFA JUMP JUMPDEST SWAP3 SWAP2 POP POP JUMP JUMPDEST PUSH0 DUP1 REVERT JUMPDEST PUSH0 DUP1 REVERT JUMPDEST PUSH0 DUP1 REVERT JUMPDEST PUSH0 DUP1 REVERT JUMPDEST PUSH0 DUP1 REVERT JUMPDEST PUSH0 DUP1 DUP4 PUSH1 0x1F DUP5 ADD SLT PUSH2 0xF14 JUMPI PUSH2 0xF13 PUSH2 0xEF3 JUMP JUMPDEST JUMPDEST DUP3 CALLDATALOAD SWAP1 POP PUSH8 0xFFFFFFFFFFFFFFFF DUP2 GT ISZERO PUSH2 0xF31 JUMPI PUSH2 0xF30 PUSH2 0xEF7 JUMP JUMPDEST JUMPDEST PUSH1 0x20 DUP4 ADD SWAP2 POP DUP4 PUSH1 0x1 DUP3 MUL DUP4 ADD GT ISZERO PUSH2 0xF4D JUMPI PUSH2 0xF4C PUSH2 0xEFB JUMP JUMPDEST JUMPDEST SWAP3 POP SWAP3 SWAP1 POP JUMP JUMPDEST PUSH0 DUP1 PUSH1 0x20 DUP4 DUP6 SUB SLT ISZERO PUSH2 0xF6A JUMPI PUSH2 0xF69 PUSH2 0xEEB JUMP JUMPDEST JUMPDEST PUSH0 DUP4 ADD CALLDATALOAD PUSH8 0xFFFFFFFFFFFFFFFF DUP2 GT ISZERO PUSH2 0xF87 JUMPI PUSH2 0xF86 PUSH2 0xEEF JUMP JUMPDEST JUMPDEST PUSH2 0xF93 DUP6 DUP3 DUP7 ADD PUSH2 0xEFF JUMP JUMPDEST SWAP3 POP SWAP3 POP POP SWAP3 POP SWAP3 SWAP1 POP JUMP JUMPDEST PUSH0 PUSH1 0xFF DUP3 AND SWAP1 POP SWAP2 SWAP1 POP JUMP JUMPDEST PUSH2 0xFB4 DUP2 PUSH2 0xF9F JUMP JUMPDEST DUP3 MSTORE POP POP JUMP JUMPDEST PUSH0 PUSH1 0x20 DUP3 ADD SWAP1 POP PUSH2 0xFCD PUSH0 DUP4 ADD DUP5 PUSH2 0xFAB JUMP JUMPDEST SWAP3 SWAP2 POP POP JUMP JUMPDEST PUSH32 0xE5BF85E9A1BBE9A286E5AFBCE6898DE883BDE8AFB40000000000000000000000 PUSH0 DUP3 ADD MSTORE POP JUMP JUMPDEST PUSH0 PUSH2 0x1007 PUSH1 0x15 DUP4 PUSH2 0xC70 JUMP JUMPDEST SWAP2 POP PUSH2 0x1012 DUP3 PUSH2 0xFD3 JUMP JUMPDEST PUSH1 0x20 DUP3 ADD SWAP1 POP SWAP2 SWAP1 POP JUMP JUMPDEST PUSH0 PUSH1 0x20 DUP3 ADD SWAP1 POP DUP2 DUP2 SUB PUSH0 DUP4 ADD MSTORE PUSH2 0x1034 DUP2 PUSH2 0xFFB JUMP JUMPDEST SWAP1 POP SWAP2 SWAP1 POP JUMP JUMPDEST PUSH0 DUP2 MLOAD SWAP1 POP SWAP2 SWAP1 POP JUMP JUMPDEST DUP3 DUP2 DUP4 MCOPY PUSH0 DUP4 DUP4 ADD MSTORE POP POP POP JUMP JUMPDEST PUSH0 PUSH2 0x105D DUP3 PUSH2 0x103B JUMP JUMPDEST PUSH2 0x1067 DUP2 DUP6 PUSH2 0xC70 JUMP JUMPDEST SWAP4 POP PUSH2 0x1077 DUP2 DUP6 PUSH1 0x20 DUP7 ADD PUSH2 0x1045 JUMP JUMPDEST PUSH2 0x1080 DUP2 PUSH2 0xDF9 JUMP JUMPDEST DUP5 ADD SWAP2 POP POP SWAP3 SWAP2 POP POP JUMP JUMPDEST PUSH0 PUSH1 0x20 DUP3 ADD SWAP1 POP DUP2 DUP2 SUB PUSH0 DUP4 ADD MSTORE PUSH2 0x10A3 DUP2 DUP5 PUSH2 0x1053 JUMP JUMPDEST SWAP1 POP SWAP3 SWAP2 POP POP JUMP JUMPDEST PUSH32 0x6465737472756374000000000000000000000000000000000000000000000000 PUSH0 DUP3 ADD MSTORE POP JUMP JUMPDEST PUSH0 PUSH2 0x10DF PUSH1 0x8 DUP4 PUSH2 0xC70 JUMP JUMPDEST SWAP2 POP PUSH2 0x10EA DUP3 PUSH2 0x10AB JUMP JUMPDEST PUSH1 0x20 DUP3 ADD SWAP1 POP SWAP2 SWAP1 POP JUMP JUMPDEST PUSH0 PUSH1 0x80 DUP3 ADD SWAP1 POP DUP2 DUP2 SUB PUSH0 DUP4 ADD MSTORE PUSH2 0x110C DUP2 PUSH2 0x10D3 JUMP JUMPDEST SWAP1 POP PUSH2 0x111B PUSH1 0x20 DUP4 ADD DUP8 PUSH2 0xCFA JUMP JUMPDEST PUSH2 0x1128 PUSH1 0x40 DUP4 ADD DUP7 PUSH2 0xD12 JUMP JUMPDEST DUP2 DUP2 SUB PUSH1 0x60 DUP4 ADD MSTORE PUSH2 0x113B DUP2 DUP5 DUP7 PUSH2 0xE09 JUMP JUMPDEST SWAP1 POP SWAP6 SWAP5 POP POP POP POP POP JUMP JUMPDEST PUSH32 0xE5BF85E9A1BBE4B88BE5B19EE6898DE883BDE8AFB40000000000000000000000 PUSH0 DUP3 ADD MSTORE POP JUMP JUMPDEST PUSH0 PUSH2 0x117A PUSH1 0x15 DUP4 PUSH2 0xC70 JUMP JUMPDEST SWAP2 POP PUSH2 0x1185 DUP3 PUSH2 0x1146 JUMP JUMPDEST PUSH1 0x20 DUP3 ADD SWAP1 POP SWAP2 SWAP1 POP JUMP JUMPDEST PUSH0 PUSH1 0x20 DUP3 ADD SWAP1 POP DUP2 DUP2 SUB PUSH0 DUP4 ADD MSTORE PUSH2 0x11A7 DUP2 PUSH2 0x116E JUMP JUMPDEST SWAP1 POP SWAP2 SWAP1 POP JUMP JUMPDEST PUSH32 0xE5BF85E9A1BBE8AFB4EFBC9AE4B8BAE4BABAE6B091E69C8DE58AA10000000000 PUSH0 DUP3 ADD MSTORE POP JUMP JUMPDEST PUSH0 PUSH2 0x11E2 PUSH1 0x1B DUP4 PUSH2 0xC70 JUMP JUMPDEST SWAP2 POP PUSH2 0x11ED DUP3 PUSH2 0x11AE JUMP JUMPDEST PUSH1 0x20 DUP3 ADD SWAP1 POP SWAP2 SWAP1 POP JUMP JUMPDEST PUSH0 PUSH1 0x20 DUP3 ADD SWAP1 POP DUP2 DUP2 SUB PUSH0 DUP4 ADD MSTORE PUSH2 0x120F DUP2 PUSH2 0x11D6 JUMP JUMPDEST SWAP1 POP SWAP2 SWAP1 POP JUMP JUMPDEST PUSH32 0xE5BF85E9A1BBE8AFB4EFBC9AE5908CE5BF97E4BBACE8BE9BE88BA6E4BA860000 PUSH0 DUP3 ADD MSTORE POP JUMP JUMPDEST PUSH0 PUSH2 0x124A PUSH1 0x1E DUP4 PUSH2 0xC70 JUMP JUMPDEST SWAP2 POP PUSH2 0x1255 DUP3 PUSH2 0x1216 JUMP JUMPDEST PUSH1 0x20 DUP3 ADD SWAP1 POP SWAP2 SWAP1 POP JUMP JUMPDEST PUSH0 PUSH1 0x20 DUP3 ADD SWAP1 POP DUP2 DUP2 SUB PUSH0 DUP4 ADD MSTORE PUSH2 0x1277 DUP2 PUSH2 0x123E JUMP JUMPDEST SWAP1 POP SWAP2 SWAP1 POP JUMP JUMPDEST PUSH32 0xE7BB99E992B1EFBC81EFBC81EFBC81E69C80E5B091E7BB9932E4B8AAE4BBA5E5 PUSH0 DUP3 ADD MSTORE PUSH32 0xA4AAE5B881EFBC81000000000000000000000000000000000000000000000000 PUSH1 0x20 DUP3 ADD MSTORE POP JUMP JUMPDEST PUSH0 PUSH2 0x12D8 PUSH1 0x28 DUP4 PUSH2 0xC70 JUMP JUMPDEST SWAP2 POP PUSH2 0x12E3 DUP3 PUSH2 0x127E JUMP JUMPDEST PUSH1 0x40 DUP3 ADD SWAP1 POP SWAP2 SWAP1 POP JUMP JUMPDEST PUSH0 PUSH1 0x20 DUP3 ADD SWAP1 POP DUP2 DUP2 SUB PUSH0 DUP4 ADD MSTORE PUSH2 0x1305 DUP2 PUSH2 0x12CC JUMP JUMPDEST SWAP1 POP SWAP2 SWAP1 POP JUMP JUMPDEST PUSH32 0x636F6D666F727400000000000000000000000000000000000000000000000000 PUSH0 DUP3 ADD MSTORE POP JUMP JUMPDEST PUSH0 PUSH2 0x1340 PUSH1 0x7 DUP4 PUSH2 0xC70 JUMP JUMPDEST SWAP2 POP PUSH2 0x134B DUP3 PUSH2 0x130C JUMP JUMPDEST PUSH1 0x20 DUP3 ADD SWAP1 POP SWAP2 SWAP1 POP JUMP JUMPDEST PUSH0 PUSH1 0x80 DUP3 ADD SWAP1 POP DUP2 DUP2 SUB PUSH0 DUP4 ADD MSTORE PUSH2 0x136D DUP2 PUSH2 0x1334 JUMP JUMPDEST SWAP1 POP PUSH2 0x137C PUSH1 0x20 DUP4 ADD DUP8 PUSH2 0xCFA JUMP JUMPDEST PUSH2 0x1389 PUSH1 0x40 DUP4 ADD DUP7 PUSH2 0xD12 JUMP JUMPDEST DUP2 DUP2 SUB PUSH1 0x60 DUP4 ADD MSTORE PUSH2 0x139C DUP2 DUP5 DUP7 PUSH2 0xE09 JUMP JUMPDEST SWAP1 POP SWAP6 SWAP5 POP POP POP POP POP JUMP JUMPDEST PUSH32 0xE5BF85E9A1BBE8AFB4EFBC9AE5908CE5BF97E4BBACE5A5BDEFBC810000000000 PUSH0 DUP3 ADD MSTORE POP JUMP JUMPDEST PUSH0 PUSH2 0x13DB PUSH1 0x1B DUP4 PUSH2 0xC70 JUMP JUMPDEST SWAP2 POP PUSH2 0x13E6 DUP3 PUSH2 0x13A7 JUMP JUMPDEST PUSH1 0x20 DUP3 ADD SWAP1 POP SWAP2 SWAP1 POP JUMP JUMPDEST PUSH0 PUSH1 0x20 DUP3 ADD SWAP1 POP DUP2 DUP2 SUB PUSH0 DUP4 ADD MSTORE PUSH2 0x1408 DUP2 PUSH2 0x13CF JUMP JUMPDEST SWAP1 POP SWAP2 SWAP1 POP JUMP JUMPDEST PUSH32 0xE5BF85E9A1BBE8AFB4EFBC9AE9A286E5AFBCE5A5BD0000000000000000000000 PUSH0 DUP3 ADD MSTORE POP JUMP JUMPDEST PUSH0 PUSH2 0x1443 PUSH1 0x15 DUP4 PUSH2 0xC70 JUMP JUMPDEST SWAP2 POP PUSH2 0x144E DUP3 PUSH2 0x140F JUMP JUMPDEST PUSH1 0x20 DUP3 ADD SWAP1 POP SWAP2 SWAP1 POP JUMP JUMPDEST PUSH0 PUSH1 0x20 DUP3 ADD SWAP1 POP DUP2 DUP2 SUB PUSH0 DUP4 ADD MSTORE PUSH2 0x1470 DUP2 PUSH2 0x1437 JUMP JUMPDEST SWAP1 POP SWAP2 SWAP1 POP JUMP JUMPDEST PUSH0 DUP2 SWAP1 POP SWAP3 SWAP2 POP POP JUMP JUMPDEST PUSH0 PUSH2 0x148B DUP3 PUSH2 0x103B JUMP JUMPDEST PUSH2 0x1495 DUP2 DUP6 PUSH2 0x1477 JUMP JUMPDEST SWAP4 POP PUSH2 0x14A5 DUP2 DUP6 PUSH1 0x20 DUP7 ADD PUSH2 0x1045 JUMP JUMPDEST DUP1 DUP5 ADD SWAP2 POP POP SWAP3 SWAP2 POP POP JUMP JUMPDEST PUSH0 PUSH2 0x14BC DUP3 DUP5 PUSH2 0x1481 JUMP JUMPDEST SWAP2 POP DUP2 SWAP1 POP SWAP3 SWAP2 POP POP JUMP JUMPDEST PUSH0 PUSH2 0x14D2 DUP4 DUP6 PUSH2 0x1477 JUMP JUMPDEST SWAP4 POP PUSH2 0x14DF DUP4 DUP6 DUP5 PUSH2 0xDEB JUMP JUMPDEST DUP3 DUP5 ADD SWAP1 POP SWAP4 SWAP3 POP POP POP JUMP JUMPDEST PUSH0 PUSH2 0x14F7 DUP3 DUP5 DUP7 PUSH2 0x14C7 JUMP JUMPDEST SWAP2 POP DUP2 SWAP1 POP SWAP4 SWAP3 POP POP POP JUMP INVALID 0xE6 DUP9 SWAP2 0xE4 0xB8 DUP14 0xE7 SWAP16 0xA5 0xE9 DUP2 SWAP4 0xE5 0xA6 DUP3 0xE4 0xBD SWAP6 0xE5 LOG4 DUP5 0xE7 SWAP1 DUP7 0xE5 0xAE DUP4 0xEF 0xBC DUP13 0xE4 0xBD LOG0 0xE6 DUP10 0xBE 0xE6 SWAP13 DUP10 0xE5 DUP6 0xB3 0xE9 DUP4 0xA8 0xE9 SWAP8 0xA8 0xE5 SWAP1 0xA7 0xEF 0xBC DUP2 LOG2 PUSH5 0x6970667358 0x22 SLT KECCAK256 STOP 0xFB 0xD3 PUSH15 0x2299DB3C475D9F0F1DADB6D80100E3 0xD9 DUP10 0xE5 0xE SWAP13 0xE9 SHL JUMPI MSIZE TSTORE 0x25 0xBF DUP2 PUSH5 0x736F6C6343 STOP ADDMOD BYTE STOP CALLER "
				},
				"gasEstimates": {
					"creation": {
						"codeDepositCost": "1097400",
						"executionCost": "infinite",
						"totalCost": "infinite"
					},
					"external": {
						"": "infinite",
						"comfort(string)": "infinite",
						"comfortRes(string)": "infinite",
						"destruct()": "infinite",
						"getBalance()": "335",
						"hello(string)": "infinite",
						"helloRes(string)": "infinite",
						"leader()": "infinite",
						"step()": "2507"
					},
					"internal": {
						"review(string calldata,string memory)": "infinite"
					}
				},
				"methodIdentifiers": {
					"comfort(string)": "8c85d679",
					"comfortRes(string)": "8ab9e66d",
					"destruct()": "2b68b9c6",
					"getBalance()": "12065fe0",
					"hello(string)": "a777d0dc",
					"helloRes(string)": "e3b49959",
					"leader()": "40eedabb",
					"step()": "e25fe175"
				}
			},
			"storageLayout": {
				"storage": [
					{
						"astId": 4,
						"contract": "contracts/HelloComrades.sol:HelloComrades",
						"label": "step",
						"offset": 0,
						"slot": "0",
						"type": "t_uint8"
					}
				],
				"types": {
					"t_uint8": {
						"encoding": "inplace",
						"label": "uint8",
						"numberOfBytes": "1"
					}
				}
			},
			"userdoc": {
				"errors": {
					"MyError(string)": [
						{
							"notice": "这里的错误信息会被打印出来"
						}
					]
				},
				"kind": "user",
				"methods": {
					"comfort(string)": {
						"notice": "用于领导说“同志们辛苦了”"
					},
					"comfortRes(string)": {
						"notice": "用于同志们说\"为人民服务\""
					},
					"destruct()": {
						"notice": "用于领导对合约的销毁"
					},
					"hello(string)": {
						"notice": "用于领导说“同志们好”"
					},
					"helloRes(string)": {
						"notice": "用于同志们说\"领导好\""
					}
				},
				"version": 1
			}
		}
	}
}