{
	"data": {
		"bytecode": {
			"linkReferences": {},
			"object": "60a06040525f805f6101000a81548160ff021916908360ff160217905550348015610028575f80fd5b50604051610b9f380380610b9f833981810160405281019061004a9190610150565b5f73ffffffffffffffffffffffffffffffffffffffff168173ffffffffffffffffffffffffffffffffffffffff16036100b8576040517f08c379a00000000000000000000000000000000000000000000000000000000081526004016100af906101d5565b60405180910390fd5b8073ffffffffffffffffffffffffffffffffffffffff1660808173ffffffffffffffffffffffffffffffffffffffff1681525050506101f3565b5f80fd5b5f73ffffffffffffffffffffffffffffffffffffffff82169050919050565b5f61011f826100f6565b9050919050565b61012f81610115565b8114610139575f80fd5b50565b5f8151905061014a81610126565b92915050565b5f60208284031215610165576101646100f2565b5b5f6101728482850161013c565b91505092915050565b5f82825260208201905092915050565b7f696e76616c6964206164647265737321000000000000000000000000000000005f82015250565b5f6101bf60108361017b565b91506101ca8261018b565b602082019050919050565b5f6020820190508181035f8301526101ec816101b3565b9050919050565b60805161098d6102125f395f818161018401526101a9015261098d5ff3fe608060405260043610610042575f3560e01c806312065fe0146100c157806340eedabb146100eb578063a777d0dc14610115578063e25fe1751461015157610082565b36610082577ff7f75251dee7d7fc22deac3247729ebe7c86541f35930bf10c2a4207479a3b6c33346040516100789291906104d6565b60405180910390a1005b7ff7f75251dee7d7fc22deac3247729ebe7c86541f35930bf10c2a4207479a3b6c33345f366040516100b794939291906105b7565b60405180910390a1005b3480156100cc575f80fd5b506100d561017b565b6040516100e29190610608565b60405180910390f35b3480156100f6575f80fd5b506100ff610182565b60405161010c9190610621565b60405180910390f35b348015610120575f80fd5b5061013b600480360381019061013691906106a3565b6101a6565b6040516101489190610708565b60405180910390f35b34801561015c575f80fd5b50610165610387565b604051610172919061073c565b60405180910390f35b5f47905090565b7f000000000000000000000000000000000000000000000000000000000000000081565b5f7f000000000000000000000000000000000000000000000000000000000000000073ffffffffffffffffffffffffffffffffffffffff163373ffffffffffffffffffffffffffffffffffffffff1614610235576040517f08c379a000000000000000000000000000000000000000000000000000000000815260040161022c9061079f565b60405180910390fd5b5f805f9054906101000a900460ff1660ff16146102a157604051806060016040528060368152602001610922603691396040517f08c379a0000000000000000000000000000000000000000000000000000000008152600401610298919061080d565b60405180910390fd5b6102e183836040518060400160405280600c81526020017fe5908ce5bf97e4bbace5a5bd0000000000000000000000000000000000000000815250610397565b610320576040517f8b3d2d4300000000000000000000000000000000000000000000000000000000815260040161031790610877565b60405180910390fd5b60015f806101000a81548160ff021916908360ff1602179055507ff39143d48d073ee18f9a08fcabdbd340be0b2a698e3e45fc3b4318251131b4fc5f8054906101000a900460ff16604051610375919061073c565b60405180910390a16001905092915050565b5f8054906101000a900460ff1681565b5f816040516020016103a991906108cf565b6040516020818303038152906040528051906020012084846040516020016103d2929190610909565b604051602081830303815290604052805190602001201490509392505050565b5f82825260208201905092915050565b7f72656365697665000000000000000000000000000000000000000000000000005f82015250565b5f6104366007836103f2565b915061044182610402565b602082019050919050565b5f73ffffffffffffffffffffffffffffffffffffffff82169050919050565b5f6104758261044c565b9050919050565b6104858161046b565b82525050565b5f819050919050565b61049d8161048b565b82525050565b5f82825260208201905092915050565b50565b5f6104c15f836104a3565b91506104cc826104b3565b5f82019050919050565b5f6080820190508181035f8301526104ed8161042a565b90506104fc602083018561047c565b6105096040830184610494565b818103606083015261051a816104b6565b90509392505050565b7f66616c6c6261636b0000000000000000000000000000000000000000000000005f82015250565b5f6105576008836103f2565b915061056282610523565b602082019050919050565b828183375f83830152505050565b5f601f19601f8301169050919050565b5f61059683856104a3565b93506105a383858461056d565b6105ac8361057b565b840190509392505050565b5f6080820190508181035f8301526105ce8161054b565b90506105dd602083018761047c565b6105ea6040830186610494565b81810360608301526105fd81848661058b565b905095945050505050565b5f60208201905061061b5f830184610494565b92915050565b5f6020820190506106345f83018461047c565b92915050565b5f80fd5b5f80fd5b5f80fd5b5f80fd5b5f80fd5b5f8083601f84011261066357610662610642565b5b8235905067ffffffffffffffff8111156106805761067f610646565b5b60208301915083600182028301111561069c5761069b61064a565b5b9250929050565b5f80602083850312156106b9576106b861063a565b5b5f83013567ffffffffffffffff8111156106d6576106d561063e565b5b6106e28582860161064e565b92509250509250929050565b5f8115159050919050565b610702816106ee565b82525050565b5f60208201905061071b5f8301846106f9565b92915050565b5f60ff82169050919050565b61073681610721565b82525050565b5f60208201905061074f5f83018461072d565b92915050565b7fe5bf85e9a1bbe9a286e5afbce6898de883bde8afb400000000000000000000005f82015250565b5f6107896015836103f2565b915061079482610755565b602082019050919050565b5f6020820190508181035f8301526107b68161077d565b9050919050565b5f81519050919050565b8281835e5f83830152505050565b5f6107df826107bd565b6107e981856103f2565b93506107f98185602086016107c7565b6108028161057b565b840191505092915050565b5f6020820190508181035f83015261082581846107d5565b905092915050565b7fe5bf85e9a1bbe8afb4efbc9ae5908ce5bf97e4bbace5a5bdefbc8100000000005f82015250565b5f610861601b836103f2565b915061086c8261082d565b602082019050919050565b5f6020820190508181035f83015261088e81610855565b9050919050565b5f81905092915050565b5f6108a9826107bd565b6108b38185610895565b93506108c38185602086016107c7565b80840191505092915050565b5f6108da828461089f565b915081905092915050565b5f6108f08385610895565b93506108fd83858461056d565b82840190509392505050565b5f6109158284866108e5565b9150819050939250505056fee68891e4b88de79fa5e98193e5a682e4bd95e5a484e79086e5ae83efbc8ce4bda0e689bee69c89e585b3e983a8e997a8e590a7efbc81a26469706673582212201d58b141e69d5c1cfb0a38f40bf05f880b2bc2269fdb1650ee72a852ead73cc764736f6c634300081a0033",
			"opcodes": "PUSH1 0xA0 PUSH1 0x40 MSTORE PUSH0 DUP1 PUSH0 PUSH2 0x100 EXP DUP2 SLOAD DUP2 PUSH1 0xFF MUL NOT AND SWAP1 DUP4 PUSH1 0xFF AND MUL OR SWAP1 SSTORE POP CALLVALUE DUP1 ISZERO PUSH2 0x28 JUMPI PUSH0 DUP1 REVERT JUMPDEST POP PUSH1 0x40 MLOAD PUSH2 0xB9F CODESIZE SUB DUP1 PUSH2 0xB9F DUP4 CODECOPY DUP2 DUP2 ADD PUSH1 0x40 MSTORE DUP2 ADD SWAP1 PUSH2 0x4A SWAP2 SWAP1 PUSH2 0x150 JUMP JUMPDEST PUSH0 PUSH20 0xFFFFFFFFFFFFFFFFFFFFFFFFFFFFFFFFFFFFFFFF AND DUP2 PUSH20 0xFFFFFFFFFFFFFFFFFFFFFFFFFFFFFFFFFFFFFFFF AND SUB PUSH2 0xB8 JUMPI PUSH1 0x40 MLOAD PUSH32 0x8C379A000000000000000000000000000000000000000000000000000000000 DUP2 MSTORE PUSH1 0x4 ADD PUSH2 0xAF SWAP1 PUSH2 0x1D5 JUMP JUMPDEST PUSH1 0x40 MLOAD DUP1 SWAP2 SUB SWAP1 REVERT JUMPDEST DUP1 PUSH20 0xFFFFFFFFFFFFFFFFFFFFFFFFFFFFFFFFFFFFFFFF AND PUSH1 0x80 DUP2 PUSH20 0xFFFFFFFFFFFFFFFFFFFFFFFFFFFFFFFFFFFFFFFF AND DUP2 MSTORE POP POP POP PUSH2 0x1F3 JUMP JUMPDEST PUSH0 DUP1 REVERT JUMPDEST PUSH0 PUSH20 0xFFFFFFFFFFFFFFFFFFFFFFFFFFFFFFFFFFFFFFFF DUP3 AND SWAP1 POP SWAP2 SWAP1 POP JUMP JUMPDEST PUSH0 PUSH2 0x11F DUP3 PUSH2 0xF6 JUMP JUMPDEST SWAP1 POP SWAP2 SWAP1 POP JUMP JUMPDEST PUSH2 0x12F DUP2 PUSH2 0x115 JUMP JUMPDEST DUP2 EQ PUSH2 0x139 JUMPI PUSH0 DUP1 REVERT JUMPDEST POP JUMP JUMPDEST PUSH0 DUP2 MLOAD SWAP1 POP PUSH2 0x14A DUP2 PUSH2 0x126 JUMP JUMPDEST SWAP3 SWAP2 POP POP JUMP JUMPDEST PUSH0 PUSH1 0x20 DUP3 DUP5 SUB SLT ISZERO PUSH2 0x165 JUMPI PUSH2 0x164 PUSH2 0xF2 JUMP JUMPDEST JUMPDEST PUSH0 PUSH2 0x172 DUP5 DUP3 DUP6 ADD PUSH2 0x13C JUMP JUMPDEST SWAP2 POP POP SWAP3 SWAP2 POP POP JUMP JUMPDEST PUSH0 DUP3 DUP3 MSTORE PUSH1 0x20 DUP3 ADD SWAP1 POP SWAP3 SWAP2 POP POP JUMP JUMPDEST PUSH32 0x696E76616C696420616464726573732100000000000000000000000000000000 PUSH0 DUP3 ADD MSTORE POP JUMP JUMPDEST PUSH0 PUSH2 0x1BF PUSH1 0x10 DUP4 PUSH2 0x17B JUMP JUMPDEST SWAP2 POP PUSH2 0x1CA DUP3 PUSH2 0x18B JUMP JUMPDEST PUSH1 0x20 DUP3 ADD SWAP1 POP SWAP2 SWAP1 POP JUMP JUMPDEST PUSH0 PUSH1 0x20 DUP3 ADD SWAP1 POP DUP2 DUP2 SUB PUSH0 DUP4 ADD MSTORE PUSH2 0x1EC DUP2 PUSH2 0x1B3 JUMP JUMPDEST SWAP1 POP SWAP2 SWAP1 POP JUMP JUMPDEST PUSH1 0x80 MLOAD PUSH2 0x98D PUSH2 0x212 PUSH0 CODECOPY PUSH0 DUP2 DUP2 PUSH2 0x184 ADD MSTORE PUSH2 0x1A9 ADD MSTORE PUSH2 0x98D PUSH0 RETURN INVALID PUSH1 0x80 PUSH1 0x40 MSTORE PUSH1 0x4 CALLDATASIZE LT PUSH2 0x42 JUMPI PUSH0 CALLDATALOAD PUSH1 0xE0 SHR DUP1 PUSH4 0x12065FE0 EQ PUSH2 0xC1 JUMPI DUP1 PUSH4 0x40EEDABB EQ PUSH2 0xEB JUMPI DUP1 PUSH4 0xA777D0DC EQ PUSH2 0x115 JUMPI DUP1 PUSH4 0xE25FE175 EQ PUSH2 0x151 JUMPI PUSH2 0x82 JUMP JUMPDEST CALLDATASIZE PUSH2 0x82 JUMPI PUSH32 0xF7F75251DEE7D7FC22DEAC3247729EBE7C86541F35930BF10C2A4207479A3B6C CALLER CALLVALUE PUSH1 0x40 MLOAD PUSH2 0x78 SWAP3 SWAP2 SWAP1 PUSH2 0x4D6 JUMP JUMPDEST PUSH1 0x40 MLOAD DUP1 SWAP2 SUB SWAP1 LOG1 STOP JUMPDEST PUSH32 0xF7F75251DEE7D7FC22DEAC3247729EBE7C86541F35930BF10C2A4207479A3B6C CALLER CALLVALUE PUSH0 CALLDATASIZE PUSH1 0x40 MLOAD PUSH2 0xB7 SWAP5 SWAP4 SWAP3 SWAP2 SWAP1 PUSH2 0x5B7 JUMP JUMPDEST PUSH1 0x40 MLOAD DUP1 SWAP2 SUB SWAP1 LOG1 STOP JUMPDEST CALLVALUE DUP1 ISZERO PUSH2 0xCC JUMPI PUSH0 DUP1 REVERT JUMPDEST POP PUSH2 0xD5 PUSH2 0x17B JUMP JUMPDEST PUSH1 0x40 MLOAD PUSH2 0xE2 SWAP2 SWAP1 PUSH2 0x608 JUMP JUMPDEST PUSH1 0x40 MLOAD DUP1 SWAP2 SUB SWAP1 RETURN JUMPDEST CALLVALUE DUP1 ISZERO PUSH2 0xF6 JUMPI PUSH0 DUP1 REVERT JUMPDEST POP PUSH2 0xFF PUSH2 0x182 JUMP JUMPDEST PUSH1 0x40 MLOAD PUSH2 0x10C SWAP2 SWAP1 PUSH2 0x621 JUMP JUMPDEST PUSH1 0x40 MLOAD DUP1 SWAP2 SUB SWAP1 RETURN JUMPDEST CALLVALUE DUP1 ISZERO PUSH2 0x120 JUMPI PUSH0 DUP1 REVERT JUMPDEST POP PUSH2 0x13B PUSH1 0x4 DUP1 CALLDATASIZE SUB DUP2 ADD SWAP1 PUSH2 0x136 SWAP2 SWAP1 PUSH2 0x6A3 JUMP JUMPDEST PUSH2 0x1A6 JUMP JUMPDEST PUSH1 0x40 MLOAD PUSH2 0x148 SWAP2 SWAP1 PUSH2 0x708 JUMP JUMPDEST PUSH1 0x40 MLOAD DUP1 SWAP2 SUB SWAP1 RETURN JUMPDEST CALLVALUE DUP1 ISZERO PUSH2 0x15C JUMPI PUSH0 DUP1 REVERT JUMPDEST POP PUSH2 0x165 PUSH2 0x387 JUMP JUMPDEST PUSH1 0x40 MLOAD PUSH2 0x172 SWAP2 SWAP1 PUSH2 0x73C JUMP JUMPDEST PUSH1 0x40 MLOAD DUP1 SWAP2 SUB SWAP1 RETURN JUMPDEST PUSH0 SELFBALANCE SWAP1 POP SWAP1 JUMP JUMPDEST PUSH32 0x0 DUP2 JUMP JUMPDEST PUSH0 PUSH32 0x0 PUSH20 0xFFFFFFFFFFFFFFFFFFFFFFFFFFFFFFFFFFFFFFFF AND CALLER PUSH20 0xFFFFFFFFFFFFFFFFFFFFFFFFFFFFFFFFFFFFFFFF AND EQ PUSH2 0x235 JUMPI PUSH1 0x40 MLOAD PUSH32 0x8C379A000000000000000000000000000000000000000000000000000000000 DUP2 MSTORE PUSH1 0x4 ADD PUSH2 0x22C SWAP1 PUSH2 0x79F JUMP JUMPDEST PUSH1 0x40 MLOAD DUP1 SWAP2 SUB SWAP1 REVERT JUMPDEST PUSH0 DUP1 PUSH0 SWAP1 SLOAD SWAP1 PUSH2 0x100 EXP SWAP1 DIV PUSH1 0xFF AND PUSH1 0xFF AND EQ PUSH2 0x2A1 JUMPI PUSH1 0x40 MLOAD DUP1 PUSH1 0x60 ADD PUSH1 0x40 MSTORE DUP1 PUSH1 0x36 DUP2 MSTORE PUSH1 0x20 ADD PUSH2 0x922 PUSH1 0x36 SWAP2 CODECOPY PUSH1 0x40 MLOAD PUSH32 0x8C379A000000000000000000000000000000000000000000000000000000000 DUP2 MSTORE PUSH1 0x4 ADD PUSH2 0x298 SWAP2 SWAP1 PUSH2 0x80D JUMP JUMPDEST PUSH1 0x40 MLOAD DUP1 SWAP2 SUB SWAP1 REVERT JUMPDEST PUSH2 0x2E1 DUP4 DUP4 PUSH1 0x40 MLOAD DUP1 PUSH1 0x40 ADD PUSH1 0x40 MSTORE DUP1 PUSH1 0xC DUP2 MSTORE PUSH1 0x20 ADD PUSH32 0xE5908CE5BF97E4BBACE5A5BD0000000000000000000000000000000000000000 DUP2 MSTORE POP PUSH2 0x397 JUMP JUMPDEST PUSH2 0x320 JUMPI PUSH1 0x40 MLOAD PUSH32 0x8B3D2D4300000000000000000000000000000000000000000000000000000000 DUP2 MSTORE PUSH1 0x4 ADD PUSH2 0x317 SWAP1 PUSH2 0x877 JUMP JUMPDEST PUSH1 0x40 MLOAD DUP1 SWAP2 SUB SWAP1 REVERT JUMPDEST PUSH1 0x1 PUSH0 DUP1 PUSH2 0x100 EXP DUP2 SLOAD DUP2 PUSH1 0xFF MUL NOT AND SWAP1 DUP4 PUSH1 0xFF AND MUL OR SWAP1 SSTORE POP PUSH32 0xF39143D48D073EE18F9A08FCABDBD340BE0B2A698E3E45FC3B4318251131B4FC PUSH0 DUP1 SLOAD SWAP1 PUSH2 0x100 EXP SWAP1 DIV PUSH1 0xFF AND PUSH1 0x40 MLOAD PUSH2 0x375 SWAP2 SWAP1 PUSH2 0x73C JUMP JUMPDEST PUSH1 0x40 MLOAD DUP1 SWAP2 SUB SWAP1 LOG1 PUSH1 0x1 SWAP1 POP SWAP3 SWAP2 POP POP JUMP JUMPDEST PUSH0 DUP1 SLOAD SWAP1 PUSH2 0x100 EXP SWAP1 DIV PUSH1 0xFF AND DUP2 JUMP JUMPDEST PUSH0 DUP2 PUSH1 0x40 MLOAD PUSH1 0x20 ADD PUSH2 0x3A9 SWAP2 SWAP1 PUSH2 0x8CF JUMP JUMPDEST PUSH1 0x40 MLOAD PUSH1 0x20 DUP2 DUP4 SUB SUB DUP2 MSTORE SWAP1 PUSH1 0x40 MSTORE DUP1 MLOAD SWAP1 PUSH1 0x20 ADD KECCAK256 DUP5 DUP5 PUSH1 0x40 MLOAD PUSH1 0x20 ADD PUSH2 0x3D2 SWAP3 SWAP2 SWAP1 PUSH2 0x909 JUMP JUMPDEST PUSH1 0x40 MLOAD PUSH1 0x20 DUP2 DUP4 SUB SUB DUP2 MSTORE SWAP1 PUSH1 0x40 MSTORE DUP1 MLOAD SWAP1 PUSH1 0x20 ADD KECCAK256 EQ SWAP1 POP SWAP4 SWAP3 POP POP POP JUMP JUMPDEST PUSH0 DUP3 DUP3 MSTORE PUSH1 0x20 DUP3 ADD SWAP1 POP SWAP3 SWAP2 POP POP JUMP JUMPDEST PUSH32 0x7265636569766500000000000000000000000000000000000000000000000000 PUSH0 DUP3 ADD MSTORE POP JUMP JUMPDEST PUSH0 PUSH2 0x436 PUSH1 0x7 DUP4 PUSH2 0x3F2 JUMP JUMPDEST SWAP2 POP PUSH2 0x441 DUP3 PUSH2 0x402 JUMP JUMPDEST PUSH1 0x20 DUP3 ADD SWAP1 POP SWAP2 SWAP1 POP JUMP JUMPDEST PUSH0 PUSH20 0xFFFFFFFFFFFFFFFFFFFFFFFFFFFFFFFFFFFFFFFF DUP3 AND SWAP1 POP SWAP2 SWAP1 POP JUMP JUMPDEST PUSH0 PUSH2 0x475 DUP3 PUSH2 0x44C JUMP JUMPDEST SWAP1 POP SWAP2 SWAP1 POP JUMP JUMPDEST PUSH2 0x485 DUP2 PUSH2 0x46B JUMP JUMPDEST DUP3 MSTORE POP POP JUMP JUMPDEST PUSH0 DUP2 SWAP1 POP SWAP2 SWAP1 POP JUMP JUMPDEST PUSH2 0x49D DUP2 PUSH2 0x48B JUMP JUMPDEST DUP3 MSTORE POP POP JUMP JUMPDEST PUSH0 DUP3 DUP3 MSTORE PUSH1 0x20 DUP3 ADD SWAP1 POP SWAP3 SWAP2 POP POP JUMP JUMPDEST POP JUMP JUMPDEST PUSH0 PUSH2 0x4C1 PUSH0 DUP4 PUSH2 0x4A3 JUMP JUMPDEST SWAP2 POP PUSH2 0x4CC DUP3 PUSH2 0x4B3 JUMP JUMPDEST PUSH0 DUP3 ADD SWAP1 POP SWAP2 SWAP1 POP JUMP JUMPDEST PUSH0 PUSH1 0x80 DUP3 ADD SWAP1 POP DUP2 DUP2 SUB PUSH0 DUP4 ADD MSTORE PUSH2 0x4ED DUP2 PUSH2 0x42A JUMP JUMPDEST SWAP1 POP PUSH2 0x4FC PUSH1 0x20 DUP4 ADD DUP6 PUSH2 0x47C JUMP JUMPDEST PUSH2 0x509 PUSH1 0x40 DUP4 ADD DUP5 PUSH2 0x494 JUMP JUMPDEST DUP2 DUP2 SUB PUSH1 0x60 DUP4 ADD MSTORE PUSH2 0x51A DUP2 PUSH2 0x4B6 JUMP JUMPDEST SWAP1 POP SWAP4 SWAP3 POP POP POP JUMP JUMPDEST PUSH32 0x66616C6C6261636B000000000000000000000000000000000000000000000000 PUSH0 DUP3 ADD MSTORE POP JUMP JUMPDEST PUSH0 PUSH2 0x557 PUSH1 0x8 DUP4 PUSH2 0x3F2 JUMP JUMPDEST SWAP2 POP PUSH2 0x562 DUP3 PUSH2 0x523 JUMP JUMPDEST PUSH1 0x20 DUP3 ADD SWAP1 POP SWAP2 SWAP1 POP JUMP JUMPDEST DUP3 DUP2 DUP4 CALLDATACOPY PUSH0 DUP4 DUP4 ADD MSTORE POP POP POP JUMP JUMPDEST PUSH0 PUSH1 0x1F NOT PUSH1 0x1F DUP4 ADD AND SWAP1 POP SWAP2 SWAP1 POP JUMP JUMPDEST PUSH0 PUSH2 0x596 DUP4 DUP6 PUSH2 0x4A3 JUMP JUMPDEST SWAP4 POP PUSH2 0x5A3 DUP4 DUP6 DUP5 PUSH2 0x56D JUMP JUMPDEST PUSH2 0x5AC DUP4 PUSH2 0x57B JUMP JUMPDEST DUP5 ADD SWAP1 POP SWAP4 SWAP3 POP POP POP JUMP JUMPDEST PUSH0 PUSH1 0x80 DUP3 ADD SWAP1 POP DUP2 DUP2 SUB PUSH0 DUP4 ADD MSTORE PUSH2 0x5CE DUP2 PUSH2 0x54B JUMP JUMPDEST SWAP1 POP PUSH2 0x5DD PUSH1 0x20 DUP4 ADD DUP8 PUSH2 0x47C JUMP JUMPDEST PUSH2 0x5EA PUSH1 0x40 DUP4 ADD DUP7 PUSH2 0x494 JUMP JUMPDEST DUP2 DUP2 SUB PUSH1 0x60 DUP4 ADD MSTORE PUSH2 0x5FD DUP2 DUP5 DUP7 PUSH2 0x58B JUMP JUMPDEST SWAP1 POP SWAP6 SWAP5 POP POP POP POP POP JUMP JUMPDEST PUSH0 PUSH1 0x20 DUP3 ADD SWAP1 POP PUSH2 0x61B PUSH0 DUP4 ADD DUP5 PUSH2 0x494 JUMP JUMPDEST SWAP3 SWAP2 POP POP JUMP JUMPDEST PUSH0 PUSH1 0x20 DUP3 ADD SWAP1 POP PUSH2 0x634 PUSH0 DUP4 ADD DUP5 PUSH2 0x47C JUMP JUMPDEST SWAP3 SWAP2 POP POP JUMP JUMPDEST PUSH0 DUP1 REVERT JUMPDEST PUSH0 DUP1 REVERT JUMPDEST PUSH0 DUP1 REVERT JUMPDEST PUSH0 DUP1 REVERT JUMPDEST PUSH0 DUP1 REVERT JUMPDEST PUSH0 DUP1 DUP4 PUSH1 0x1F DUP5 ADD SLT PUSH2 0x663 JUMPI PUSH2 0x662 PUSH2 0x642 JUMP JUMPDEST JUMPDEST DUP3 CALLDATALOAD SWAP1 POP PUSH8 0xFFFFFFFFFFFFFFFF DUP2 GT ISZERO PUSH2 0x680 JUMPI PUSH2 0x67F PUSH2 0x646 JUMP JUMPDEST JUMPDEST PUSH1 0x20 DUP4 ADD SWAP2 POP DUP4 PUSH1 0x1 DUP3 MUL DUP4 ADD GT ISZERO PUSH2 0x69C JUMPI PUSH2 0x69B PUSH2 0x64A JUMP JUMPDEST JUMPDEST SWAP3 POP SWAP3 SWAP1 POP JUMP JUMPDEST PUSH0 DUP1 PUSH1 0x20 DUP4 DUP6 SUB SLT ISZERO PUSH2 0x6B9 JUMPI PUSH2 0x6B8 PUSH2 0x63A JUMP JUMPDEST JUMPDEST PUSH0 DUP4 ADD CALLDATALOAD PUSH8 0xFFFFFFFFFFFFFFFF DUP2 GT ISZERO PUSH2 0x6D6 JUMPI PUSH2 0x6D5 PUSH2 0x63E JUMP JUMPDEST JUMPDEST PUSH2 0x6E2 DUP6 DUP3 DUP7 ADD PUSH2 0x64E JUMP JUMPDEST SWAP3 POP SWAP3 POP POP SWAP3 POP SWAP3 SWAP1 POP JUMP JUMPDEST PUSH0 DUP2 ISZERO ISZERO SWAP1 POP SWAP2 SWAP1 POP JUMP JUMPDEST PUSH2 0x702 DUP2 PUSH2 0x6EE JUMP JUMPDEST DUP3 MSTORE POP POP JUMP JUMPDEST PUSH0 PUSH1 0x20 DUP3 ADD SWAP1 POP PUSH2 0x71B PUSH0 DUP4 ADD DUP5 PUSH2 0x6F9 JUMP JUMPDEST SWAP3 SWAP2 POP POP JUMP JUMPDEST PUSH0 PUSH1 0xFF DUP3 AND SWAP1 POP SWAP2 SWAP1 POP JUMP JUMPDEST PUSH2 0x736 DUP2 PUSH2 0x721 JUMP JUMPDEST DUP3 MSTORE POP POP JUMP JUMPDEST PUSH0 PUSH1 0x20 DUP3 ADD SWAP1 POP PUSH2 0x74F PUSH0 DUP4 ADD DUP5 PUSH2 0x72D JUMP JUMPDEST SWAP3 SWAP2 POP POP JUMP JUMPDEST PUSH32 0xE5BF85E9A1BBE9A286E5AFBCE6898DE883BDE8AFB40000000000000000000000 PUSH0 DUP3 ADD MSTORE POP JUMP JUMPDEST PUSH0 PUSH2 0x789 PUSH1 0x15 DUP4 PUSH2 0x3F2 JUMP JUMPDEST SWAP2 POP PUSH2 0x794 DUP3 PUSH2 0x755 JUMP JUMPDEST PUSH1 0x20 DUP3 ADD SWAP1 POP SWAP2 SWAP1 POP JUMP JUMPDEST PUSH0 PUSH1 0x20 DUP3 ADD SWAP1 POP DUP2 DUP2 SUB PUSH0 DUP4 ADD MSTORE PUSH2 0x7B6 DUP2 PUSH2 0x77D JUMP JUMPDEST SWAP1 POP SWAP2 SWAP1 POP JUMP JUMPDEST PUSH0 DUP2 MLOAD SWAP1 POP SWAP2 SWAP1 POP JUMP JUMPDEST DUP3 DUP2 DUP4 MCOPY PUSH0 DUP4 DUP4 ADD MSTORE POP POP POP JUMP JUMPDEST PUSH0 PUSH2 0x7DF DUP3 PUSH2 0x7BD JUMP JUMPDEST PUSH2 0x7E9 DUP2 DUP6 PUSH2 0x3F2 JUMP JUMPDEST SWAP4 POP PUSH2 0x7F9 DUP2 DUP6 PUSH1 0x20 DUP7 ADD PUSH2 0x7C7 JUMP JUMPDEST PUSH2 0x802 DUP2 PUSH2 0x57B JUMP JUMPDEST DUP5 ADD SWAP2 POP POP SWAP3 SWAP2 POP POP JUMP JUMPDEST PUSH0 PUSH1 0x20 DUP3 ADD SWAP1 POP DUP2 DUP2 SUB PUSH0 DUP4 ADD MSTORE PUSH2 0x825 DUP2 DUP5 PUSH2 0x7D5 JUMP JUMPDEST SWAP1 POP SWAP3 SWAP2 POP POP JUMP JUMPDEST PUSH32 0xE5BF85E9A1BBE8AFB4EFBC9AE5908CE5BF97E4BBACE5A5BDEFBC810000000000 PUSH0 DUP3 ADD MSTORE POP JUMP JUMPDEST PUSH0 PUSH2 0x861 PUSH1 0x1B DUP4 PUSH2 0x3F2 JUMP JUMPDEST SWAP2 POP PUSH2 0x86C DUP3 PUSH2 0x82D JUMP JUMPDEST PUSH1 0x20 DUP3 ADD SWAP1 POP SWAP2 SWAP1 POP JUMP JUMPDEST PUSH0 PUSH1 0x20 DUP3 ADD SWAP1 POP DUP2 DUP2 SUB PUSH0 DUP4 ADD MSTORE PUSH2 0x88E DUP2 PUSH2 0x855 JUMP JUMPDEST SWAP1 POP SWAP2 SWAP1 POP JUMP JUMPDEST PUSH0 DUP2 SWAP1 POP SWAP3 SWAP2 POP POP JUMP JUMPDEST PUSH0 PUSH2 0x8A9 DUP3 PUSH2 0x7BD JUMP JUMPDEST PUSH2 0x8B3 DUP2 DUP6 PUSH2 0x895 JUMP JUMPDEST SWAP4 POP PUSH2 0x8C3 DUP2 DUP6 PUSH1 0x20 DUP7 ADD PUSH2 0x7C7 JUMP JUMPDEST DUP1 DUP5 ADD SWAP2 POP POP SWAP3 SWAP2 POP POP JUMP JUMPDEST PUSH0 PUSH2 0x8DA DUP3 DUP5 PUSH2 0x89F JUMP JUMPDEST SWAP2 POP DUP2 SWAP1 POP SWAP3 SWAP2 POP POP JUMP JUMPDEST PUSH0 PUSH2 0x8F0 DUP4 DUP6 PUSH2 0x895 JUMP JUMPDEST SWAP4 POP PUSH2 0x8FD DUP4 DUP6 DUP5 PUSH2 0x56D JUMP JUMPDEST DUP3 DUP5 ADD SWAP1 POP SWAP4 SWAP3 POP POP POP JUMP JUMPDEST PUSH0 PUSH2 0x915 DUP3 DUP5 DUP7 PUSH2 0x8E5 JUMP JUMPDEST SWAP2 POP DUP2 SWAP1 POP SWAP4 SWAP3 POP POP POP JUMP INVALID 0xE6 DUP9 SWAP2 0xE4 0xB8 DUP14 0xE7 SWAP16 0xA5 0xE9 DUP2 SWAP4 0xE5 0xA6 DUP3 0xE4 0xBD SWAP6 0xE5 LOG4 DUP5 0xE7 SWAP1 DUP7 0xE5 0xAE DUP4 0xEF 0xBC DUP13 0xE4 0xBD LOG0 0xE6 DUP10 0xBE 0xE6 SWAP13 DUP10 0xE5 DUP6 0xB3 0xE9 DUP4 0xA8 0xE9 SWAP8 0xA8 0xE5 SWAP1 0xA7 0xEF 0xBC DUP2 LOG2 PUSH5 0x6970667358 0x22 SLT KECCAK256 SAR PC 0xB1 COINBASE 0xE6 SWAP14 TLOAD SHR 0xFB EXP CODESIZE DELEGATECALL SIGNEXTEND CREATE PUSH0 DUP9 SIGNEXTEND 0x2B 0xC2 0x26 SWAP16 0xDB AND POP 0xEE PUSH19 0xA852EAD73CC764736F6C634300081A00330000 "
		},
		"gasEstimates": {
			"creation": {
				"codeDepositCost": "489000",
				"executionCost": "infinite",
				"totalCost": "infinite"
			},
			"external": {
				"": "infinite",
				"getBalance()": "312",
				"hello(string)": "infinite",
				"leader()": "infinite",
				"step()": "2507"
			},
			"internal": {
				"review(string calldata,string memory)": "infinite"
			}
		},
		"methodIdentifiers": {
			"getBalance()": "12065fe0",
			"hello(string)": "a777d0dc",
			"leader()": "40eedabb",
			"step()": "e25fe175"
		}
	},
	"abi": [
		{
			"inputs": [
				{
					"internalType": "address",
					"name": "leader_",
					"type": "address"
				}
			],
			"stateMutability": "nonpayable",
			"type": "constructor"
		},
		{
			"inputs": [
				{
					"internalType": "string",
					"name": "msg",
					"type": "string"
				}
			],
			"name": "MyError",
			"type": "error"
		},
		{
			"anonymous": false,
			"inputs": [
				{
					"indexed": false,
					"internalType": "string",
					"name": "tag",
					"type": "string"
				},
				{
					"indexed": false,
					"internalType": "address",
					"name": "from",
					"type": "address"
				},
				{
					"indexed": false,
					"internalType": "uint256",
					"name": "amount",
					"type": "uint256"
				},
				{
					"indexed": false,
					"internalType": "bytes",
					"name": "data",
					"type": "bytes"
				}
			],
			"name": "Log",
			"type": "event"
		},
		{
			"anonymous": false,
			"inputs": [
				{
					"indexed": false,
					"internalType": "uint8",
					"name": "",
					"type": "uint8"
				}
			],
			"name": "Step",
			"type": "event"
		},
		{
			"stateMutability": "payable",
			"type": "fallback"
		},
		{
			"inputs": [],
			"name": "getBalance",
			"outputs": [
				{
					"internalType": "uint256",
					"name": "",
					"type": "uint256"
				}
			],
			"stateMutability": "view",
			"type": "function"
		},
		{
			"inputs": [
				{
					"internalType": "string",
					"name": "content",
					"type": "string"
				}
			],
			"name": "hello",
			"outputs": [
				{
					"internalType": "bool",
					"name": "",
					"type": "bool"
				}
			],
			"stateMutability": "nonpayable",
			"type": "function"
		},
		{
			"inputs": [],
			"name": "leader",
			"outputs": [
				{
					"internalType": "address",
					"name": "",
					"type": "address"
				}
			],
			"stateMutability": "view",
			"type": "function"
		},
		{
			"inputs": [],
			"name": "step",
			"outputs": [
				{
					"internalType": "uint8",
					"name": "",
					"type": "uint8"
				}
			],
			"stateMutability": "view",
			"type": "function"
		},
		{
			"stateMutability": "payable",
			"type": "receive"
		}
	]
}